:100000000C9473000C949B000C949B000C949B002C
:100010000C949B000C949B000C949B000C949B00F4
:100020000C949B000C949B000C949B000C949B00E4
:100030000C949B000C949B000C949B000C949B00D4
:100040000C9447060C949B000C94A4040C947E041E
:100050000C949B000C949B000C949B000C949B00B4
:100060000C949B000C949B0097029D02A302A90292
:10007000AF02B502BB02EC03F303FA030104080468
:100080001F040F041F0416040000000023002600B4
:10009000290000000000240027002A0000000000C2
:1000A000250028002B0004040404040404040202B4
:1000B00002020202030303030303010204081020E7
:1000C00040800102040810200102040810200000F2
:1000D0000008000201000003040700000000000007
:1000E0000000B210AC1011241FBECFEFD8E0DEBF6D
:1000F000CDBF11E0A0E0B1E0ECEAF7E302C005906B
:100100000D92A439B107D9F723E0A4E9B1E001C009
:100110001D92AE30B207E1F710E0C2E7D0E004C0B4
:100120002197FE010E94CF16C137D107C9F70E945F
:10013000B60C0C94C91B0C940000CF92DF92EF9286
:10014000FF920F931F93CF93DF936C017A018B0182
:10015000C0E0D0E0CE15DF0581F0D8016D918D01B2
:10016000D601ED91FC910190F081E02DC601099539
:10017000892B11F02196EECF7E01C701DF91CF913F
:100180001F910F91FF90EF90DF90CF900895089509
:1001900080E090E00895FC01538D448D252F30E0E0
:1001A000842F90E0821B930B541710F0CF96089584
:1001B00001970895FC01918D828D981761F0828DD1
:1001C000DF01A80FB11D5D968C91928D9F5F9F738B
:1001D000928F90E008958FEF9FEF0895FC01918D2D
:1001E000828D981731F0828DE80FF11D858D90E09A
:1001F00008958FEF9FEF0895FC01918D228D892F37
:1002000090E0805C9F4F821B91098F73992708951E
:1002100089EC91E00E94FC0021E0892B09F420E0A8
:10022000822F0895FC01848DDF01A80FB11DA35A10
:10023000BF4F2C91848D90E001968F739927848F06
:10024000A689B7892C93A089B1898C918370806429
:100250008C93938D848D981306C00288F389E02DCA
:1002600080818F7D80830895EF92FF920F931F937B
:10027000CF93DF93EC0181E0888F9B8D8C8D981359
:1002800005C0E889F989808185FD26C0F62E0B8D91
:1002900010E00F5F1F4F0F731127E02E8C8DE812B7
:1002A0000CC00FB607FCFACFE889F989808185FF79
:1002B000F5CFCE010E941201F1CF8B8DFE01E80F28
:1002C000F11DE35AFF4FF0829FB7F8940B8FEA8934
:1002D000FB89808180620AC09FB7F894EE89FF890C
:1002E0006083E889F98980818370806480839FBFFF
:1002F00081E090E0DF91CF911F910F91FF90EF90FF
:100300000895CF93DF93EC01888D8823C9F0EA89A3
:10031000FB89808185FD05C0A889B9898C9186FDFE
:100320000FC00FB607FCF5CF808185FFF2CFA889FB
:10033000B9898C9185FFEDCFCE010E941201E7CFE4
:10034000DF91CF91089580E090E0892B29F00E9401
:10035000080181110C9400000895833081F028F485
:10036000813099F08230A1F008958730A9F088306B
:10037000B9F08430D1F4809180008F7D03C08091EA
:1003800080008F7780938000089584B58F7702C0B6
:1003900084B58F7D84BD08958091B0008F7703C0B0
:1003A0008091B0008F7D8093B00008952FB7F894AE
:1003B00060919501709196018091970190919801BB
:1003C0002FBF08950F931F93CF93DF93EC010E94EB
:1003D000D6010E811F8128853985DC01CB01801B68
:1003E000910BA20BB30B0A811B812C813D81081755
:1003F00019072A073B0708F03DC00E94D6016E830B
:100400007F8388879987288139813327F901E253CF
:10041000FF4F8491F901E654FF4F0491F901EA5529
:10042000FF4F14911123A1F081110E94AD01E12F22
:10043000F0E0EE0FFF1FE857FF4FA591B491EC914C
:10044000E02331E020E009F430E0832F922F02C056
:1004500080E090E02A853B852817390759F09B8773
:100460008A87EC85FD85309729F0DF91CF911F9128
:100470000F910994DF91CF911F910F91089580E220
:1004800090E0089586E090E008958BE091E0089573
:1004900080E890E00895EF92FF920F931F93CF931F
:1004A000DF938C017B01C1E0D0E0D801ED91FC919C
:1004B0000190F081E02DC80109958C179D0754F03B
:1004C000CE15DF0521F4F801D78BC68B03C0CC0F06
:1004D000DD1FEBCFD80156968D919C915797DF91F8
:1004E000CF911F910F91FF90EF90089580E190E0E0
:1004F000089585E090E0089586E091E00895CF9317
:10050000DF934770552766277727FA013197EC016B
:10051000A881B981E730F10520F4EC5CFF4F0C9421
:10052000CF161496ED91FC91159761E029C01496B1
:10053000ED91FC91159765E023C01496ED91FC9127
:10054000159764E01DC01496ED91FC91159766E037
:1005500017C01496ED91FC91159762E011C01496A6
:10056000ED91FC9115976AE00BC01496ED91FC910A
:10057000159768E005C01496ED91FC91159769E018
:10058000DF91CF910994CF93DF93EC01CB01BA01B6
:1005900026E030E040E050E00E94CE146230710569
:1005A0008105910559F18CF461157105810591055D
:1005B000F1F06130710581059105C1F5E881F9819E
:1005C0000480F581E02D65E02DC064307105810562
:1005D000910511F1D4F0653071058105910531F572
:1005E000E881F9810480F581E02D66E01BC0E88197
:1005F000F9810480F581E02D64E014C0E881F9817F
:100600000480F581E02D61E00DC0E881F98104806E
:10061000F581E02D63E006C0E881F9810480F58171
:10062000E02D62E0CE01DF91CF910994DF91CF916F
:1006300008954370552766277727DC01ED91FC91DB
:100640000480F581E02D423051056105710571F09E
:10065000433051056105710559F04130510561057F
:10066000710511F065E005C066E003C06AE001C0F5
:1006700069E00994CF93DF93EC01CB01BA0123E049
:1006800030E040E050E00E94CE14613071058105F9
:10069000910581F0623071058105910591F0672B1C
:1006A000682B692BC1F4E881F9810480F581E02D84
:1006B00064E00DC0E881F9810480F581E02D61E0FE
:1006C00006C0E881F9810480F581E02D62E0CE0169
:1006D000DF91CF910994DF91CF9108954370552711
:1006E00066277727DC01ED91FC910480F581E02DF0
:1006F000423051056105710571F0433051056105C6
:10070000710559F0413051056105710511F062E044
:1007100005C063E003C061E001C060E00994CF93CD
:10072000DF93EC01E881F9810480F581E02D8A8175
:10073000811102C060E001C062E0CE010995E8814C
:10074000F9810480F581E02D8A81811102C061E088
:1007500001C063E0CE0109958CA59DA5823091056D
:1007600038F0880F991F880F991F05970197F1F7A7
:10077000E881F9810480F581E02D8A81811102C030
:1007800060E001C062E0CE01DF91CF910994CF9388
:10079000DF93EC0120E030E0A9016C897D898E892E
:1007A0009F890E945B1618161CF4E8A9F9A902C0DB
:1007B000EAA9FBA9DF91CF9109940F931F93DC0164
:1007C0001396EC910E2F10E009301105C0F5F801D9
:1007D000E55CFF4F0C94CF16DC01ED91FC91008499
:1007E000F185E02D29C0DC01ED91FC910284F385B7
:1007F000E02D22C0DC01ED91FC910484F585E02D13
:100800001BC0DC01ED91FC910684F785E02D14C03E
:10081000DC01ED91FC910088F189E02D0DC0DC0137
:10082000ED91FC910288F389E02D06C0DC01ED9189
:10083000FC910488F589E02D1F910F9109941F9177
:100840000F9108950E94DF188091A701811103C0C4
:1008500060E170E002C060E270E07195619571093D
:10086000072E000C880B990B0C9401088091A701AE
:10087000811103C060E170E002C060E270E0072E09
:10088000000C880B990B0C940108CF93DF93EC01BB
:1008900088819981009711F00E949017198218821F
:1008A0001D821C821B821A82DF91CF9108950F93C3
:1008B0001F93CF93DF93EC0188819981009729F0F2
:1008C0002A813B812617370788F48B016F5F7F4FA2
:1008D0000E941918009761F0998388831B830A830B
:1008E0002C813D81232B11F4FC01108281E001C099
:1008F00080E0DF91CF911F910F9108951F920F9289
:100900000FB60F9211242F933F934F935F936F93E2
:100910007F938F939F93AF93BF93EF93FF9389EC54
:1009200091E00E941201FF91EF91BF91AF919F91D1
:100930008F917F916F915F914F913F912F910F9088
:100940000FBE0F901F9018951F920F920FB60F9227
:1009500011242F938F939F93EF93FF93E091D901ED
:10096000F091DA018081E091DF01F091E00182FDF8
:1009700012C090818091E2018F5F8F732091E3011B
:10098000821751F0E091E201F0E0E753FE4F958FBE
:100990008093E20101C08081FF91EF919F918F913F
:1009A0002F910F900FBE0F901F9018951F93CF930C
:1009B000DF93282F30E0F901E253FF4F8491F901D2
:1009C000E654FF4FD491F901EA55FF4FC491CC236F
:1009D000C1F0162F81110E94AD01EC2FF0E0EE0F57
:1009E000FF1FE456FF4FA591B4919FB7F8941111E2
:1009F00004C08C91D095D82302C0EC91DE2BDC93FF
:100A00009FBFDF91CF911F9108950F931F93CF93B5
:100A1000DF93EC010E944B028EA99FA90196E9F198
:100A200088AD99AD0196C9F18AAD9BAD0196A9F14A
:100A3000E881F9810480F581E02DCE0109958C01D2
:100A4000E881F9810680F781E02DCE01099520E04B
:100A500030E08217930709F14E895F89022E02C0A8
:100A6000559547950A94E2F740FF14C0F801E20F4C
:100A7000F31F1081612F64708AAD0E94D604612F2C
:100A8000627088AD0E94D604612F61708EA90E94A9
:100A9000D60403C02F5F3F4FDCCF8E899F89DF9143
:100AA000CF911F910F910895CF92DF92EF92FF9215
:100AB0000F931F93CF93DF93EC019B81943041F010
:100AC000983031F0933031F0963021F012E003C0CD
:100AD00014E001C013E02496E12CF12CC62ED12C99
:100AE00001E0C6010E2C02C0959587950A94E2F7A5
:100AF0006C8180FD602789910E94D6048FEFE81AEF
:100B0000F80AE11670F3DF91CF911F910F91FF90DA
:100B1000EF90DF90CF90089561E08DE00E94D604C1
:100B200081E08093C8010895CF93DF9390E0FC01AA
:100B3000E654FF4F2491FC01EA55FF4F849188232E
:100B400061F190E0880F991FFC01EE56FF4FC591AF
:100B5000D491FC01E456FF4FA591B491611109C0F5
:100B60009FB7F8948881209582238883EC912E2367
:100B70000BC0623061F49FB7F8948881322F3095B2
:100B800083238883EC912E2B2C939FBF06C08FB7B5
:100B9000F894E8812E2B28838FBFDF91CF910895A1
:100BA000CF93DF93FC012381222359F1EC0161E013
:100BB00084810E94940561E08D810E9494058B815F
:100BC000843011F0883039F461E08E810E94940500
:100BD00061E08F8106C0833011F0863021F461E03E
:100BE0008E810E9494058FA58F3F59F061E00E948D
:100BF00094056EA581E068278FA5DF91CF910C94B5
:100C0000D604DF91CF910895CF93DF93FC01238128
:100C10002223A9F0EC010190F081E02D0480F58100
:100C2000E02D60E009958FA58F3F49F061E00E94BB
:100C300094056EA58FA5DF91CF910C94D604DF911A
:100C4000CF9108953FB7F8948091990190919A01BE
:100C5000A0919B01B0919C0126B5A89B05C02F3F98
:100C600019F00196A11DB11D3FBFBA2FA92F982FD2
:100C70008827820F911DA11DB11DBC01CD0142E04D
:100C8000660F771F881F991F4A95D1F708951F9205
:100C90000F920FB60F9211242F933F938F939F9330
:100CA000AF93BF938091950190919601A091970188
:100CB000B09198013091940123E0230F2D3720F457
:100CC0000196A11DB11D05C026E8230F0296A11DA6
:100CD000B11D209394018093950190939601A09368
:100CE0009701B09398018091990190919A01A091F8
:100CF0009B01B0919C010196A11DB11D80939901AA
:100D000090939A01A0939B01B0939C01BF91AF91E6
:100D10009F918F913F912F910F900FBE0F901F9039
:100D200018952F923F924F925F926F927F928F927F
:100D30009F92AF92BF92CF92DF92EF92FF920F936A
:100D40001F93CF93DF936B017C018091EA02909116
:100D5000EB02A091EC02B091ED020097A105B10564
:100D600029F1DCF34091F2025091F3026091F40218
:100D70007091F502481759076A077B070CF02EC1DE
:100D80008C0D9D1DAE1DBF1DF7FE07C08417950776
:100D9000A607B70714F4DB01CA018093EA02909317
:100DA000EB02A093EC02B093ED0218C1D701C6018B
:100DB00080959095A095B0958827B7FD8395992744
:100DC000AA27BB279093FB028093FA021092CC02D1
:100DD0001092CD021092CE021092CF02F7FE08C000
:100DE000F094E094D094C094C11CD11CE11CF11C7F
:100DF000C092EA02D092EB02E092EC02F092ED0295
:100E00001092E6021092E7021092E8021092E902B4
:100E10001092C8021092C9021092CA021092CB021C
:100E20008091E0029091E1022091DE023091DF0298
:100E30000091D4021091D502C091DC02D091DD0264
:100E4000019709F099C0209FC001219F900D309F0C
:100E5000900D11246CE370E00E94BB160091E20239
:100E60001091E3029B01DB010E94D5169B01AC01AE
:100E7000DE010E94F8149801220F331F032E000C8C
:100E8000440B550B0E94CE1449015A012093EE02E7
:100E90003093EF024093F0025093F1022090E4026D
:100EA0003090E5022101032C000C66087708D80178
:100EB0000E94F814A30192010E94CE142093F20222
:100EC0003093F3024093F4025093F502D501C4012C
:100ED000820F931FA41FB51FC816D906EA06FB068A
:100EE0001CF5A7019601C301B2010E949C14980150
:100EF000220D331D032E000C440B550B0E94CE1403
:100F00002093EE023093EF024093F0025093F102EF
:100F1000C21AD30AE40AF50AC092F202D092F3028E
:100F2000E092F402F092F502C09FB001C19F700DF3
:100F3000D09F700D1124072E000C880B990B0E9476
:100F40007F139B01AC0160E070E080E090E40E94C0
:100F5000B3150E94661620E03AE045E259E40E948B
:100F6000DE130E9425166093F6027093F7028093B9
:100F7000F8029093F90232C0032E000C440B550B7B
:100F800060E077E883E993E00E94CE14CA01B901DA
:100F90009801110F440B550B0E94CE14CA01B901E0
:100FA0009E01DD0F440B550B0E94CE142093F602D8
:100FB0003093F7024093F8025093F9021092EE0238
:100FC0001092EF021092F0021092F1021092F202CF
:100FD0001092F3021092F4021092F502DF91CF9179
:100FE0001F910F91FF90EF90DF90CF90BF90AF9047
:100FF0009F908F907F906F905F904F903F902F9039
:1010000008954F925F926F927F928F929F92AF92CC
:10101000BF92CF92DF92EF92FF92CF93DF93CDB743
:10102000DEB72C970FB6F894DEBF0FBECDBF0E947F
:1010300091068091EA029091EB02A091EC02B091AE
:10104000ED02181619061A061B060CF049C180900D
:10105000D0029090D102A090D202B090D30281141D
:101060009104A104B10439F56091FA028091D6028D
:101070000E94D60461E08091D8020E94D6040E94AA
:10108000220669877A878B879C87C090F602D0906A
:10109000F702E090F802F090F9028091EA02909154
:1010A000EB02A091EC02B091ED02181619061A0697
:1010B0001B0604F1D0C0C090CC02D090CD02E090CD
:1010C000CE02F090CF02C114D104E104F10421F466
:1010D0000E9422066B017C010E942206DC01CB01EA
:1010E0008C199D09AE09BF0988159905AA05BB058C
:1010F00098F3BACF9C01AD01215031094109510942
:101100002093EA023093EB024093EC025093ED02FD
:101110008090E6029090E702A090E802B090E90289
:101120008FEF881A980AA80AB80A8092E60290926D
:10113000E702A092E802B092E9028091E002909169
:10114000E102019709F087C02115310541055105DC
:1011500009F481C08091F2029091F302A091F4020F
:10116000B091F50282179307A407B5070CF0EEC003
:101170004090EE025090EF026090F0027090F10209
:10118000481459046A047B040CF465C08091C802B9
:101190009091C902A091CA02B091CB0289839A832F
:1011A000AB83BC83D501C40142E0880F991FAA1FFD
:1011B000BB1F4A95D1F79C01AD012F5F3F4F4F4FA9
:1011C0005F4F2D833E834F835887D701C601880F19
:1011D000991FAA1FBB1F29813A814B815C81280F6F
:1011E000391F4A1F5B1FCA01B9012D813E814F8102
:1011F00058850E94CE14D701C601821B930BA40B05
:10120000B50B8093F6029093F702A093F802B09387
:10121000F90284149504A604B7040CF093C0880F57
:10122000991FAA1FBB1F29813A814B815C81280F1E
:10123000391F4A1F5B1FCA01B9012D813E814F81B1
:1012400058850E94CE146093C8027093C90280939F
:10125000CA029093CB020E942206AB01A985BA85EF
:101260004A1B5B0B5A834983452B79F40E94220663
:101270004B015C010E94220686169706A806B90655
:10128000C9F321E030E03A83298360E08091D802FD
:101290000E94D6040E9422066093CC027093CD0275
:1012A0008093CE029093CF0249815A81CA01A0E077
:1012B000B0E08C159D05AE05BF052CF4C81AD90AFF
:1012C000EA0AFB0A04C0C12CD12C7601C394C09257
:1012D000D002D092D102E092D202F092D30210C09A
:1012E0001092CC021092CD021092CE021092CF0238
:1012F0001092D0021092D1021092D2021092D30218
:101300008091D0029091D102A091D202B091D302EB
:10131000892B8A2B8B2B09F08CCE2C960FB6F89448
:10132000DEBF0FBECDBFDF91CF91FF90EF90DF907A
:10133000CF90BF90AF909F908F907F906F905F9075
:101340004F90089560E070E0CB017DCF8090C8029F
:101350009090C902A090CA02B090CB02ACEFBFEF50
:101360000E94FB142B013C013FEF431A530A630A0E
:10137000730AD701C601880F991FAA1FBB1FBC01A2
:10138000CD01680D791D8A1D9B1DA30192010E944C
:10139000CE14D701C601821B930BA40BB50B80930F
:1013A000F6029093F702A093F802B093F902880F27
:1013B000991FAA1FBB1FBC01CD01680D791D8A1D95
:1013C0009B1DA30192013DCF4F925F926F927F923E
:1013D0008F929F92AF92BF92CF92DF92EF92FF9245
:1013E0000F931F93CF93DF93C0909202D0909302FC
:1013F000E0909402F090950280918E0290918F027D
:10140000A0919002B0919102C81AD90AEA0AFB0A87
:101410006091960270919702809198029091990242
:101420009B01AC010E94DE134B015C0160919E02A6
:1014300070919F028091A0029091A1029B01AC014A
:101440000E9447159B01AC01C501B4010E94B31570
:101450000E942516C114D104E104F104F9F46230AC
:101460007105810591050CF092C01092A6021092B0
:10147000A7021092A8021092A9021092960210924E
:10148000970210929802109299021092B60210924E
:10149000B7021092B8021092B9022AC10091B602A6
:1014A0001091B7022091B8023091B9021C141D04AA
:1014B0001E041F040CF5101611061206130654F430
:1014C0006C157D058E059F0564F520918402211120
:1014D0005EC027C0011511052105310509F457C06B
:1014E0006C157D058E059F050CF051C0809184021E
:1014F000882309F44CC03CC01016110612061306CE
:1015000014F50027112798010C191D092E093F0910
:10151000601771078207930724F420918402222325
:10152000B1F19B01AC0188279927DC01821B930B49
:10153000A40BB50B8093B6029093B702A093B802A8
:10154000B093B90224C00115110521053105F9F048
:101550008824992454018C189D08AE08BF0868158A
:1015600079058A059B059CF48091840281110FC046
:1015700030952095109501951F4F2F4F3F4F0093A9
:10158000B6021093B7022093B8023093B90280904C
:10159000B6029090B702A090B802B090B902811440
:1015A0009104A104B104D1F48091BA029091BB02DC
:1015B000A091BC02B091BD028093BE029093BF0285
:1015C000A093C002B093C10281E01C141D041E044C
:1015D0001F040CF080E0809384024AC0C090BE02D9
:1015E000D090BF02E090C002F090C102A701960126
:1015F000C701B6010E9447152B013C01C501B4018A
:101600000E947F1320E030E040E850E40E94DE13A7
:1016100020E030E040E85FE30E9447159B01AC0109
:10162000C301B2010E94B3159B01AC01C701B60111
:101630000E944615D62FC72F6C01E090C202F09091
:10164000C3020091C4021091C5029701A8010E9433
:101650005B1618161CF4ED2EFC2E8601C701D8016E
:101660008093BE029093BF02A093C002B093C102C8
:101670003FEF831A930AA30AB30A8092B6029092AC
:10168000B702A092B802B092B902C090BE02D09048
:10169000BF02E090C002F090C102C701B6010E94F3
:1016A0002C166093A6027093A7028093A8029093D1
:1016B000A902A701960160E074E284E799E40E9420
:1016C000B31560939602709397028093980290935B
:1016D00099022091840221110BC0DC01CB01B0588A
:1016E0008093960290939702A0939802B0939902E8
:1016F000DF91CF911F910F91FF90EF90DF90CF90EE
:10170000BF90AF909F908F907F906F905F904F9021
:1017100008954F925F926F927F928F929F92AF92B5
:10172000BF92CF92DF92EF92FF926B017C0120E09B
:1017300030E0A9010E94781387FF04C0F7FAF09403
:10174000F7F8F09480909E0290909F02A090A002E3
:10175000B090A102A7019601C501B4010E947813BF
:10176000882309F456C06091B6027091B702809147
:10177000B8029091B9020E947F132B013C01A7018E
:101780009601C501B4010E94B3159B01AC01C301D0
:10179000B2010E94DE130E9425166093B602709378
:1017A000B7028093B8029093B902A701960160E056
:1017B00070E080E090E40E94B3150E94661626E572
:1017C0003EE04DE25FE30E94DE1320E034E244E7B6
:1017D00059E40E94DE136093BA027093BB028093B7
:1017E000BC029093BD02C0929E02D0929F02E092F2
:1017F000A002F092A102FF90EF90DF90CF90BF90F7
:10180000AF909F908F907F906F905F904F900C94CF
:10181000E409FF90EF90DF90CF90BF90AF909F9042
:101820008F907F906F905F904F900895009769F030
:10183000FC0101900020E9F73197AF01481B590BDB
:10184000BC0189EC91E00C949D0080E090E008954B
:10185000CF92DF92EF92FF928091A6029091A70221
:10186000A091A802B091A902892B8A2B8B2B09F495
:1018700050C00E9422066B017C018091AA029091C7
:10188000AB02A091AC02B091AD02B701A601481B1A
:10189000590B6A0B7B0B8091A6029091A702A09135
:1018A000A802B091A902481759076A077B0788F177
:1018B0002091840280918E0290918F02A0919002DB
:1018C000B0919102222321F00196A11DB11D03C008
:1018D0000197A109B10980938E0290938F02A09382
:1018E0009002B093910240918E0250918F026091CC
:1018F00090027091910282E892E00E94DD03C09212
:10190000AA02D092AB02E092AC02F092AD020E9429
:10191000E40920E030E0A9016091960270919702FD
:1019200080919802909199020E947813811118C0B9
:1019300081E0C0909202D0909302E0909402F090E7
:10194000950240918E0250918F02609190027091A9
:101950009102C416D506E606F70619F480E001C028
:1019600081E0FF90EF90DF90CF900895CF93DF93C9
:10197000CDB7DEB728970FB6F894DEBF0FBECDBF48
:10198000789484B5826084BD84B5816084BD85B55A
:10199000826085BD85B5816085BD80916E00816066
:1019A00080936E001092810080918100826080930C
:1019B000810080918100816080938100809180000E
:1019C0008160809380008091B10084608093B10039
:1019D0008091B00081608093B00080917A00846033
:1019E00080937A0080917A00826080937A0080915F
:1019F0007A00816080937A0080917A008068809379
:101A00007A001092C100E091D901F091DA0182E0F0
:101A10008083E091D501F091D6011082E091D70149
:101A2000F091D8018FEC80831092E101E091DD010B
:101A3000F091DE0186E08083E091DB01F091DC0132
:101A4000808180618083E091DB01F091DC01808105
:101A500088608083E091DB01F091DC018081806807
:101A60008083E091DB01F091DC0180818F7D8083B8
:101A700061E08DE00E94940561E08091D6020E94B1
:101A8000940561E08091D6020E94D60461E08091C5
:101A9000D8020E94940560E08091D8020E94D6048A
:101AA0008091DA029091DB028F3F2FEF920741F095
:101AB00061E00E94940561E08091DA020E94D60400
:101AC00088E790E09093DF028093DE0260E170E0AF
:101AD00086EC92E00E9405058091DA029091DB028B
:101AE0008F3F3FEF930719F060E00E94D60480918A
:101AF000FC029091FD028F3F4FEF9407D9F02091A7
:101B0000FE023091FF022F3F3F4FA1F020910003D2
:101B1000309101032F3F3F4F69F061E00E9494052F
:101B200061E08091FE020E94940561E080910003D3
:101B30000E94940560E070E882EA94E40E94890BB8
:101B40001092C8010E94D6016093C4017093C50130
:101B50008093C6019093C70188E0E8EBF1E0DF01D4
:101B60001D928A95E9F76624639487E0482E512CEC
:101B700098E0792E21E7222E21E0322E0DE911E0A6
:101B80008091C8018823E1F00E94280C40919202C4
:101B900050919302609194027091950280918E020F
:101BA00090918F02A0919002B0919102481759072D
:101BB0006A077B0779F50E94D6011092C8012AC0F6
:101BC0000E94D601C090C401D090C501E090C6012A
:101BD000F090C7019B01AC012C193D094E095F092A
:101BE00069017A013CE2C31631E0D306E104F10455
:101BF00088F06093C4017093C5018093C6019093EF
:101C0000C7016091C30141E064276093C3018DE087
:101C10000E94D60484E792E00E94E20186E692E008
:101C20000E94E20189EC91E00E94FC002091C20137
:101C3000892B19F0222309F46BC2222309F465C20F
:101C4000A0EBB1E0E72D1D92EA95E9F7A8EAB1E033
:101C5000E72D1D92EA95E9F7E8EBF1E0019000200D
:101C6000E9F731979F01285B3140790132E0E316B3
:101C7000F104ACF042E050E068EB71E080EB91E001
:101C80000E94071942E0E416F10449F0A70142500E
:101C900051096AEB71E088EA91E00E940719A8EB0C
:101CA000B1E0E72D1D92EA95E9F71092C20110927A
:101CB000C1011092C00169E471E080EB91E00E94E3
:101CC000ED18892B21F48CE491E00E94160C60E55C
:101CD00071E080EB91E00E94ED18892B51F063E5F3
:101CE00071E080EB91E00E94ED18892B09F47FC030
:101CF00084C08091C801811102C00E948C0580902F
:101D0000960290909702A0909802B090990220E0DD
:101D100030E0A901C501B4010E947813882309F4B9
:101D200061C0A5019401C501B4010E94DE136B01DD
:101D30007C0160919E0270919F028091A00290911F
:101D4000A1029B01AC010E9447159B01AC01C70198
:101D5000B6010E94B3150E9425166B017C01FFEFAE
:101D6000CF1ADF0AEF0AFF0A20E030E0A901C5011F
:101D7000B4010E945B168090920290909302A09012
:101D80009402B090950240918E0250918F02609122
:101D9000900270919102181694F4C40ED51EE61E9E
:101DA000F71EC814D904EA04FB04E1F0C0929202C1
:101DB000D0929302E0929402F092950211C04C19D5
:101DC0005D096E097F09481559056A057B0551F0C3
:101DD0004093920250939302609394027093950201
:101DE0000E94E4090E94280C8111FCCF78CF8091D9
:101DF000C801811102C00E948C0566E571E080EB8C
:101E000091E00E94ED18892B21F489E591E00E9470
:101E1000160C6DE571E080EB91E00E94ED18892BC6
:101E200021F489E591E00E94160C60E671E080EBF8
:101E300091E00E94ED18892B59F48091A701882325
:101E400019F083E691E002C08CE491E00E94160C48
:101E500067E671E080EB91E00E94ED18892BE1F4D8
:101E60004091920250919302609194027091950278
:101E700080918E0290918F02A0919002B091910278
:101E8000481759076A077B0719F48CE491E002C0F0
:101E90008AE691E00E94160C6EE671E080EB91E01C
:101EA0000E94ED18892BF9F4809195028F9380910F
:101EB00094028F93809193028F93809192028F93DB
:101EC0003F922F921F930F930E9416198DE991E074
:101ED0000E94160C8EE491E00E94160C0FB6F89446
:101EE000DEBF0FBECDBF66E771E080EB91E00E94E0
:101EF000ED18892BF9F4809191028F9380919002D3
:101F00008F9380918F028F9380918E028F933F9257
:101F10002F921F930F930E9416198DE991E00E9452
:101F2000160C8EE491E00E94160C0FB6F894DEBFFA
:101F30000FBECDBF69E771E080EB91E00E94ED1824
:101F4000892B21F48CE791E00E94160C62E871E085
:101F500080EB91E00E94ED18892B09F051C01A82A4
:101F600019821C821B821E821D82E0900203F09067
:101F70000303E114F104B9F0C0900603D090070305
:101F8000B601CE0101960E945704811105C0CE0111
:101F900001960E94450407C0DE82CD82B701898187
:101FA0009A810E94001953E25F831886ED80FE80BB
:101FB0008FEFE81AF80AB701CE0101960E94570484
:101FC000882371F029813A818D819E81BE01695FEC
:101FD0007F4F820F931F0E940019FE82ED8204C082
:101FE000CE0101960E9445044D815E8169817A810E
:101FF00089EC91E00E949D0089819A810E9490174E
:1020000065E871E080EB91E00E94ED18892B41F4C6
:1020100060E170E086EC92E00E9405051092A70155
:1020200068E871E080EB91E00E94ED18892B41F4A3
:1020300060E270E086EC92E00E9405056092A701E4
:102040006BE871E080EB91E00E94ED18892B29F597
:102050008091C801811102C00E948C0540E150E0CE
:1020600060E070E088EA91E00E945612C09092020F
:10207000D0909302E0909402F0909502C616D70695
:10208000E806F90651F060939202709393028093F0
:102090009402909395020E94E4096EE871E080EB4F
:1020A00091E00E94ED18892B81F540E150E060E05D
:1020B00070E088EA91E00E94561260938E0270935D
:1020C0008F0280939002909391026093920270939A
:1020D000930280939402909395021092B60210920C
:1020E000B7021092B8021092B9021092A602109292
:1020F000A7021092A8021092A902109296021092C2
:10210000970210929802109299020E94A30138CD72
:1021100089EC91E00E94DA008332D9F08A3309F425
:1021200081CD2091C0013091C101A9014F5F5F4F66
:102130005093C1014093C001F901E854FE4F8083E0
:10214000483051050CF46ECD5092C1014092C0014F
:1021500069CD6092C20166CD809102039091030324
:102160000C949017CF92DF92EF92FF92CF93DF9370
:102170001092CC011092CB0188EE93E0A0E0B0E089
:102180008093CD019093CE01A093CF01B093D00165
:1021900085E191E09093CA018093C90185EC90E0BC
:1021A0009093D6018093D50184EC90E09093D80170
:1021B0008093D70180EC90E09093DA018093D9016D
:1021C00081EC90E09093DC018093DB0182EC90E065
:1021D0009093DE018093DD0186EC90E09093E00126
:1021E0008093DF011092E2011092E3011092E4016A
:1021F0001092E5011092030310920203109205035E
:1022000010920403109207031092060362E070E03C
:1022100082E093E00E945704811105C082E093E0C0
:102220000E9445040EC082E090E0909307038093E3
:10223000060361E971E080910203909103030E941B
:1022400000191092CC021092CD021092CE02109280
:10225000CF021092D0021092D1021092D2021092AC
:10226000D30288EC90E09093D5028093D4028EE064
:1022700090E09093D7028093D6028FE090E0909305
:10228000D9028093D8028FEF9FEF9093DB02809367
:10229000DA02C1E0D0E0D093DD02C093DC021092FC
:1022A000DF021092DE021092E1021092E00288EE4C
:1022B00093E09093E3028093E2029093E50280938F
:1022C000E40282E190E09093FD028093FC0281E1C0
:1022D00090E09093FF028093FE0280E190E0909363
:1022E00001038093000381E491E09093C7028093FF
:1022F000C60287E291E0909383028093820210925B
:10230000850210928E0210928F021092900210920B
:1023100091021092920210929302109294021092E3
:1023200095021092960210929702109298021092C3
:10233000990280E090E0A0E8BFE380939A02909336
:102340009B02A0939C02B0939D0210929E02109259
:102350009F021092A0021092A1028093A202909379
:10236000A302A093A402B093A5021092A602109219
:10237000A7021092A8021092A902D093AF02C093B4
:10238000AE022FEF2093B1021092AA021092AB027C
:102390001092AC021092AD02109286021092870247
:1023A000109288021092890226E334E03093B3023F
:1023B0002093B20224E234E03093B5022093B402B9
:1023C0001092B6021092B7021092B8021092B9029F
:1023D0001092BA021092BB021092BC021092BD027F
:1023E0001092BE021092BF021092C0021092C1025F
:1023F0008093C2029093C302A093C402B093C5021B
:102400001092840210928A0210928B0210928C0217
:1024100010928D02BC01CD010E94890B62E082E026
:102420000E94940582E090E090937502809374027C
:102430008CE3C82ED12CE12CF12CC0927602D092E4
:102440007702E0927802F092790210927A0210926A
:102450007B0210927C0210927D02D0937F02C09387
:102460007E0262E083E00E94940583E090E0909316
:10247000670280936602C0926802D0926902E0927D
:102480006A02F0926B0210926C0210926D0210922E
:102490006E0210926F02D0937102C0937002DF91AE
:1024A000CF91FF90EF90DF90CF900895A0E0B0E043
:1024B000ECE5F2E10C9401155C016B017A01611508
:1024C000710519F0FB0191838083E114F10429F077
:1024D000C7010297839708F0E5C0E5012196F50151
:1024E0001081812F90E00E946C13892B11F05E0106
:1024F000F4CF1D3229F42196F501118101E007C0C6
:102500001B3221F4E5012296F501118100E0E1146E
:10251000F10409F1F0E1EF16F10429F43FC010E3F2
:10252000E114F10421F128E0E216F10401F154F480
:10253000E2E0EE16F10421F5812C912CA12CB0E4FF
:10254000BB2E3EC0FAE0EF16F10439F020E1E216AE
:10255000F104B1F430C0103319F1FAE0EF2EF12C90
:10256000ACEC8A2E982CA82CACE0BA2E29C078E0CE
:10257000E72EF12C812C912CA12CE0E1BE2E20C065
:1025800060E070E080E090E897010F2C000C440BB5
:10259000550B0E94AC1449015A0112C0103359F472
:1025A00088818F7D883509F0BACF19812296026023
:1025B00080E1E82EF12C812C912CA12C68E0B62E24
:1025C00040E060E070E0CB0127010F2C000C6608B2
:1025D0007708FE0150ED352E310E29E0231570F4F9
:1025E0002FEB210F2A3118F439EC332E06C02FE9D6
:1025F000210F2A3118F529EA322E310E232D30E031
:102600002E153F05DCF447FD16C086169706A80672
:10261000B90670F0A30192010E949C14630D711D14
:10262000811D911D61307105810520E8920710F030
:102630004FEF01C041E021961081CBCF202F2170B8
:10264000C114D10471F0442329F02197F601D183FC
:10265000C08307C001FF19C02297F601D183C08350
:1026600014C047FF12C0222329F060E070E080E030
:1026700090E804C06FEF7FEF8FEF9FE722E230E03A
:10268000309309032093080309C0222381F0909519
:102690008095709561957F4F8F4F9F4F462F372FB5
:1026A000282F12C040E030E020E090E00DC097FFFE
:1026B000F5CF82E290E090930903809308036FEFD7
:1026C0007FEF8FEF9FE7EACF642F732F822FCDB775
:1026D000DEB7E1E10C941D1591110C947513803255
:1026E00019F089508550C8F70895992788270895CB
:1026F0000E94BA1308F481E00895E89409C097FB9A
:102700003EF490958095709561957F4F8F4F9F4FC8
:102710009923A9F0F92F96E9BB279395F69587950C
:1027200077956795B795F111F8CFFAF4BB0F11F4CF
:1027300060FF1BC06F5F7F4F8F4F9F4F16C0882376
:1027400011F096E911C0772321F09EE8872F762FAC
:1027500005C0662371F096E8862F70E060E02AF0ED
:102760009A95660F771F881FDAF7880F96958795D9
:1027700097F90895990F0008550FAA0BE0E8FEEFAE
:1027800016161706E807F907C0F012161306E40735
:10279000F50798F0621B730B840B950B39F40A262E
:1027A00061F0232B242B252B21F408950A2609F40C
:1027B000A140A6958FEF811D811D08950E94F11300
:1027C0000C9462140E94541438F00E945B1420F0A0
:1027D000952311F00C944B140C94511411240C9467
:1027E00096140E94731470F3959FC1F3950F50E0F7
:1027F000551F629FF001729FBB27F00DB11D639FB3
:10280000AA27F00DB11DAA1F649F6627B00DA11D58
:10281000661F829F2227B00DA11D621F739FB00DFE
:10282000A11D621F839FA00D611D221F749F33276E
:10283000A00D611D231F849F600D211D822F762F07
:102840006A2F11249F5750409AF0F1F088234AF0E4
:10285000EE0FFF1FBB1F661F771F881F9150504050
:10286000A9F79E3F510580F00C944B140C949614DC
:102870005F3FE4F3983ED4F3869577956795B795D7
:10288000F795E7959F5FC1F7FE2B880F911D9695F1
:10289000879597F9089597F99F6780E870E060E061
:1028A00008959FEF80EC089500240A9416161706E9
:1028B00018060906089500240A9412161306140631
:1028C00005060895092E0394000C11F4882352F094
:1028D000BB0F40F4BF2B11F460FF04C06F5F7F4F4C
:1028E0008F4F9F4F089557FD9058440F551F59F033
:1028F0005F3F71F04795880F97FB991F61F09F3FED
:1029000079F087950895121613061406551FF2CF15
:102910004695F1DF08C0161617061806991FF1CF65
:1029200086957105610508940895E894BB2766278C
:102930007727CB0197F90895DB018F939F930E942E
:10294000ED14BF91AF91A29F800D911DA39F900D9B
:10295000B29F900D11240895A1E21A2EAA1BBB1B51
:10296000FD010DC0AA1FBB1FEE1FFF1FA217B3075B
:10297000E407F50720F0A21BB30BE40BF50B661F71
:10298000771F881F991F1A9469F760957095809535
:1029900090959B01AC01BD01CF010895052E97FBD9
:1029A0001EF400940E94E51457FD07D00E94AC1459
:1029B00007FC03D04EF40C94E514509540953095E7
:1029C00021953F4F4F4F5F4F08959095809570959B
:1029D00061957F4F8F4F9F4F08950E943715A59F98
:1029E000900DB49F900DA49F800D911D112408950A
:1029F000B7FF0C94ED140E94ED14821B930B089505
:102A00002F923F924F925F926F927F928F929F92FE
:102A1000AF92BF92CF92DF92EF92FF920F931F93EC
:102A2000CF93DF93CDB7DEB7CA1BDB0B0FB6F8949D
:102A3000DEBF0FBECDBF09942A88398848885F84DD
:102A40006E847D848C849B84AA84B984C884DF804E
:102A5000EE80FD800C811B81AA81B981CE0FD11D32
:102A60000FB6F894DEBF0FBECDBFED010895A29F53
:102A7000B001B39FC001A39F700D811D1124911D52
:102A8000B29F700D811D1124911D08955058BB27D0
:102A9000AA270E945E150C9462140E94541438F008
:102AA0000E945B1420F039F49F3F19F426F40C9433
:102AB00051140EF4E095E7FB0C944B14E92F0E949F
:102AC000731458F3BA17620773078407950720F049
:102AD00079F4A6F50C9495140EF4E0950B2EBA2F0C
:102AE000A02D0B01B90190010C01CA01A001112414
:102AF000FF27591B99F0593F50F4503E68F11A16C0
:102B0000F040A22F232F342F4427585FF3CF469550
:102B100037952795A795F0405395C9F77EF41F1672
:102B2000BA0B620B730B840BBAF09150A1F0FF0F3C
:102B3000BB1F661F771F881FC2F70EC0BA0F621F28
:102B4000731F841F48F4879577956795B795F79518
:102B50009E3F08F0B0CF9395880F08F09927EE0FAD
:102B60009795879508950E94C7150C9462140E944A
:102B70005B1458F00E94541440F029F45F3F29F090
:102B80000C944B1451110C9496140C9451140E94F3
:102B9000731468F39923B1F3552391F3951B550BE7
:102BA000BB27AA2762177307840738F09F5F5F4F20
:102BB000220F331F441FAA1FA9F335D00E2E3AF05F
:102BC000E0E832D091505040E695001CCAF72BD077
:102BD000FE2F29D0660F771F881FBB1F26173707C8
:102BE0004807AB07B0E809F0BB0B802DBF01FF27FA
:102BF00093585F4F3AF09E3F510578F00C944B1478
:102C00000C9496145F3FE4F3983ED4F38695779541
:102C10006795B795F7959F5FC9F7880F911D9695B2
:102C2000879597F90895E1E0660F771F881FBB1F0E
:102C3000621773078407BA0720F0621B730B840BBB
:102C4000BA0BEE1F88F7E09508950E942C16689441
:102C5000B1110C94961408950E947B1488F09F572C
:102C600098F0B92F9927B751B0F0E1F0660F771FB0
:102C7000881F991F1AF0BA95C9F714C0B13091F0A6
:102C80000E949514B1E008950C949514672F782F45
:102C90008827B85F39F0B93FCCF38695779567956B
:102CA000B395D9F73EF490958095709561957F4FD7
:102CB0008F4F9F4F08950E94BA1308F48FEF089525
:102CC00019F416F40C9451140C94A6160E947B145B
:102CD000B8F39923C9F3B6F39F57550B87FF0E94AA
:102CE000B4160024A0E640EA9001805856959795C6
:102CF00028F4805C660F771F881F20F0261737079F
:102D0000480730F4621B730B840B202931294A2BAE
:102D1000A69517940794202531254A2758F7660F62
:102D2000771F881F20F026173707480730F4620BFB
:102D3000730B840B200D311D411DA09581F7B90146
:102D4000842F9158880F9695879508959F3F31F06D
:102D5000915020F4879577956795B795880F911DC9
:102D60009695879597F9089591505040660F771F73
:102D7000881FD2F7089597FB072E16F4009407D00A
:102D800077FD09D00E94E41607FC05D03EF490952B
:102D900081959F4F0895709561957F4F0895EE0F2F
:102DA000FF1F0590F491E02D09940E9437153323FD
:102DB00012F48A1B9B0B0C94DF160E943715B7FF89
:102DC0000895821B930B0895AA1BBB1B51E107C0FA
:102DD000AA1FBB1FA617B70710F0A61BB70B881FAB
:102DE000991F5A95A9F780959095BC01CD0108953A
:102DF0000F931F93CF93DF938230910510F482E0FD
:102E000090E0E0910C03F0910D0320E030E0A0E0B1
:102E1000B0E0309719F14081518102811381481748
:102E20005907C8F08417950769F4109731F0129686
:102E30000C93129713961C9327C000930C031093C6
:102E40000D0322C02115310519F04217530718F45C
:102E50009A01BD01EF01DF01F801DBCF211531053A
:102E6000F9F0281B390B2430310580F48A819B81CD
:102E70006115710521F0FB019383828304C0909357
:102E80000D0380930C03FE01329644C0FE01E20F55
:102E9000F31F8193919322503109398328833AC0DB
:102EA00020910A0330910B03232B41F4209102015E
:102EB0003091030130930B0320930A03209100010A
:102EC000309101012115310541F42DB73EB74091F4
:102ED000040150910501241B350BE0910A03F09188
:102EE0000B03E217F307A0F42E1B3F0B281739073B
:102EF00078F0AC014E5F5F4F2417350748F04E0F56
:102F00005F1F50930B0340930A038193919302C078
:102F1000E0E0F0E0CF01DF91CF911F910F91089594
:102F2000CF93DF93009709F481C0FC01329713829D
:102F30001282A0910C03B0910D03109781F42081AF
:102F40003181820F931F20910A0330910B032817C0
:102F5000390751F5F0930B03E0930A0367C0ED01C5
:102F600020E030E0CE17DF0740F44A815B819E010C
:102F700041155105F1F0EA01F5CFD383C2834081B9
:102F80005181840F951FC817D90759F488819981F9
:102F9000840F951F0296918380838A819B819383FE
:102FA00082832115310529F4F0930D03E0930C037E
:102FB0003DC0E901FB83EA8349915991C40FD51FB4
:102FC000EC17FD0761F480819181840F951F0296B3
:102FD000E90199838883828193819B838A83E0E0DE
:102FE000F0E012968D919C911397009719F0FD01D6
:102FF000DC01F7CF8D919C9111979D012E5F3F4F82
:10300000820F931F20910A0330910B032817390771
:1030100069F4309729F410920D0310920C0302C04A
:1030200013821282B0930B03A0930A03DF91CF9116
:103030000895A0E0B0E0EFE1F8E10C940415EC0194
:10304000009721F4CB010E94F816B4C0FC01E60FF2
:10305000F71F9C0122503109E217F30708F4A8C0BA
:10306000D9010D911C91119706171707B0F0053083
:10307000110508F49BC0C80104978617970708F448
:1030800095C002501109061B170B019311936D9304
:103090007C93CF010E94901789C05B01A01AB10AEE
:1030A0004C01800E911EA0910C03B0910D03612C78
:1030B000712CE12CF12C109709F446C08D919C9154
:1030C0001197A815B905B1F56C0142E0C40ED11CE9
:1030D000CA14DB0478F14C018A189B08640142E0B1
:1030E000C40ED11C1296BC9012971396AC91B5E009
:1030F000CB16D10440F0B282A38391828082D901A1
:103100006D937C9309C00E5F1F4F800F911FF901D3
:1031100091838083EB2DFA2FE114F10431F0D70174
:103120001396FC93EE93129741C0F0930D03E09336
:103130000C033CC06816790608F43C017D01129628
:103140000D90BC91A02DB7CF80910A0390910B03F5
:1031500088169906E1F466167706C8F48091000196
:1031600090910101009741F48DB79EB74091040101
:1031700050910501841B950BE817F907C8F4F093EB
:103180000B03E0930A03F901718360830FC0CB0145
:103190000E94F8167C01009759F0A801BE010E9418
:1031A000E418CE010E949017C70104C0CE0102C0EE
:1031B00080E090E0CDB7DEB7EEE00C94201581E022
:1031C00090E0F8940C94C91BFB01DC0102C0019053
:1031D0000D9241505040D8F70895FB01DC018D91CC
:1031E00081341CF08B350CF4805E619161341CF0ED
:1031F0006B350CF4605E861B611189F3990B0895A1
:10320000FB01DC0101900D920020E1F70895FB0124
:10321000DC014150504048F001900D920020C9F768
:1032200001C01D9241505040E0F70895AEE0B0E07B
:10323000ECE1F9E10C940E150D891E8986E08C8372
:103240001A8309838FEF9FE79E838D83AE01475ECC
:103250005F4F6F89788DCE0101960E943819EF81FA
:10326000F885E00FF11F10822E96E4E00C942A15E9
:10327000ABE0B0E0EEE3F9E10C9400156C017B01EA
:103280008A01FC0117821682838181FFCCC1CE01A5
:1032900001963C01F6019381F70193FD859193FF1F
:1032A00081917F01882309F4BAC1853239F493FDF5
:1032B000859193FF81917F01853229F4B60190E0D9
:1032C0000E942F1BE7CF912C212C312CFFE1F3150D
:1032D000D8F08B3279F038F4803279F08332A1F46F
:1032E000232D20611DC08D3261F0803369F4232DC0
:1032F000216016C0832D8260382EE32DE4603E2EBF
:103300002AC0F32DF8601DC037FC2DC020ED280F1A
:103310002A3040F08E32B9F436FC81C1232D20646E
:10332000322E19C036FE06C08AE0989E200D112468
:10333000922E11C0EAE02E9E200D1124222EF32D94
:10334000F0623F2E08C08C3621F4832D8068382E21
:1033500002C0883641F4F70193FD859193FF819176
:103360007F018111B3CF982F9F7D9554933028F41E
:103370000C5F1F4F9FE399830DC0833631F0833775
:1033800071F0833509F059C021C0F801808189832B
:103390000E5F1F4F88248394912C530113C0280182
:1033A000F2E04F0E511CF801A080B18036FE03C040
:1033B000692D70E002C06FEF7FEFC5010E94241BF2
:1033C0004C018201F32DFF773F2E16C0280122E029
:1033D000420E511CF801A080B18036FE03C0692D59
:1033E00070E002C06FEF7FEFC5010E94191B4C0116
:1033F000F32DF0683F2E820133FC1BC0822D90E03C
:1034000088169906B0F4B60180E290E00E942F1B66
:103410002A94F4CFF50137FC859137FE81915F0145
:10342000B60190E00E942F1B21102A9421E0821AFD
:1034300091088114910471F7E8C0843611F089363F
:1034400041F5F80137FE07C0608171818281938167
:103450000C5F1F4F08C060817181072E000C880B24
:10346000990B0E5F1F4FF32DFF763F2E97FF09C07C
:1034700090958095709561957F4F8F4F9F4FF06825
:103480003F2E2AE030E0A3010E946B1B882E861895
:1034900045C0853731F4232D2F7EB22E2AE030E04F
:1034A00025C0932D997FB92E8F36C1F018F4883539
:1034B00079F0B5C0803719F0883721F0B0C0E92F16
:1034C000E061BE2EB4FE0DC0FB2DF460BF2E09C01E
:1034D00034FE0AC0292F2660B22E06C028E030E054
:1034E00005C020E130E002C020E132E0F801B7FE83
:1034F00007C060817181828193810C5F1F4F06C07C
:103500006081718180E090E00E5F1F4FA3010E94F7
:103510006B1B882E8618FB2DFF773F2E36FE0DC0C5
:10352000232D2E7FA22E891458F434FE0BC032FCBA
:1035300009C0832D8E7EA82E05C0B82CA32C03C0F5
:10354000B82C01C0B92CA4FE0FC0FE01E80DF11D7E
:103550008081803321F49A2D997EA92E09C0A2FE84
:1035600006C0B394B39404C08A2D867809F0B3944E
:10357000A3FC11C0A0FE06C0B21488F4280C922C43
:103580009B180EC0B21460F4B60180E290E00E9475
:103590002F1BB394F7CFB21418F42B1802C0982C39
:1035A000212CA4FE10C0B60180E390E00E942F1BE6
:1035B000A2FE17C0A1FC03C088E790E002C088E526
:1035C00090E0B6010CC08A2D867859F0A1FE02C0A9
:1035D0008BE201C080E2A7FC8DE2B60190E00E9480
:1035E0002F1B891438F4B60180E390E00E942F1B52
:1035F0009A94F7CF8A94F301E80DF11D8081B6010A
:1036000090E00E942F1B8110F5CF222009F442CEBA
:10361000B60180E290E00E942F1B2A94F6CFF601BB
:103620008681978102C08FEF9FEF2B96E2E10C9489
:103630001C15FC010590615070400110D8F7809571
:1036400090958E0F9F1F0895FC016150704001906E
:103650000110D8F7809590958E0F9F1F08950F93B6
:103660001F93CF93DF93FB01238121FD03C08FEFD5
:103670009FEF2CC022FF16C04681578124813581DF
:103680004217530744F4A081B1819D012F5F3F4F42
:10369000318320838C93268137812F5F3F4F37837F
:1036A000268314C08B01EC01FB010084F185E02D21
:1036B0000995892BE1F6D80116968D919C91179763
:1036C000019617969C938E931697CE01DF91CF911A
:1036D0001F910F910895FA01AA27283051F1203146
:1036E00081F1E8946F936E7F6E5F7F4F8F4F9F4F96
:1036F000AF4FB1E03ED0B4E03CD0670F781F891FD8
:103700009A1FA11D680F791F8A1F911DA11D6A0FA5
:10371000711D811D911DA11D20D009F468943F9158
:103720002AE0269F11243019305D3193DEF6CF0157
:103730000895462F4770405D4193B3E00FD0C9F71D
:10374000F6CF462F4F70405D4A3318F0495D31FD8A
:103750004052419302D0A9F7EACFB4E0A6959795DD
:10376000879577956795BA95C9F7009761057105B3
:1037700008959B01AC010A2E0694579547953795FD
:103780002795BA95C9F7620F731F841F951FA01D57
:10379000089510E0C2E7D0E004C0FE010E94CF16F9
:0C37A0002196C337D107C9F7F894FFCF7A
:1037AC0000000E0380000001020307000102030465
:1037BC00070000000034019D00CB008101FC00DA01
:1037CC0000EE00000000000406D0055405DD03C720
:1037DC00038F036E033A031903C3027F0200000038
:1037EC00003F0205054502420247420030302300EB
:1037FC0046510046470047430030322300474400FF
:10380C004748004646230047490030312300474EC5
:10381C0000253034580047500047540030303230C7
:10382C002300475600534600534800534E00535054
:04383C000031300027
:00000001FF
