:100000000C946E000C9496000C9496000C94960040
:100010000C9496000C9496000C9496000C94960008
:100020000C9496000C9496000C9496000C949600F8
:100030000C9496000C9496000C9496000C949600E8
:100040000C945A060C9496000C940B040C94E50343
:100050000C9496000C9496000C9496000C949600C8
:100060000C9496000C949600000206020C021202F8
:1000700018021E02240255035C0363036A03710322
:100080008803780388037F03000000002400270012
:100090002A0000000000250028002B0004040404AE
:1000A0000404040402020202020203030303030322
:1000B00001020408102040800102040810200102FF
:1000C00004081020000000080002010000030407DB
:1000D0000000000000000000F5108A0C11241FBE73
:1000E000CFEFD8E0DEBFCDBF11E0A0E0B1E0ECEF94
:1000F000F7E302C005900D92AE39B107D9F722E0BF
:10010000AEE9B1E001C01D92AE3FB207E1F710E0E9
:10011000CDE6D0E004C02197FE010E94FC16CC364B
:10012000D107C9F70E94900C0C94F11B0C940000AD
:10013000CF92DF92EF92FF920F931F93CF93DF93B3
:100140006C017A018B01C0E0D0E0CE15DF0581F0B3
:10015000D8016D918D01D601ED91FC910190F08156
:10016000E02DC6010995892B11F02196EECF7E0175
:10017000C701DF91CF911F910F91FF90EF90DF901A
:10018000CF900895089580E090E00895FC01538D8C
:10019000448D252F30E0842F90E0821B930B541761
:1001A00010F0CF96089501970895FC01918D828DEE
:1001B000981761F0828DDF01A80FB11D5D968C91BB
:1001C000928D9F5F9F73928F90E008958FEF9FEFC6
:1001D0000895FC01918D828D981731F0828DE80F82
:1001E000F11D858D90E008958FEF9FEF0895FC013C
:1001F000918D228D892F90E0805C9F4F821B910909
:100200008F739927089583ED91E00E94F70021E014
:10021000892B09F420E0822F0895FC01848DDF01F1
:10022000A80FB11DA35ABF4F2C91848D90E0019669
:100230008F739927848FA689B7892C93A089B18958
:100240008C91837080648C93938D848D981306C0F9
:100250000288F389E02D80818F7D80830895EF925D
:10026000FF920F931F93CF93DF93EC0181E0888F70
:100270009B8D8C8D981305C0E889F989808185FD57
:1002800026C0F62E0B8D10E00F5F1F4F0F73112746
:10029000E02E8C8DE8120CC00FB607FCFACFE8896F
:1002A000F989808185FFF5CFCE010E940D01F1CF44
:1002B0008B8DFE01E80FF11DE35AFF4FF0829FB7CF
:1002C000F8940B8FEA89FB89808180620AC09FB70E
:1002D000F894EE89FF896083E889F98980818370C9
:1002E000806480839FBF81E090E0DF91CF911F9178
:1002F0000F91FF90EF900895CF93DF93EC01888DDD
:100300008823C9F0EA89FB89808185FD05C0A88919
:10031000B9898C9186FD0FC00FB607FCF5CF80819F
:1003200085FFF2CFA889B9898C9185FFEDCFCE01E9
:100330000E940D01E7CFDF91CF91089580E090E01A
:10034000892B29F00E94030181110C94000008956B
:1003500080E290E0089586E090E008958BE091E0DF
:10036000089580E890E00895EF92FF920F931F9315
:10037000CF93DF938C017B01C1E0D0E0D801ED91F8
:10038000FC910190F081E02DC80109958C179D0723
:1003900054F0CE15DF0521F4F801D18FC08F03C0D2
:1003A000CC0FDD1FEBCFD80158968D919C915997BA
:1003B000DF91CF911F910F91FF90EF90089580E111
:1003C00090E0089585E090E0089586E091E008953A
:1003D000CF93DF934770552766277727FA01319728
:1003E000EC01A881B981E730F10520F4EC5CFF4F06
:1003F0000C94FC161496ED91FC91159761E029C0C0
:100400001496ED91FC91159765E023C01496ED913B
:10041000FC91159764E01DC01496ED91FC91159721
:1004200066E017C01496ED91FC91159762E011C03B
:100430001496ED91FC9115976AE00BC01496ED911E
:10044000FC91159768E005C01496ED91FC91159705
:1004500069E0DF91CF910994CF93DF93EC01CB0159
:10046000BA0126E030E040E050E00E94FB14623028
:1004700071058105910559F18CF4611571058105AE
:100480009105F1F06130710581059105C1F5E881B3
:10049000F9810480F581E02D65E02DC0643071059F
:1004A0008105910511F1D4F0653071058105910543
:1004B00031F5E881F9810480F581E02D66E01BC00B
:1004C000E881F9810480F581E02D64E014C0E881C1
:1004D000F9810480F581E02D61E00DC0E881F981AA
:1004E0000480F581E02D63E006C0E881F981048095
:1004F000F581E02D62E0CE01DF91CF910994DF918B
:10050000CF9108954370552766277727DC01ED9139
:10051000FC910480F581E02D4230510561057105A3
:1005200071F0433051056105710559F041305105B5
:100530006105710511F065E005C066E003C06AE081
:1005400001C069E00994CF93DF93EC01CB01BA01BC
:1005500023E030E040E050E00E94FB146130710580
:100560008105910581F0623071058105910591F059
:10057000672B682B692BC1F4E881F9810480F58130
:10058000E02D64E00DC0E881F9810480F581E02D63
:1005900061E006C0E881F9810480F581E02D62E028
:1005A000CE01DF91CF910994DF91CF9108954370EF
:1005B000552766277727DC01ED91FC910480F581B2
:1005C000E02D423051056105710571F04330510550
:1005D0006105710559F0413051056105710511F052
:1005E00062E005C063E003C061E001C060E009941F
:1005F000CF93DF93EC01E881F9810480F581E02D50
:100600008A81811102C060E001C062E0CE010995DB
:10061000E881F9810480F581E02D8A81811102C091
:1006200061E001C063E0CE0109958CA59DA58230F3
:10063000910538F0880F991F880F991F059701972A
:10064000F1F7E881F9810480F581E02D8A8181113B
:1006500002C060E001C062E0CE01DF91CF91099459
:10066000CF93DF93EC0120E030E0A9016C897D8914
:100670008E899F890E94881618161CF4E8A9F9A98A
:1006800002C0EAA9FBA9DF91CF9109940F931F93B0
:10069000DC011396EC910E2F10E009301105C0F526
:1006A000F801E55CFF4F0C94FC16DC01ED91FC9128
:1006B0000084F185E02D29C0DC01ED91FC910284DC
:1006C000F385E02D22C0DC01ED91FC910484F585D9
:1006D000E02D1BC0DC01ED91FC910684F785E02D37
:1006E00014C0DC01ED91FC910088F189E02D0DC072
:1006F000DC01ED91FC910288F389E02D06C0DC015C
:10070000ED91FC910488F589E02D1F910F910994DA
:100710001F910F9108958091A701811103C060E19D
:1007200070E002C060E270E0719561957109072E7A
:10073000000C880B990B0C94AC068091A7018111D9
:1007400003C060E170E002C060E270E0072E000CC0
:10075000880B990B0C94AC060F931F93CF93DF93E8
:10076000EC0188819981009729F02A813B81261725
:10077000370788F48B016F5F7F4F0E944618009700
:1007800061F0998388831B830A832C813D81232B0D
:1007900011F4FC01108281E001C080E0DF91CF9173
:1007A0001F910F910895CF93DF93EC018881998178
:1007B000009711F00E94BD17198218821D821C82B9
:1007C0001B821A82DF91CF9108951F920F920FB66C
:1007D0000F9211242F933F934F935F936F937F93C7
:1007E0008F939F93AF93BF93EF93FF9383ED91E02C
:1007F0000E940D01FF91EF91BF91AF919F918F9159
:100800007F916F915F914F913F912F910F900FBE0C
:100810000F901F9018951F920F920FB60F921124F0
:100820002F938F939F93EF93FF93E091E301F091C8
:10083000E4018081E091E901F091EA0182FD12C0BA
:1008400090818091EC018F5F8F732091ED01821771
:1008500051F0E091EC01F0E0ED52FE4F958F809366
:10086000EC0101C08081FF91EF919F918F912F91B9
:100870000F900FBE0F901F90189590E0FC01EC5365
:10088000FF4F2491FC01E055FF4F3491FC01E456E9
:10089000FF4FE491EE2309F43CC0222339F12330C9
:1008A00091F038F42130A9F0223001F584B58F7D24
:1008B00012C0273091F02830A1F02430B9F4809193
:1008C00080008F7D03C0809180008F7780938000AF
:1008D0000DC084B58F7784BD09C08091B0008F773B
:1008E00003C08091B0008F7D8093B000F0E0EE0FE8
:1008F000FF1FEE56FF4FA591B4919FB7F894611179
:1009000004C08C913095382302C0EC913E2B3C936F
:100910009FBF0895FC01248935892F3FFFEF3F07D2
:1009200051F061E0FC0186899789019709F460E044
:10093000822F0C943D0408950F931F93CF93DF9360
:10094000EC010E94B40188AD99AD0196E9F18AAD40
:100950009BAD0196C9F18CAD9DAD0196A9F1E881E1
:10096000F9810084F185E02DCE0109958C01E881A3
:10097000F9810284F385E02DCE01099520E030E075
:100980008217930709F1488D598D022E02C05595A3
:1009900047950A94E2F740FF14C0F801E20FF31FF5
:1009A0001081612F64708CAD0E943D04612F6270D4
:1009B0008AAD0E943D04612F617088AD0E943D04A4
:1009C00003C02F5F3F4FDCCF888D998DDF91CF9192
:1009D0001F910F910895CF92DF92EF92FF920F93A4
:1009E0001F93CF93DF93EC019B81943041F09830BB
:1009F00031F0933031F0963021F012E003C014E072
:100A000001C013E02496E12CF12CC62ED12C01E07C
:100A1000C6010E2C02C0959587950A94E2F76C8169
:100A200080FD602789910E943D048FEFE81AF80A43
:100A3000E11670F3DF91CF911F910F91FF90EF902E
:100A4000DF90CF900895CF93DF9390E0FC01E055C5
:100A5000FF4F2491FC01E456FF4F8491882361F1FC
:100A600090E0880F991FFC01E857FF4FC591D49182
:100A7000FC01EE56FF4FA591B491611109C09FB7DB
:100A8000F8948881209582238883EC912E230BC0D3
:100A9000623061F49FB7F8948881322F30958323B8
:100AA0008883EC912E2B2C939FBF06C08FB7F894B0
:100AB000E8812E2B28838FBFDF91CF910895CF93AC
:100AC000DF93FC012381222359F1EC0161E0848151
:100AD0000E94230561E08D810E9423058B81843073
:100AE00011F0883039F461E08E810E94230561E0C5
:100AF0008F8106C0833011F0863021F461E08E8151
:100B00000E9423058FA58F3F59F061E00E942305C5
:100B10006EA581E068278FA5DF91CF910C943D04ED
:100B2000DF91CF910895CF93DF93FC01238122239E
:100B3000A9F0EC010190F081E02D0480F581E02D19
:100B400060E009958FA58F3F49F061E00E94230581
:100B50006EA58FA5DF91CF910C943D04DF91CF91CD
:100B600008951F93CF93DF93182FEB0161E00E944C
:100B70002305209711F460E004C0CF3FD10539F47C
:100B800061E0812FDF91CF911F910C943D04E12F03
:100B9000F0E0EC53FF4FE491E330F9F048F4E1303A
:100BA000B9F0E230A1F584B5806284BDC8BD34C01F
:100BB000E730E9F0E83019F1E43049F58091800040
:100BC000806280938000D0938B00C0938A0024C001
:100BD00084B5806884BDC7BD1FC0809180008068D7
:100BE00080938000D0938900C093880015C08091C5
:100BF000B00080688093B000C093B3000DC08091B6
:100C0000B00080628093B000C093B40005C0C038CB
:100C1000D1050CF0B5CFAFCFDF91CF911F910895E3
:100C20003FB7F89480919F019091A001A091A101FC
:100C3000B091A20126B5A89B05C02F3F19F00196DF
:100C4000A11DB11D3FBFBA2FA92F982F8827820F52
:100C5000911DA11DB11DBC01CD0142E0660F771FA2
:100C6000881F991F4A95D1F70895CF92DF92EF928E
:100C7000FF92FC01248935892F3FFFEF3F0729F0C0
:100C8000FC016689822F0E943D040E9410066B01C0
:100C90007C010E941006DC01CB018C199D09AE0974
:100CA000BF090297A105B105A0F3FF90EF90DF9077
:100CB000CF9008951F920F920FB60F9211242F9389
:100CC0003F938F939F93AF93BF938091A301909194
:100CD000A401A091A501B091A60130919E0123E04D
:100CE000230F2D3720F40196A11DB11D05C026E864
:100CF000230F0296A11DB11D20939E018093A30195
:100D00009093A401A093A501B093A60180919F01A7
:100D10009091A001A091A101B091A2010196A11D05
:100D2000B11D80939F019093A001A093A101B09366
:100D3000A201BF91AF919F918F913F912F910F9001
:100D40000FBE0F901F90189561E08DE00E943D044A
:100D500081E08093A80108952F923F924F925F9275
:100D60006F927F928F929F92AF92BF92CF92DF92BB
:100D7000EF92FF920F931F93CF93DF93CDB7DEB720
:100D80002C970FB6F894DEBF0FBECDBF8B019C0130
:100D90000095109520953095002737FD0395112774
:100DA000222733271093EB020093EA021092BA0233
:100DB0001092BB021092BC021092BD026B017C012A
:100DC00097FF08C0F094E094D094C094C11CD11C4B
:100DD000E11CF11CC092DA02D092DB02E092DC024C
:100DE000F092DD021092D6021092D7021092D80231
:100DF0001092D9021092B6021092B7021092B80265
:100E00001092B9028091D0029091D1022091CE022D
:100E10003091CF020091C2021091C3024091CC02E6
:100E20005091CD025A834983019709F09CC0209FBD
:100E3000C001219F900D309F900D11246CE370E054
:100E40000E94E8160091D2021091D3029B01DB01AF
:100E50000E9402179B01AC01A981BA810E9425154D
:100E60009801220F331F032E000C440B550B0E94D8
:100E7000FB1449015A012093DE023093DF024093B4
:100E8000E0025093E1022090D4023090D50221017B
:100E9000032C000C66087708D8010E942515A301D1
:100EA00092010E94FB142093E2023093E3024093EC
:100EB000E4025093E502D501C401820F931FA41FE1
:100EC000B51FC816D906EA06FB061CF5A701960150
:100ED000C301B2010E94C9149801220D331D032ED3
:100EE000000C440B550B0E94FB142093DE02309340
:100EF000DF024093E0025093E102C21AD30AE40AEF
:100F0000F50AC092E202D092E302E092E402F0928B
:100F1000E50289819A81809FB001819F700D909F29
:100F2000700D1124072E000C880B990B0E94AC1336
:100F30009B01AC0160E070E080E090E40E94E0156D
:100F40000E94931620E03AE045E259E40E940B1417
:100F50000E9452166093E6027093E7028093E802C3
:100F60009093E90234C0032E000C440B550B60E053
:100F700077E883E993E00E94FB14CA01B901980164
:100F8000110F440B550B0E94FB14CA01B901A98132
:100F9000BA819D01BB0F440B550B0E94FB1420939B
:100FA000E6023093E7024093E8025093E902109280
:100FB000DE021092DF021092E0021092E102109223
:100FC000E2021092E3021092E4021092E502809194
:100FD000DA029091DB02A091DC02B091DD021816DA
:100FE00019061A061B060CF049C18090BE029090AB
:100FF000BF02A090C002B090C10281149104A1046C
:10100000B10439F56091EA028091C4020E943D0466
:1010100061E08091C6020E943D040E94100669872B
:101020007A878B879C87C090E602D090E702E09099
:10103000E802F090E9028091DA029091DB02A0913F
:10104000DC02B091DD02181619061A061B0604F11F
:10105000D0C0C090BA02D090BB02E090BC02F09029
:10106000BD02C114D104E104F10421F40E94100670
:101070006B017C010E941006DC01CB018C199D09DB
:10108000AE09BF0988159905AA05BB0598F3BACF23
:101090009C01AD0121503109410951092093DA0227
:1010A0003093DB024093DC025093DD028090D60245
:1010B0009090D702A090D802B090D902BFEF8B1ABF
:1010C0009B0AAB0ABB0A8092D6029092D702A092EA
:1010D000D802B092D9028091D0029091D1020197AA
:1010E00009F087C0211531054105510509F481C07A
:1010F0008091E2029091E302A091E402B091E502B6
:1011000082179307A407B5070CF0F2C04090DE02E7
:101110005090DF026090E0027090E10248145904A0
:101120006A047B040CF465C08091B6029091B7020A
:10113000A091B802B091B90289839A83AB83BC8332
:10114000D501C40142E0880F991FAA1FBB1F4A9511
:10115000D1F79C01AD012F5F3F4F4F4F5F4F2D8364
:101160003E834F835887D701C601880F991FAA1F56
:10117000BB1F29813A814B815C81280F391F4A1F8F
:101180005B1FCA01B9012D813E814F8158850E94A4
:10119000FB14D701C601821B930BA40BB50B8093E4
:1011A000E6029093E702A093E802B093E902841468
:1011B0009504A604B7040CF097C0880F991FAA1FC6
:1011C000BB1F29813A814B815C81280F391F4A1F3F
:1011D0005B1FCA01B9012D813E814F8158850E9454
:1011E000FB146093B6027093B7028093B802909399
:1011F000B9020E941006AB01A985BA854A1B5B0B98
:101200005A834983452B79F40E9410064B015C01F7
:101210000E94100686169706A806B906C9F3E1E0F3
:10122000F0E0FA83E98360E08091C6020E943D0409
:101230000E9410066093BA027093BB028093BC02B6
:101240009093BD0229813A81C901A0E0B0E08C15DC
:101250009D05AE05BF0528F4C81AD90AEA0AFB0A9B
:1012600004C0C12CD12C7601C394C092BE02D0928E
:10127000BF02E092C002F092C10210C01092BA0206
:101280001092BB021092BC021092BD021092BE02DC
:101290001092BF021092C0021092C1028091BE0251
:1012A0009091BF02A091C002B091C102892B8A2BFC
:1012B0008B2B09F08CCE2C960FB6F894DEBF0FBEA8
:1012C000CDBFDF91CF911F910F91FF90EF90DF90F5
:1012D000CF90BF90AF909F908F907F906F905F90D6
:1012E0004F903F902F90089560E070E0CB0179CF50
:1012F0008090B6029090B702A090B802B090B90268
:10130000ACEFBFEF0E9428152B013C013FEF431AC1
:10131000530A630A730AD701C601880F991FAA1FCF
:10132000BB1FBC01CD01680D791D8A1D9B1DA3014A
:1013300092010E94FB14D701C601821B930BA40BE0
:10134000B50B8093E6029093E702A093E802B09376
:10135000E902880F991FAA1FBB1FBC01CD01680DB0
:10136000791D8A1D9B1DA301920139CF4F925F9277
:101370006F927F928F929F92AF92BF92CF92DF92A5
:10138000EF92FF920F931F93CF93DF93C090800251
:10139000D0908102E0908202F090830280917C02E2
:1013A00090917D02A0917E02B0917F02C81AD90A65
:1013B000EA0AFB0A6091840270918502809186029C
:1013C000909187029B01AC010E940B144B015C01C0
:1013D00060918C0270918D0280918E0290918F02AB
:1013E0009B01AC010E9474159B01AC01C501B401C5
:1013F0000E94E0150E945216C114D104E104F104C8
:10140000F9F462307105810591050CF092C01092DB
:1014100094021092950210929602109297021092E6
:101420008402109285021092860210928702109216
:10143000A4021092A5021092A6021092A7022AC13D
:101440000091A4021091A5022091A6023091A7025A
:101450001C141D041E041F040CF5101611061206A0
:10146000130654F46C157D058E059F0564F52091D7
:10147000720221115EC027C0011511052105310539
:1014800009F457C06C157D058E059F050CF051C001
:1014900080917202882309F44CC03CC010161106DA
:1014A0001206130614F50027112798010C191D09BF
:1014B0002E093F09601771078207930724F42091D2
:1014C00072022223B1F19B01AC0188279927DC012C
:1014D000821B930BA40BB50B8093A4029093A502DF
:1014E000A093A602B093A70224C0011511052105FF
:1014F0003105F9F08824992454018C189D08AE0810
:10150000BF08681579058A059B059CF480917202D5
:1015100081110FC030952095109501951F4F2F4FC9
:101520003F4F0093A4021093A5022093A60230938C
:10153000A7028090A4029090A502A090A602B0906D
:10154000A70281149104A104B104D1F48091A802EE
:101550009091A902A091AA02B091AB028093AC0233
:101560009093AD02A093AE02B093AF0281E01C1441
:101570001D041E041F040CF080E0809372024AC018
:10158000C090AC02D090AD02E090AE02F090AF02FD
:10159000A7019601C701B6010E9474152B013C01F9
:1015A000C501B4010E94AC1320E030E040E850E4F3
:1015B0000E940B1420E030E040E85FE30E947415C5
:1015C0009B01AC01C301B2010E94E0159B01AC017B
:1015D000C701B6010E947315D62FC72F6C01E0908A
:1015E000B002F090B1020091B2021091B3029701E3
:1015F000A8010E94881618161CF4ED2EFC2E8601F8
:10160000C701D8018093AC029093AD02A093AE02C3
:10161000B093AF023FEF831A930AA30AB30A8092F2
:10162000A4029092A502A092A602B092A702C09036
:10163000AC02D090AD02E090AE02F090AF02C701D4
:10164000B6010E945916609394027093950280939C
:10165000960290939702A701960160E074E284E7F6
:1016600099E40E94E0156093840270938502809350
:101670008602909387022091720221110BC0DC0137
:10168000CB01B0588093840290938502A093860288
:10169000B0938702DF91CF911F910F91FF90EF9050
:1016A000DF90CF90BF90AF909F908F907F906F9082
:1016B0005F904F9008954F925F926F927F928F92BA
:1016C0009F92AF92BF92CF92DF92EF92FF926B0107
:1016D0007C0120E030E0A9010E94A51387FF04C02F
:1016E000F7FAF094F7F8F09480908C0290908D02C5
:1016F000A0908E02B0908F02A7019601C501B4019F
:101700000E94A513882309F456C06091A402709129
:10171000A5028091A6029091A7020E94AC132B0112
:101720003C01A7019601C501B4010E94E0159B018F
:10173000AC01C301B2010E940B140E9452166093C7
:10174000A4027093A5028093A6029093A702A7011A
:10175000960160E070E080E090E40E94E0150E9455
:10176000931626E53EE04DE25FE30E940B1420E075
:1017700034E244E759E40E940B146093A80270938A
:10178000A9028093AA029093AB02C0928C02D092DD
:101790008D02E0928E02F0928F02FF90EF90DF9028
:1017A000CF90BF90AF909F908F907F906F905F9001
:1017B0004F900C94B609FF90EF90DF90CF90BF90C0
:1017C000AF909F908F907F906F905F904F90089513
:1017D000009769F0FC0101900020E9F73197AF0113
:1017E000481B590BBC0183ED91E00C94980080E0FC
:1017F00090E008950C94E80BCF92DF92EF92FF9265
:101800008091940290919502A0919602B0919702D6
:10181000892B8A2B8B2B09F450C00E9410066B0178
:101820007C018091980290919902A0919A02B091C6
:101830009B02B701A601481B590B6A0B7B0B8091D9
:10184000940290919502A0919602B0919702481748
:1018500059076A077B0788F12091720280917C0208
:1018600090917D02A0917E02B0917F02222321F00F
:101870000196A11DB11D03C00197A109B109809373
:101880007C0290937D02A0937E02B0937F024091F0
:101890007C0250917D0260917E0270917F0280E710
:1018A00092E00E944603C0929802D0929902E09280
:1018B0009A02F0929B020E94B60920E030E0A90152
:1018C00060918402709185028091860290918702D6
:1018D0000E94A513811118C081E0C0908002D090B1
:1018E0008102E0908202F090830240917C0250914C
:1018F0007D0260917E0270917F02C416D506E606D5
:10190000F70619F480E001C081E0FF90EF90DF90CE
:10191000CF9008958091F2029091F3020C94BD173C
:10192000CF93DF93CDB7DEB7A3970FB6F894DEBFA2
:101930000FBECDBF789484B5826084BD84B58160CC
:1019400084BD85B5826085BD85B5816085BD80918A
:101950006E00816080936E00109281008091810002
:1019600082608093810080918100816080938100FA
:10197000809180008160809380008091B1008460BC
:101980008093B1008091B00081608093B00080911D
:101990007A00846080937A0080917A0082608093DC
:1019A0007A0080917A00816080937A0080917A0039
:1019B000806880937A001092C100E091E301F09179
:1019C000E40182E08083E091DF01F091E001108288
:1019D000E091E101F091E2018FEC80831092EB0144
:1019E000E091E701F091E80186E08083E091E50174
:1019F000F091E601808180618083E091E501F091C2
:101A0000E601808188608083E091E501F091E60144
:101A1000808180688083E091E501F091E60180811A
:101A20008F7D808361E08DE00E94230561E085E089
:101A30000E94230561E086E00E94230561E089E0C1
:101A40000E94230561E08AE00E94230561E0809105
:101A5000C4020E94230561E08091C4020E943D04FB
:101A600061E08091C6020E94230560E08091C60279
:101A70000E943D048091C8029091C9028F3F0FEFF0
:101A8000900739F061E00E94230584EB92E00E9408
:101A90008A0488E790E09093CF028093CE0260E1C1
:101AA00070E084EB92E00E949C0484EB92E00E9440
:101AB00035068091EC029091ED028F3F1FEF910768
:101AC000D9F02091EE023091EF022F3F3F4FA1F06D
:101AD0002091F0023091F1022F3F3F4F69F061E019
:101AE0000E94230561E08091EE020E94230561E0DF
:101AF0008091F0020E94230560E070E088EC92E49F
:101B00000E945B0B1092A8012FB7F8948091A3015B
:101B10009091A401A091A501B091A6012FBF80933F
:101B2000CF019093D001A093D101B093D20188E06E
:101B3000E3ECF1E0DF011D928A95E9F71F0188EEE1
:101B4000482E83E0582E612C712C8091A8018823A7
:101B500031F10E94FC0B4091800250918102609112
:101B600082027091830280917C0290917D02A0910B
:101B70007E02B0917F02481759076A077B0709F078
:101B80003FC08FB7F8944091A3015091A401609198
:101B9000A5017091A6018FBF1092A80131C02FB787
:101BA000F8948091A3019091A401A091A501B09116
:101BB000A6012FBF4091CF015091D0016091D1017A
:101BC0007091D2018C019D01041B150B260B370B64
:101BD000B901A8014C3251406105710588F080932C
:101BE000CF019093D001A093D101B093D201609125
:101BF000CE0121E062276093CE018DE00E943D047A
:101C000080E480937C0080917A00806480937A00E5
:101C100080917A0086FDFCCF209178008091790038
:101C200030E0382B25313105B4F0C901330FAA0B50
:101C3000BB0B9C01AD012451310941095109AAEFA7
:101C4000B0E00E941A152BEE33E040E050E00E9415
:101C5000FB14B90102C060E070E08AE00E94B105A7
:101C600083ED91E00E94F7002091CD01892B19F0BE
:101C7000222309F493C2222309F48DC288E0ABEB3E
:101C8000B1E0E82F1D92EA95E9F7A3EBB1E01D92D0
:101C90008A95E9F7F10101900020E9F731978F016A
:101CA000035C114002301105A4F042E050E063EC07
:101CB00071E08BEB91E00E942F190230110549F081
:101CC000A8014250510965EC71E083EB91E00E945C
:101CD0002F1988E0F10111928A95E9F71092CD0150
:101CE0001092CC011092CB016DE471E08BEB91E08E
:101CF0000E941519892B21F480E591E00E94FA0BCE
:101D000064E571E08BEB91E00E941519892B79F461
:101D100060E070E085E00E94B10560E070E086E080
:101D20000E94B10560E070E089E00E94B10567E5BE
:101D300071E08BEB91E00E941519892B59F540E178
:101D400050E060E070E083EB91E00E9483126B0151
:101D50007C01613DF7E07F0781059105DCF0A3017F
:101D600092010E94FB14B90165507109623071053E
:101D700018F02930310571F488E19CEF829FB001A1
:101D8000839F700D929F700D11246C0D7D1D822F0D
:101D90000E94B1056AE571E08BEB91E00E94151994
:101DA000892B59F419A281E388A3CE0180960E9461
:101DB000E80B82E591E00E94FA0B6DE571E08BEB98
:101DC00091E00E941519892B51F060E671E08BEBD0
:101DD00091E00E941519892B09F47FC084C080917D
:101DE000A801811102C00E94A406809084029090F4
:101DF0008502A0908602B090870220E030E0A90121
:101E0000C501B4010E94A513882309F461C0A5018E
:101E10009401C501B4010E940B146B017C01609117
:101E20008C0270918D0280918E0290918F029B01A5
:101E3000AC010E9474159B01AC01C701B6010E9460
:101E4000E0150E9452166B017C010FEFC01AD00AF8
:101E5000E00AF00A20E030E0A901C501B4010E94C7
:101E600088160091800210918102209182023091A7
:101E7000830240917C0250917D0260917E027091BC
:101E80007F02181694F4C40ED51EE61EF71EC01667
:101E9000D106E206F306E1F0C0928002D092810200
:101EA000E0928202F092830211C04C195D096E0922
:101EB0007F09401751076207730751F04093800272
:101EC0005093810260938202709383020E94B6094C
:101ED0000E94FC0B8111FCCF78CF8091A801811169
:101EE00002C00E94A40663E671E08BEB91E00E94C1
:101EF0001519892B21F486E691E00E94FA0B6AE617
:101F000071E08BEB91E00E941519892B21F486E694
:101F100091E00E94FA0B6DE671E08BEB91E00E947C
:101F20001519892B59F48091A701882319F080E7AE
:101F300091E002C080E591E00E94FA0B64E771E055
:101F40008BEB91E00E941519892BE1F440918002FE
:101F500050918102609182027091830280917C0293
:101F600090917D02A0917E02B0917F02481759079F
:101F70006A077B0719F480E591E002C087E791E0EA
:101F80000E94FA0B6BE771E08BEB91E00E94151950
:101F9000892B19F5809183028F93809182028F9310
:101FA000809181028F93809180028F932EE731E0A0
:101FB0003F932F9389EA91E09F938F930E943E195C
:101FC00089EA91E00E94FA0B82E591E00E94FA0B07
:101FD0000FB6F894DEBF0FBECDBF63E871E08BEBA8
:101FE00091E00E941519892B19F580917F028F933A
:101FF00080917E028F9380917D028F9380917C02ED
:102000008F93AEE7B1E0BF93AF9389EA91E09F93DE
:102010008F930E943E1989EA91E00E94FA0B82E5B3
:1020200091E00E94FA0B0FB6F894DEBF0FBECDBF51
:1020300066E871E08BEB91E00E941519892B21F481
:1020400089E891E00E94FA0B6FE871E08BEB91E078
:102050000E941519892B09F050C01A8219821C821E
:102060001B821E821D820091F2021091F302011563
:102070001105B9F0E090F602F090F702B701CE0139
:1020800001960E94AC03811105C0CE0101960E9409
:10209000D30307C0FE82ED82B80189819A810E9434
:1020A000281983E28AA31BA20D811E810F5F1F4F97
:1020B000B801CE0101960E94AC03882371F02981FA
:1020C0003A818D819E81BE016E5D7F4F820F931F8D
:1020D0000E9428191E830D8304C0CE0101960E9420
:1020E000D3034D815E8169817A8183ED91E00E9405
:1020F000980089819A810E94BD1762E971E08BEB9B
:1021000091E00E941519892B41F460E170E084EBA5
:1021100092E00E949C041092A70165E971E08BEBAC
:1021200091E00E941519892B49F460E270E084EB7C
:1021300092E00E949C0411E01093A70168E971E00D
:102140008BEB91E00E941519892B29F58091A8014C
:10215000811102C00E94A40640E150E060E070E0FE
:1021600083EB91E00E948312009180021091810222
:10217000209182023091830206171707280739073A
:1021800051F0609380027093810280938202909359
:1021900083020E94B6090E949E01D7CC83ED91E094
:1021A0000E94D5008332E9F08A3309F459CD209199
:1021B000CB013091CC01A9014F5F5F4F5093CC010F
:1021C0004093CB01F901ED53FE4F80834830510518
:1021D0000CF446CD87E090E09093CC018093CB0146
:1021E0003FCD91E09093CD013BCD1092D60110925E
:1021F000D50188EE93E0A0E0B0E08093D701909302
:10220000D801A093D901B093DA0185E191E09093D0
:10221000D4018093D30185EC90E09093E00180930A
:10222000DF0184EC90E09093E2018093E10180EC87
:1022300090E09093E4018093E30181EC90E090932F
:10224000E6018093E50182EC90E09093E8018093B1
:10225000E70186EC90E09093EA018093E901109207
:10226000EC011092ED011092EE011092EF0110922C
:10227000F3021092F2021092F5021092F402109200
:10228000F7021092F60262E070E082EF92E00E94A4
:10229000AC03811105C082EF92E00E94D3030EC00F
:1022A00082E090E09093F7028093F6026BE971E090
:1022B0008091F2029091F3020E9428191092BA02C2
:1022C0001092BB021092BC021092BD021092BE028C
:1022D0001092BF021092C0021092C10288EC90E0EE
:1022E0009093C3028093C20282E090E09093C50273
:1022F0008093C40283E090E09093C7028093C6026B
:102300008FEF9FEF9093C9028093C80221E030E0E5
:102310003093CB022093CA023093CD022093CC029B
:102320001092CF021092CE021092D1021092D002DF
:1023300088EE93E09093D3028093D2029093D502DB
:102340008093D4021092DE021092DF021092E0021B
:102350001092E1021092DA021092DB021092DC027B
:102360001092DD021092EB021092EA021092E20249
:102370001092E3021092E4021092E5021092E6023B
:102380001092E7021092E8021092E9021092B6024F
:102390001092B7021092B8021092B9021092D602AF
:1023A0001092D7021092D8021092D90287E090E0E2
:1023B0009093ED028093EC0288E090E09093EF021E
:1023C0008093EE028BE090E09093F1028093F00214
:1023D00081E491E09093B5028093B40287E291E0AA
:1023E00090937102809370021092730210927C029B
:1023F00010927D0210927E0210927F021092800253
:102400001092810210928202109283021092840232
:1024100010928502109286021092870280E090E06E
:10242000A0E8BFE38093880290938902A0938A0278
:10243000B0938B0210928C0210928D0210928E0239
:1024400010928F028093900290939102A093920237
:10245000B0939302109294021092950210929602F9
:102460001092970230939D0220939C022FEF2093AD
:102470009F02109298021092990210929A02109262
:102480009B021092740210927502109276021092C2
:1024900077022DE933E03093A1022093A0022BE8CC
:1024A00033E03093A3022093A2021092A402109270
:1024B000A5021092A6021092A7021092A8021092F2
:1024C000A9021092AA021092AB021092AC021092D2
:1024D000AD021092AE021092AF028093B0029093C0
:1024E000B102A093B202B093B302109272021092A2
:1024F00078021092790210927A0210927B02BC014B
:10250000CD010C945B0BA0E0B0E0E9E8F2E10C94A3
:102510002E155C016B017A016115710519F0FB0143
:1025200091838083E114F10429F0C7010297839716
:1025300008F0E5C0E5012196F5011081812F90E0BA
:102540000E949913892B11F05E01F4CF1D3229F4FA
:102550002196F501118101E007C01B3221F4E5014C
:102560002296F501118100E0E114F10409F1F0E196
:10257000EF16F10429F43FC010E3E114F10421F156
:1025800028E0E216F10401F154F4E2E0EE16F10461
:1025900021F5812C912CA12CB0E4BB2E3EC0FAE099
:1025A000EF16F10439F020E1E216F104B1F430C085
:1025B000103319F1FAE0EF2EF12CACEC8A2E982CA6
:1025C000A82CACE0BA2E29C078E0E72EF12C812CA3
:1025D000912CA12CE0E1BE2E20C060E070E080E0F4
:1025E00090E897010F2C000C440B550B0E94D91456
:1025F00049015A0112C0103359F488818F7D883502
:1026000009F0BACF19812296026080E1E82EF12C00
:10261000812C912CA12C68E0B62E40E060E070E0A7
:10262000CB0127010F2C000C66087708FE0150ED46
:10263000352E310E29E0231570F42FEB210F2A31AE
:1026400018F439EC332E06C02FE9210F2A3118F582
:1026500029EA322E310E232D30E02E153F05DCF411
:1026600047FD16C086169706A806B90670F0A301A6
:1026700092010E94C914630D711D811D911D61306D
:102680007105810520E8920710F04FEF01C041E08D
:1026900021961081CBCF202F2170C114D10471F06D
:1026A000442329F02197F601D183C08307C001FF9D
:1026B00019C02297F601D183C08314C047FF12C00E
:1026C000222329F060E070E080E090E804C06FEF22
:1026D0007FEF8FEF9FE722E230E03093F902209303
:1026E000F80209C0222381F090958095709561953C
:1026F0007F4F8F4F9F4F462F372F282F12C040E01C
:1027000030E020E090E00DC097FFF5CF82E290E04E
:102710009093F9028093F8026FEF7FEF8FEF9FE7BE
:10272000EACF642F732F822FCDB7DEB7E1E10C948F
:102730004A1591110C94A213803219F089508550DA
:10274000C8F708959927882708950E94E71308F489
:1027500081E00895E89409C097FB3EF49095809538
:10276000709561957F4F8F4F9F4F9923A9F0F92F57
:1027700096E9BB279395F695879577956795B795D5
:10278000F111F8CFFAF4BB0F11F460FF1BC06F5FBB
:102790007F4F8F4F9F4F16C0882311F096E911C0CD
:1027A000772321F09EE8872F762F05C0662371F0EE
:1027B00096E8862F70E060E02AF09A95660F771F02
:1027C000881FDAF7880F9695879597F90895990FDE
:1027D0000008550FAA0BE0E8FEEF16161706E807EB
:1027E000F907C0F012161306E407F50798F0621B0C
:1027F000730B840B950B39F40A2661F0232B242BE1
:10280000252B21F408950A2609F4A140A6958FEFFF
:10281000811D811D08950E941E140C948F140E9426
:10282000811438F00E94881420F0952311F00C9444
:1028300078140C947E1411240C94C3140E94A014D8
:1028400070F3959FC1F3950F50E0551F629FF00103
:10285000729FBB27F00DB11D639FAA27F00DB11D1C
:10286000AA1F649F6627B00DA11D661F829F2227A5
:10287000B00DA11D621F739FB00DA11D621F839F2C
:10288000A00D611D221F749F3327A00D611D231F02
:10289000849F600D211D822F762F6A2F11249F5750
:1028A00050409AF0F1F088234AF0EE0FFF1FBB1F53
:1028B000661F771F881F91505040A9F79E3F510512
:1028C00080F00C9478140C94C3145F3FE4F3983EAA
:1028D000D4F3869577956795B795F795E7959F5FBC
:1028E000C1F7FE2B880F911D9695879597F908954E
:1028F00097F99F6780E870E060E008959FEF80ECB3
:10290000089500240A941616170618060906089555
:1029100000240A9412161306140605060895092EBB
:102920000394000C11F4882352F0BB0F40F4BF2B2A
:1029300011F460FF04C06F5F7F4F8F4F9F4F08956A
:1029400057FD9058440F551F59F05F3F71F0479560
:10295000880F97FB991F61F09F3F79F08795089545
:10296000121613061406551FF2CF4695F1DF08C064
:10297000161617061806991FF1CF86957105610581
:1029800008940895E894BB2766277727CB0197F929
:102990000895DB018F939F930E941A15BF91AF9109
:1029A000A29F800D911DA39F900DB29F900D1124A9
:1029B0000895A1E21A2EAA1BBB1BFD010DC0AA1F80
:1029C000BB1FEE1FFF1FA217B307E407F50720F098
:1029D000A21BB30BE40BF50B661F771F881F991F13
:1029E0001A9469F760957095809590959B01AC015C
:1029F000BD01CF010895052E97FB1EF400940E949F
:102A0000121557FD07D00E94D91407FC03D04EF4CD
:102A10000C94121550954095309521953F4F4F4F8E
:102A20005F4F089590958095709561957F4F8F4F7A
:102A30009F4F08950E946415A59F900DB49F900D1F
:102A4000A49F800D911D11240895B7FF0C941A15B1
:102A50000E941A15821B930B08952F923F924F925A
:102A60005F926F927F928F929F92AF92BF92CF921E
:102A7000DF92EF92FF920F931F93CF93DF93CDB727
:102A8000DEB7CA1BDB0B0FB6F894DEBF0FBECDBF9F
:102A900009942A88398848885F846E847D848C8470
:102AA0009B84AA84B984C884DF80EE80FD800C8179
:102AB0001B81AA81B981CE0FD11D0FB6F894DEBF5C
:102AC0000FBECDBFED010895A29FB001B39FC0011D
:102AD000A39F700D811D1124911DB29F700D811D4A
:102AE0001124911D08955058BB27AA270E948B15C9
:102AF0000C948F140E94811438F00E94881420F0E6
:102B000039F49F3F19F426F40C947E140EF4E095EA
:102B1000E7FB0C947814E92F0E94A01458F3BA171D
:102B2000620773078407950720F079F4A6F50C94E3
:102B3000C2140EF4E0950B2EBA2FA02D0B01B90193
:102B400090010C01CA01A0011124FF27591B99F023
:102B5000593F50F4503E68F11A16F040A22F232F2F
:102B6000342F4427585FF3CF469537952795A7957F
:102B7000F0405395C9F77EF41F16BA0B620B730B26
:102B8000840BBAF09150A1F0FF0FBB1F661F771F97
:102B9000881FC2F70EC0BA0F621F731F841F48F44C
:102BA000879577956795B795F7959E3F08F0B0CFD5
:102BB0009395880F08F09927EE0F979587950895BC
:102BC0000E94F4150C948F140E94881458F00E94EF
:102BD000811440F029F45F3F29F00C9478145111CE
:102BE0000C94C3140C947E140E94A01468F39923CF
:102BF000B1F3552391F3951B550BBB27AA276217F9
:102C00007307840738F09F5F5F4F220F331F441F05
:102C1000AA1FA9F335D00E2E3AF0E0E832D0915039
:102C20005040E695001CCAF72BD0FE2F29D0660F26
:102C3000771F881FBB1F261737074807AB07B0E869
:102C400009F0BB0B802DBF01FF2793585F4F3AF06F
:102C50009E3F510578F00C9478140C94C3145F3F98
:102C6000E4F3983ED4F3869577956795B795F795F5
:102C70009F5FC9F7880F911D9695879597F90895DD
:102C8000E1E0660F771F881FBB1F62177307840779
:102C9000BA0720F0621B730B840BBA0BEE1F88F788
:102CA000E09508950E9459166894B1110C94C314CC
:102CB00008950E94A81488F09F5798F0B92F99277B
:102CC000B751B0F0E1F0660F771F881F991F1AF017
:102CD000BA95C9F714C0B13091F00E94C214B1E0A6
:102CE00008950C94C214672F782F8827B85F39F0A5
:102CF000B93FCCF3869577956795B395D9F73EF4B0
:102D000090958095709561957F4F8F4F9F4F089557
:102D10000E94E71308F48FEF089519F416F40C9449
:102D20007E140C94D3160E94A814B8F39923C9F307
:102D3000B6F39F57550B87FF0E94E1160024A0E6CB
:102D400040EA900180585695979528F4805C660F6C
:102D5000771F881F20F026173707480730F4621BBB
:102D6000730B840B202931294A2BA69517940794BD
:102D7000202531254A2758F7660F771F881F20F036
:102D800026173707480730F4620B730B840B200DAE
:102D9000311D411DA09581F7B901842F9158880FED
:102DA0009695879508959F3F31F0915020F487952F
:102DB00077956795B795880F911D9695879597F9A3
:102DC000089591505040660F771F881FD2F70895DD
:102DD00097FB072E16F4009407D077FD09D00E94C8
:102DE000111707FC05D03EF4909581959F4F0895EB
:102DF000709561957F4F0895EE0FFF1F0590F49138
:102E0000E02D09940E946415332312F48A1B9B0B56
:102E10000C940C170E946415B7FF0895821B930B46
:102E20000895AA1BBB1B51E107C0AA1FBB1FA61711
:102E3000B70710F0A61BB70B881F991F5A95A9F763
:102E400080959095BC01CD0108950F931F93CF936A
:102E5000DF938230910510F482E090E0E091FC0273
:102E6000F091FD0220E030E0A0E0B0E0309719F1F1
:102E7000408151810281138148175907C8F0841796
:102E8000950769F4109731F012960C9312971396E8
:102E90001C9327C00093FC021093FD0222C0211551
:102EA000310519F04217530718F49A01BD01EF01DB
:102EB000DF01F801DBCF21153105F9F0281B390BB3
:102EC0002430310580F48A819B816115710521F0E0
:102ED000FB019383828304C09093FD028093FC02E4
:102EE000FE01329644C0FE01E20FF31F81939193DD
:102EF00022503109398328833AC02091FA02309157
:102F0000FB02232B41F42091020130910301309305
:102F1000FB022093FA02209100013091010121155A
:102F2000310541F42DB73EB74091040150910501A0
:102F3000241B350BE091FA02F091FB02E217F30734
:102F4000A0F42E1B3F0B2817390778F0AC014E5F19
:102F50005F4F2417350748F04E0F5F1F5093FB0259
:102F60004093FA028193919302C0E0E0F0E0CF0138
:102F7000DF91CF911F910F910895CF93DF93009729
:102F800009F481C0FC01329713821282A091FC02E5
:102F9000B091FD02109781F420813181820F931F3F
:102FA0002091FA023091FB022817390751F5F0936E
:102FB000FB02E093FA0267C0ED0120E030E0CE179B
:102FC000DF0740F44A815B819E0141155105F1F014
:102FD000EA01F5CFD383C28340815181840F951FCD
:102FE000C817D90759F488819981840F951F0296D3
:102FF000918380838A819B8193838283211531050C
:1030000029F4F093FD02E093FC023DC0E901FB834B
:10301000EA8349915991C40FD51FEC17FD0761F45C
:1030200080819181840F951F0296E901998388839D
:10303000828193819B838A83E0E0F0E012968D91F8
:103040009C911397009719F0FD01DC01F7CF8D914A
:103050009C9111979D012E5F3F4F820F931F2091EE
:10306000FA023091FB022817390769F4309729F4E6
:103070001092FD021092FC0202C013821282B093E1
:10308000FB02A093FA02DF91CF910895A0E0B0E097
:10309000ECE4F8E10C943115EC01009721F4CB013C
:1030A0000E942517B4C0FC01E60FF71F9C012250B7
:1030B0003109E217F30708F4A8C0D9010D911C915A
:1030C000119706171707B0F00530110508F49BC0DB
:1030D000C80104978617970708F495C00250110994
:1030E000061B170B019311936D937C93CF010E94E4
:1030F000BD1789C05B01A01AB10A4C01800E911E58
:10310000A091FC02B091FD02612C712CE12CF12CFC
:10311000109709F446C08D919C911197A815B90597
:10312000B1F56C0142E0C40ED11CCA14DB0478F185
:103130004C018A189B08640142E0C40ED11C12960F
:10314000BC9012971396AC91B5E0CB16D10440F029
:10315000B282A38391828082D9016D937C9309C04E
:103160000E5F1F4F800F911FF90191838083EB2D1C
:10317000FA2FE114F10431F0D7011396FC93EE938A
:10318000129741C0F093FD02E093FC023CC0681628
:10319000790608F43C017D0112960D90BC91A02D9A
:1031A000B7CF8091FA029091FB0288169906E1F45C
:1031B00066167706C8F4809100019091010100978E
:1031C00041F48DB79EB74091040150910501841BD5
:1031D000950BE817F907C8F4F093FB02E093FA02A5
:1031E000F901718360830FC0CB010E9425177C0118
:1031F000009759F0A801BE010E940C19CE010E944F
:10320000BD17C70104C0CE0102C080E090E0CDB779
:10321000DEB7EEE00C944D15FB01DC0102C001901D
:103220000D9241505040D8F70895FB01DC018D917B
:1032300081341CF08B350CF4805E619161341CF09C
:103240006B350CF4605E861B611189F3990B089550
:10325000FB01DC0101900D920020E1F70895FB01D4
:10326000DC014150504048F001900D920020C9F718
:1032700001C01D9241505040E0F70895AEE0B0E02B
:10328000E4E4F9E10C943B150D891E8986E08C83FA
:103290001A8309838FEF9FE79E838D83AE01475E7C
:1032A0005F4F6F89788DCE0101960E946019EF8182
:1032B000F885E00FF11F10822E96E4E00C9457156C
:1032C000ABE0B0E0E6E6F9E10C942D156C017B0172
:1032D0008A01FC0117821682838181FFCCC1CE0155
:1032E00001963C01F6019381F70193FD859193FFCF
:1032F00081917F01882309F4BAC1853239F493FDA5
:10330000859193FF81917F01853229F4B60190E088
:103310000E94571BE7CF912C212C312CFFE1F31594
:10332000D8F08B3279F038F4803279F08332A1F41E
:10333000232D20611DC08D3261F0803369F4232D6F
:10334000216016C0832D8260382EE32DE4603E2E6E
:103350002AC0F32DF8601DC037FC2DC020ED280FCA
:103360002A3040F08E32B9F436FC81C1232D20641E
:10337000322E19C036FE06C08AE0989E200D112418
:10338000922E11C0EAE02E9E200D1124222EF32D44
:10339000F0623F2E08C08C3621F4832D8068382ED1
:1033A00002C0883641F4F70193FD859193FF819126
:1033B0007F018111B3CF982F9F7D9554933028F4CE
:1033C0000C5F1F4F9FE399830DC0833631F0833725
:1033D00071F0833509F059C021C0F80180818983DB
:1033E0000E5F1F4F88248394912C530113C0280132
:1033F000F2E04F0E511CF801A080B18036FE03C0F0
:10340000692D70E002C06FEF7FEFC5010E944C1B79
:103410004C018201F32DFF773F2E16C0280122E0D8
:10342000420E511CF801A080B18036FE03C0692D08
:1034300070E002C06FEF7FEFC5010E94411B4C019D
:10344000F32DF0683F2E820133FC1BC0822D90E0EB
:1034500088169906B0F4B60180E290E00E94571BEE
:103460002A94F4CFF50137FC859137FE81915F01F5
:10347000B60190E00E94571B21102A9421E0821A85
:1034800091088114910471F7E8C0843611F08936EF
:1034900041F5F80137FE07C0608171818281938117
:1034A0000C5F1F4F08C060817181072E000C880BD4
:1034B000990B0E5F1F4FF32DFF763F2E97FF09C02C
:1034C00090958095709561957F4F8F4F9F4FF068D5
:1034D0003F2E2AE030E0A3010E94931B882E86181D
:1034E00045C0853731F4232D2F7EB22E2AE030E0FF
:1034F00025C0932D997FB92E8F36C1F018F48835E9
:1035000079F0B5C0803719F0883721F0B0C0E92FC5
:10351000E061BE2EB4FE0DC0FB2DF460BF2E09C0CD
:1035200034FE0AC0292F2660B22E06C028E030E003
:1035300005C020E130E002C020E132E0F801B7FE32
:1035400007C060817181828193810C5F1F4F06C02B
:103550006081718180E090E00E5F1F4FA3010E94A7
:10356000931B882E8618FB2DFF773F2E36FE0DC04D
:10357000232D2E7FA22E891458F434FE0BC032FC6A
:1035800009C0832D8E7EA82E05C0B82CA32C03C0A5
:10359000B82C01C0B92CA4FE0FC0FE01E80DF11D2E
:1035A0008081803321F49A2D997EA92E09C0A2FE34
:1035B00006C0B394B39404C08A2D867809F0B394FE
:1035C000A3FC11C0A0FE06C0B21488F4280C922CF3
:1035D0009B180EC0B21460F4B60180E290E00E9425
:1035E000571BB394F7CFB21418F42B1802C0982CC1
:1035F000212CA4FE10C0B60180E390E00E94571B6E
:10360000A2FE17C0A1FC03C088E790E002C088E5D5
:1036100090E0B6010CC08A2D867859F0A1FE02C058
:103620008BE201C080E2A7FC8DE2B60190E00E942F
:10363000571B891438F4B60180E390E00E94571BB1
:103640009A94F7CF8A94F301E80DF11D8081B601B9
:1036500090E00E94571B8110F5CF222009F442CE42
:10366000B60180E290E00E94571B2A94F6CFF60143
:103670008681978102C08FEF9FEF2B96E2E10C9439
:103680004915FC010590615070400110D8F78095F4
:1036900090958E0F9F1F0895FC016150704001901E
:1036A0000110D8F7809590958E0F9F1F08950F9366
:1036B0001F93CF93DF93FB01238121FD03C08FEF85
:1036C0009FEF2CC022FF16C046815781248135818F
:1036D0004217530744F4A081B1819D012F5F3F4FF2
:1036E000318320838C93268137812F5F3F4F37832F
:1036F000268314C08B01EC01FB010084F185E02DD1
:103700000995892BE1F6D80116968D919C91179712
:10371000019617969C938E931697CE01DF91CF91C9
:103720001F910F910895FA01AA27283051F12031F5
:1037300081F1E8946F936E7F6E5F7F4F8F4F9F4F45
:10374000AF4FB1E03ED0B4E03CD0670F781F891F87
:103750009A1FA11D680F791F8A1F911DA11D6A0F55
:10376000711D811D911DA11D20D009F468943F9108
:103770002AE0269F11243019305D3193DEF6CF0107
:103780000895462F4770405D4193B3E00FD0C9F7CD
:10379000F6CF462F4F70405D4A3318F0495D31FD3A
:1037A0004052419302D0A9F7EACFB4E0A69597958D
:1037B000879577956795BA95C9F700976105710563
:1037C00008959B01AC010A2E0694579547953795AD
:1037D0002795BA95C9F7620F731F841F951FA01D07
:1037E000089510E0CDE6D0E004C0FE010E94FC1672
:0C37F0002196CE36D107C9F7F894FFCF20
:1037FC000000FE0280000001020307000102030426
:10380C0007000000002F019800C6007C01F700D5CE
:10381C0000E9000000000093055F05EB044603304F
:10382C0003F802D702A30282022C02E80100000076
:10383C0000A8019C0435068A04AE01AB0147420086
:10384C00303023005253004156004544004651008D
:10385C0046470047430030322300474400474800A6
:10386C004646230047490030312300474E0025309F
:10387C003458004750004754003030323023004752
:0E388C005600534600534800534E00313100A1
:00000001FF
