:100000000C946E000C9496000C9496000C94960040
:100010000C9496000C9496000C9496000C94960008
:100020000C9496000C9496000C9496000C949600F8
:100030000C9496000C9496000C9496000C949600E8
:100040000C9423060C9496000C940B040C94E5037A
:100050000C9496000C9496000C9496000C949600C8
:100060000C9496000C949600000206020C021202F8
:1000700018021E02240255035C0363036A03710322
:100080008803780388037F03000000002400270012
:100090002A0000000000250028002B0004040404AE
:1000A0000404040402020202020203030303030322
:1000B00001020408102040800102040810200102FF
:1000C00004081020000000080002010000030407DB
:1000D000000000000000000030119A0C11241FBE27
:1000E000CFEFD8E0DEBFCDBF11E0A0E0B1E0E2E0AD
:1000F000F8E302C005900D92AA39B107D9F722E0C2
:10010000AAE9B1E001C01D92A83FB207E1F710E0F3
:10011000CDE6D0E004C02197FE010E94FF16CC3648
:10012000D107C9F70E94A00C0C94F41B0C9400009A
:10013000CF92DF92EF92FF920F931F93CF93DF93B3
:100140006C017A018B01C0E0D0E0CE15DF0581F0B3
:10015000D8016D918D01D601ED91FC910190F08156
:10016000E02DC6010995892B11F02196EECF7E0175
:10017000C701DF91CF911F910F91FF90EF90DF901A
:10018000CF900895089580E090E00895FC01538D8C
:10019000448D252F30E0842F90E0821B930B541761
:1001A00010F0CF96089501970895FC01918D828DEE
:1001B000981761F0828DDF01A80FB11D5D968C91BB
:1001C000928D9F5F9F73928F90E008958FEF9FEFC6
:1001D0000895FC01918D828D981731F0828DE80F82
:1001E000F11D858D90E008958FEF9FEF0895FC013C
:1001F000918D228D892F90E0805C9F4F821B910909
:100200008F73992708958FEC91E00E94F70021E009
:10021000892B09F420E0822F0895FC01848DDF01F1
:10022000A80FB11DA35ABF4F2C91848D90E0019669
:100230008F739927848FA689B7892C93A089B18958
:100240008C91837080648C93938D848D981306C0F9
:100250000288F389E02D80818F7D80830895EF925D
:10026000FF920F931F93CF93DF93EC0181E0888F70
:100270009B8D8C8D981305C0E889F989808185FD57
:1002800026C0F62E0B8D10E00F5F1F4F0F73112746
:10029000E02E8C8DE8120CC00FB607FCFACFE8896F
:1002A000F989808185FFF5CFCE010E940D01F1CF44
:1002B0008B8DFE01E80FF11DE35AFF4FF0829FB7CF
:1002C000F8940B8FEA89FB89808180620AC09FB70E
:1002D000F894EE89FF896083E889F98980818370C9
:1002E000806480839FBF81E090E0DF91CF911F9178
:1002F0000F91FF90EF900895CF93DF93EC01888DDD
:100300008823C9F0EA89FB89808185FD05C0A88919
:10031000B9898C9186FD0FC00FB607FCF5CF80819F
:1003200085FFF2CFA889B9898C9185FFEDCFCE01E9
:100330000E940D01E7CFDF91CF91089580E090E01A
:10034000892B29F00E94030181110C94000008956B
:1003500080E290E0089586E090E008958BE091E0DF
:10036000089580E890E00895EF92FF920F931F9315
:10037000CF93DF938C017B01C1E0D0E0D801ED91F8
:10038000FC910190F081E02DC80109958C179D0723
:1003900054F0CE15DF0521F4F801D78BC68B03C0CE
:1003A000CC0FDD1FEBCFD80156968D919C915797BE
:1003B000DF91CF911F910F91FF90EF90089580E111
:1003C00090E0089585E090E0089586E091E008953A
:1003D000CF93DF934770552766277727FA01319728
:1003E000EC01A881B981E730F10520F4EC5CFF4F06
:1003F0000C94FF161496ED91FC91159761E029C0BD
:100400001496ED91FC91159765E023C01496ED913B
:10041000FC91159764E01DC01496ED91FC91159721
:1004200066E017C01496ED91FC91159762E011C03B
:100430001496ED91FC9115976AE00BC01496ED911E
:10044000FC91159768E005C01496ED91FC91159705
:1004500069E0DF91CF910994CF93DF93EC01CB0159
:10046000BA0126E030E040E050E00E94FE14623025
:1004700071058105910559F18CF4611571058105AE
:100480009105F1F06130710581059105C1F5E881B3
:10049000F9810480F581E02D65E02DC0643071059F
:1004A0008105910511F1D4F0653071058105910543
:1004B00031F5E881F9810480F581E02D66E01BC00B
:1004C000E881F9810480F581E02D64E014C0E881C1
:1004D000F9810480F581E02D61E00DC0E881F981AA
:1004E0000480F581E02D63E006C0E881F981048095
:1004F000F581E02D62E0CE01DF91CF910994DF918B
:10050000CF9108954370552766277727DC01ED9139
:10051000FC910480F581E02D4230510561057105A3
:1005200071F0433051056105710559F041305105B5
:100530006105710511F065E005C066E003C06AE081
:1005400001C069E00994CF93DF93EC01CB01BA01BC
:1005500023E030E040E050E00E94FE14613071057D
:100560008105910581F0623071058105910591F059
:10057000672B682B692BC1F4E881F9810480F58130
:10058000E02D64E00DC0E881F9810480F581E02D63
:1005900061E006C0E881F9810480F581E02D62E028
:1005A000CE01DF91CF910994DF91CF9108954370EF
:1005B000552766277727DC01ED91FC910480F581B2
:1005C000E02D423051056105710571F04330510550
:1005D0006105710559F0413051056105710511F052
:1005E00062E005C063E003C061E001C060E009941F
:1005F000CF93DF93EC01E881F9810480F581E02D50
:100600008A81811102C060E001C062E0CE010995DB
:10061000E881F9810480F581E02D8A81811102C091
:1006200061E001C063E0CE0109958CA59DA58230F3
:10063000910538F0880F991F880F991F059701972A
:10064000F1F7E881F9810480F581E02D8A8181113B
:1006500002C060E001C062E0CE01DF91CF91099459
:10066000CF93DF93EC0120E030E0A9016C897D8914
:100670008E899F890E948B1618161CF4E8A9F9A987
:1006800002C0EAA9FBA9DF91CF9109940F931F93B0
:10069000DC011396EC910E2F10E009301105C0F526
:1006A000F801E55CFF4F0C94FF16DC01ED91FC9125
:1006B0000084F185E02D29C0DC01ED91FC910284DC
:1006C000F385E02D22C0DC01ED91FC910484F585D9
:1006D000E02D1BC0DC01ED91FC910684F785E02D37
:1006E00014C0DC01ED91FC910088F189E02D0DC072
:1006F000DC01ED91FC910288F389E02D06C0DC015C
:10070000ED91FC910488F589E02D1F910F910994DA
:100710001F910F9108958091A301811103C060E1A1
:1007200070E002C060E270E0719561957109072E7A
:10073000000C880B990B0C94E5078091A3018111A3
:1007400003C060E170E002C060E270E0072E000CC0
:10075000880B990B0C94E5070F931F93CF93DF93AE
:10076000EC0188819981009729F02A813B81261725
:10077000370788F48B016F5F7F4F0E9449180097FD
:1007800061F0998388831B830A832C813D81232B0D
:1007900011F4FC01108281E001C080E0DF91CF9173
:1007A0001F910F910895CF93DF93EC018881998178
:1007B000009711F00E94C017198218821D821C82B6
:1007C0001B821A82DF91CF9108951F920F920FB66C
:1007D0000F9211242F933F934F935F936F937F93C7
:1007E0008F939F93AF93BF93EF93FF938FEC91E021
:1007F0000E940D01FF91EF91BF91AF919F918F9159
:100800007F916F915F914F913F912F910F900FBE0C
:100810000F901F9018951F920F920FB60F921124F0
:100820002F938F939F93EF93FF93E091DF01F091CC
:10083000E0018081E091E501F091E60182FD12C0C6
:1008400090818091E8018F5F8F732091E901821779
:1008500051F0E091E801F0E0E153FE4F958F809375
:10086000E80101C08081FF91EF919F918F912F91BD
:100870000F900FBE0F901F90189590E0FC01EC5365
:10088000FF4F2491FC01E055FF4F3491FC01E456E9
:10089000FF4FE491EE2309F43CC0222339F12330C9
:1008A00091F038F42130A9F0223001F584B58F7D24
:1008B00012C0273091F02830A1F02430B9F4809193
:1008C00080008F7D03C0809180008F7780938000AF
:1008D0000DC084B58F7784BD09C08091B0008F773B
:1008E00003C08091B0008F7D8093B000F0E0EE0FE8
:1008F000FF1FEE56FF4FA591B4919FB7F894611179
:1009000004C08C913095382302C0EC913E2B3C936F
:100910009FBF08950F931F93CF93DF93EC010E9425
:10092000B4018EA99FA90196E9F188AD99AD019610
:10093000C9F18AAD9BAD0196A9F1E881F9810480E6
:10094000F581E02DCE0109958C01E881F9810680C1
:10095000F781E02DCE01099520E030E08217930762
:1009600009F14E895F89022E02C0559547950A9478
:10097000E2F740FF14C0F801E20FF31F1081612F6E
:1009800064708AAD0E943D04612F627088AD0E9440
:100990003D04612F61708EA90E943D0403C02F5F4A
:1009A0003F4FDCCF8E899F89DF91CF911F910F91AF
:1009B0000895CF92DF92EF92FF920F931F93CF9300
:1009C000DF93EC019B81943041F0983031F093300B
:1009D00031F0963021F012E003C014E001C013E0C2
:1009E0002496E12CF12CC62ED12C01E0C6010E2C50
:1009F00002C0959587950A94E2F76C8180FD602787
:100A000089910E943D048FEFE81AF80AE11670F30D
:100A1000DF91CF911F910F91FF90EF90DF90CF90DA
:100A20000895CF93DF9390E0FC01E055FF4F2491B0
:100A3000FC01E456FF4F8491882361F190E0880F18
:100A4000991FFC01E857FF4FC591D491FC01EE5668
:100A5000FF4FA591B491611109C09FB7F8948881A7
:100A6000209582238883EC912E230BC0623061F4A1
:100A70009FB7F8948881322F309583238883EC9137
:100A80002E2B2C939FBF06C08FB7F894E8812E2B96
:100A900028838FBFDF91CF910895CF93DF93FC011F
:100AA0002381222359F1EC0161E084810E94110528
:100AB00061E08D810E9411058B81843011F08830B6
:100AC00039F461E08E810E94110561E08F8106C0DA
:100AD000833011F0863021F461E08E810E9411058F
:100AE0008FA58F3F59F061E00E9411056EA581E04E
:100AF00068278FA5DF91CF910C943D04DF91CF91B2
:100B00000895CF93DF93FC0123812223A9F0EC0108
:100B10000190F081E02D0480F581E02D60E00995E1
:100B20008FA58F3F49F061E00E9411056EA58FA54A
:100B3000DF91CF910C943D04DF91CF9108951F93E5
:100B4000CF93DF93182FEB0161E00E9411052097EE
:100B500011F460E004C0CF3FD10539F461E0812F8A
:100B6000DF91CF911F910C943D04E12FF0E0EC5305
:100B7000FF4FE491E330F9F048F4E130B9F0E230AE
:100B8000A1F584B5806284BDC8BD34C0E730E9F00A
:100B9000E83019F1E43049F580918000806280935B
:100BA0008000D0938B00C0938A0024C084B58068F5
:100BB00084BDC7BD1FC08091800080688093800085
:100BC000D0938900C093880015C08091B0008068E0
:100BD0008093B000C093B3000DC08091B0008062DC
:100BE0008093B000C093B40005C0C038D1050CF0AC
:100BF000B5CFAFCFDF91CF911F9108953FB7F89454
:100C000080919B0190919C01A0919D01B0919E01CA
:100C100026B5A89B05C02F3F19F00196A11DB11D57
:100C20003FBFBA2FA92F982F8827820F911DA11D92
:100C3000B11DBC01CD0142E0660F771F881F991FCF
:100C40004A95D1F708951F920F920FB60F92112473
:100C50002F933F938F939F93AF93BF9380919F0167
:100C60009091A001A091A101B091A20130919A01AF
:100C700023E0230F2D3720F40196A11DB11D05C0DF
:100C800026E8230F0296A11DB11D20939A0180939F
:100C90009F019093A001A093A101B093A201809124
:100CA0009B0190919C01A0919D01B0919E010196A4
:100CB000A11DB11D80939B0190939C01A0939D0168
:100CC000B0939E01BF91AF919F918F913F912F91D2
:100CD0000F900FBE0F901F90189561E08DE00E945D
:100CE0003D0481E08093A40108952F923F924F929A
:100CF0005F926F927F928F929F92AF92BF92CF92AC
:100D0000DF92EF92FF920F931F93CF93DF936B01CC
:100D10007C018091D4029091D502A091D602B0912D
:100D2000D7020097A105B10529F1DCF34091DC025F
:100D30005091DD026091DE027091DF024817590781
:100D40006A077B070CF02EC18C0D9D1DAE1DBF1DCB
:100D5000F7FE07C084179507A607B70714F4DB0151
:100D6000CA018093D4029093D502A093D602B09387
:100D7000D70218C1D701C60180959095A095B0956E
:100D80008827B7FD83959927AA27BB279093E5026B
:100D90008093E4021092B6021092B7021092B80249
:100DA0001092B902F7FE08C0F094E094D094C09479
:100DB000C11CD11CE11CF11CC092D402D092D502FE
:100DC000E092D602F092D7021092D0021092D10295
:100DD0001092D2021092D3021092B2021092B30279
:100DE0001092B4021092B5028091CA029091CB0287
:100DF0002091C8023091C9020091BE021091BF0239
:100E0000C091C602D091C702019709F099C0209FF6
:100E1000C001219F900D309F900D11246CE370E074
:100E20000E94EB160091CC021091CD029B01DB01D8
:100E30000E9405179B01AC01DE010E942815980154
:100E4000220F331F032E000C440B550B0E94FE147F
:100E500049015A012093D8023093D9024093DA0213
:100E60005093DB022090CE023090CF022101032C60
:100E7000000C66087708D8010E942815A30192018A
:100E80000E94FE142093DC023093DD024093DE02C8
:100E90005093DF02D501C401820F931FA41FB51F19
:100EA000C816D906EA06FB061CF5A7019601C30180
:100EB000B2010E94CC149801220D331D032E000CA8
:100EC000440B550B0E94FE142093D8023093D90294
:100ED0004093DA025093DB02C21AD30AE40AF50AFD
:100EE000C092DC02D092DD02E092DE02F092DF02DC
:100EF000C09FB001C19F700DD09F700D1124072EAF
:100F0000000C880B990B0E94AF139B01AC0160E0B1
:100F100070E080E090E40E94E3150E94961620E0C5
:100F20003AE045E259E40E940E140E94551660937F
:100F3000E0027093E1028093E2029093E30232C0F8
:100F4000032E000C440B550B60E077E883E993E037
:100F50000E94FE14CA01B9019801110F440B550BF0
:100F60000E94FE14CA01B9019E01DD0F440B550B0E
:100F70000E94FE142093E0023093E1024093E202CB
:100F80005093E3021092D8021092D9021092DA0222
:100F90001092DB021092DC021092DD021092DE024F
:100FA0001092DF02DF91CF911F910F91FF90EF9090
:100FB000DF90CF90BF90AF909F908F907F906F9079
:100FC0005F904F903F902F9008954F925F926F9255
:100FD0007F928F929F92AF92BF92CF92DF92EF92C9
:100FE000FF92CF93DF93CDB7DEB72C970FB6F8946F
:100FF000DEBF0FBECDBF0E9475068091D4029091D6
:10100000D502A091D602B091D702181619061A0679
:101010001B060CF049C18090BA029090BB02A090D0
:10102000BC02B090BD0281149104A104B10439F551
:101030006091E4028091C0020E943D0461E08091D1
:10104000C2020E943D040E94FE0569877A878B8751
:101050009C87C090E002D090E102E090E202F09024
:10106000E3028091D4029091D502A091D602B09172
:10107000D702181619061A061B0604F1D0C0C09034
:10108000B602D090B702E090B802F090B902C11455
:10109000D104E104F10421F40E94FE056B017C01FE
:1010A0000E94FE05DC01CB018C199D09AE09BF0928
:1010B00088159905AA05BB0598F3BACF9C01AD0127
:1010C00021503109410951092093D4023093D502AE
:1010D0004093D6025093D7028090D0029090D102D4
:1010E000A090D202B090D3028FEF881A980AA80A73
:1010F000B80A8092D0029092D102A092D202B0920D
:10110000D3028091CA029091CB02019709F087C067
:10111000211531054105510509F481C08091DC029A
:101120009091DD02A091DE02B091DF028217930759
:10113000A407B5070CF0EEC04090D8025090D90239
:101140006090DA027090DB02481459046A047B0450
:101150000CF465C08091B2029091B302A091B402E8
:10116000B091B50289839A83AB83BC83D501C40156
:1011700042E0880F991FAA1FBB1F4A95D1F79C0117
:10118000AD012F5F3F4F4F4F5F4F2D833E834F8306
:101190005887D701C601880F991FAA1FBB1F298135
:1011A0003A814B815C81280F391F4A1F5B1FCA019E
:1011B000B9012D813E814F8158850E94FE14D701CF
:1011C000C601821B930BA40BB50B8093E002909396
:1011D000E102A093E202B093E30284149504A60412
:1011E000B7040CF093C0880F991FAA1FBB1F298159
:1011F0003A814B815C81280F391F4A1F5B1FCA014E
:10120000B9012D813E814F8158850E94FE14609363
:10121000B2027093B3028093B4029093B5020E941D
:10122000FE05AB01A985BA854A1B5B0B5A8349832E
:10123000452B79F40E94FE054B015C010E94FE05DE
:1012400086169706A806B906C9F321E030E03A836E
:10125000298360E08091C2020E943D040E94FE0545
:101260006093B6027093B7028093B8029093B9026C
:1012700049815A81CA01A0E0B0E08C159D05AE05F8
:10128000BF052CF4C81AD90AEA0AFB0A04C0C12C0B
:10129000D12C7601C394C092BA02D092BB02E092E4
:1012A000BC02F092BD0210C01092B6021092B702BA
:1012B0001092B8021092B9021092BA021092BB02B8
:1012C0001092BC021092BD028091BA029091BB02B2
:1012D000A091BC02B091BD02892B8A2B8B2B09F007
:1012E0008CCE2C960FB6F894DEBF0FBECDBFDF912B
:1012F000CF91FF90EF90DF90CF90BF90AF909F90F5
:101300008F907F906F905F904F90089560E070E0B5
:10131000CB017DCF8090B2029090B302A090B40236
:10132000B090B502ACEFBFEF0E942B152B013C0132
:101330003FEF431A530A630A730AD701C601880FA5
:10134000991FAA1FBB1FBC01CD01680D791D8A1D05
:101350009B1DA30192010E94FE14D701C601821BAE
:10136000930BA40BB50B8093E0029093E102A09342
:10137000E202B093E302880F991FAA1FBB1FBC01B2
:10138000CD01680D791D8A1D9B1DA30192013DCFE2
:101390004F925F926F927F928F929F92AF92BF9285
:1013A000CF92DF92EF92FF920F931F93CF93DF9331
:1013B000C0907C02D0907D02E0907E02F0907F028F
:1013C0008091780290917902A0917A02B0917B028B
:1013D000C81AD90AEA0AFB0A609180027091810258
:1013E00080918202909183029B01AC010E940E14B5
:1013F0004B015C01609188027091890280918A02A0
:1014000090918B029B01AC010E9477159B01AC016E
:10141000C501B4010E94E3150E945516C114D10400
:10142000E104F104F9F462307105810591050CF0D5
:1014300092C0109290021092910210929202109219
:1014400093021092800210928102109282021092F6
:1014500083021092A0021092A1021092A202109296
:10146000A3022AC10091A0021091A1022091A20220
:101470003091A3021C141D041E041F040CF5101649
:1014800011061206130654F46C157D058E059F0592
:1014900064F520916E0221115EC027C0011511056F
:1014A0002105310509F457C06C157D058E059F0592
:1014B0000CF051C080916E02882309F44CC03CC0EE
:1014C000101611061206130614F5002711279801AD
:1014D0000C191D092E093F09601771078207930730
:1014E00024F420916E022223B1F19B01AC018827E4
:1014F0009927DC01821B930BA40BB50B8093A002F0
:101500009093A102A093A202B093A30224C001155C
:10151000110521053105F9F08824992454018C180E
:101520009D08AE08BF08681579058A059B059CF4DF
:1015300080916E0281110FC0309520951095019514
:101540001F4F2F4F3F4F0093A0021093A1022093F3
:10155000A2023093A3028090A0029090A102A090DA
:10156000A202B090A30281149104A104B104D1F4A9
:101570008091A4029091A502A091A602B091A70229
:101580008093A8029093A902A093AA02B093AB0201
:1015900081E01C141D041E041F040CF080E08093E5
:1015A0006E024AC0C090A802D090A902E090AA02A0
:1015B000F090AB02A7019601C701B6010E94771512
:1015C0002B013C01C501B4010E94AF1320E030E0C3
:1015D00040E850E40E940E1420E030E040E85FE371
:1015E0000E9477159B01AC01C301B2010E94E31573
:1015F0009B01AC01C701B6010E947615D62FC72FFB
:101600006C01E090AC02F090AD020091AE0210913E
:10161000AF029701A8010E948B1618161CF4ED2E3C
:10162000FC2E8601C701D8018093A8029093A902DD
:10163000A093AA02B093AB023FEF831A930AA30AC6
:10164000B30A8092A0029092A102A092A202B0924C
:10165000A302C090A802D090A902E090AA02F09044
:10166000AB02C701B6010E945C16609390027093B2
:1016700091028093920290939302A701960160E0F9
:1016800074E284E799E40E94E3156093800270930A
:101690008102809382029093830220916E02211135
:1016A0000BC0DC01CB01B058809380029093810283
:1016B000A0938202B0938302DF91CF911F910F918B
:1016C000FF90EF90DF90CF90BF90AF909F908F9062
:1016D0007F906F905F904F9008954F925F926F92BE
:1016E0007F928F929F92AF92BF92CF92DF92EF92B2
:1016F000FF926B017C0120E030E0A9010E94A81359
:1017000087FF04C0F7FAF094F7F8F094809088020D
:1017100090908902A0908A02B0908B02A701960156
:10172000C501B4010E94A813882309F456C0609132
:10173000A0027091A1028091A2029091A3020E9446
:10174000AF132B013C01A7019601C501B4010E9412
:10175000E3159B01AC01C301B2010E940E140E946B
:1017600055166093A0027093A1028093A2029093F9
:10177000A302A701960160E070E080E090E40E947F
:10178000E3150E94961626E53EE04DE25FE30E94D7
:101790000E1420E034E244E759E40E940E146093F2
:1017A000A4027093A5028093A6029093A702C09210
:1017B0008802D0928902E0928A02F0928B02FF9016
:1017C000EF90DF90CF90BF90AF909F908F907F90E1
:1017D0006F905F904F900C94C809FF90EF90DF904E
:1017E000CF90BF90AF909F908F907F906F905F90C1
:1017F0004F900895009769F0FC0101900020E9F7EF
:101800003197AF01481B590BBC018FEC91E00C9450
:10181000980080E090E00895CF92DF92EF92FF92DF
:101820008091900290919102A0919202B0919302C6
:10183000892B8A2B8B2B09F450C00E94FE056B016B
:101840007C018091940290919502A0919602B091B2
:101850009702B701A601481B590B6A0B7B0B8091BD
:10186000900290919102A0919202B0919302481738
:1018700059076A077B0788F120916E0280917802F0
:1018800090917902A0917A02B0917B02222321F0FB
:101890000196A11DB11D03C00197A109B109809353
:1018A000780290937902A0937A02B0937B024091E0
:1018B00078025091790260917A0270917B028CE6F5
:1018C00092E00E944603C0929402D0929502E09268
:1018D0009602F09297020E94C80920E030E0A90128
:1018E00060918002709181028091820290918302C6
:1018F0000E94A813811118C081E0C0907C02D09092
:101900007D02E0907E02F0907F024091780250913B
:10191000790260917A0270917B02C416D506E606C0
:10192000F70619F480E001C081E0FF90EF90DF90AE
:10193000CF9008958091EC029091ED020C94C01725
:10194000CF93DF93CDB7DEB728970FB6F894DEBFFD
:101950000FBECDBF789484B5826084BD84B58160AC
:1019600084BD85B5826085BD85B5816085BD80916A
:101970006E00816080936E001092810080918100E2
:1019800082608093810080918100816080938100DA
:10199000809180008160809380008091B10084609C
:1019A0008093B1008091B00081608093B0008091FD
:1019B0007A00846080937A0080917A0082608093BC
:1019C0007A0080917A00816080937A0080917A0019
:1019D000806880937A001092C100E091DF01F0915D
:1019E000E00182E08083E091DB01F091DC01108274
:1019F000E091DD01F091DE018FEC80831092E70130
:101A0000E091E301F091E40186E08083E091E1015F
:101A1000F091E201808180618083E091E101F091A9
:101A2000E201808188608083E091E101F091E20130
:101A3000808180688083E091E101F091E201808102
:101A40008F7D808361E08DE00E94110561E085E07B
:101A50000E94110561E086E00E94110561E089E0C5
:101A60000E94110561E08AE00E94110561E0809109
:101A7000C0020E94110561E08091C0020E943D04F5
:101A800061E08091C2020E94110560E08091C20273
:101A90000E943D048091C4029091C5028F3F0FEFD8
:101AA000900741F061E00E94110561E08091C4025D
:101AB0000E943D0488E790E09093C9028093C80299
:101AC00060E170E080EB92E00E948A048091C402A1
:101AD0009091C5028F3F1FEF910719F060E00E94BF
:101AE0003D048091E6029091E7028F3F2FEF92072D
:101AF000D9F02091E8023091E9022F3F3F4FA1F049
:101B00002091EA023091EB022F3F3F4F69F061E0F4
:101B10000E94110561E08091E8020E94110561E0D8
:101B20008091EA020E94110560E070E882EA94E484
:101B30000E946D0B1092A4012FB7F89480919F0121
:101B40009091A001A091A101B091A2012FBF80931B
:101B5000CB019093CC01A093CD01B093CE0188E04E
:101B6000EFEBF1E0DF011D928A95E9F787E7282E78
:101B700081E0382E98EE492E93E0592E612C712C7D
:101B80008091A401882331F10E940C0C40917C02C9
:101B900050917D0260917E0270917F028091780267
:101BA00090917902A0917A02B0917B02481759076F
:101BB0006A077B0709F03FC08FB7F89440919F01F7
:101BC0005091A0016091A1017091A2018FBF10926C
:101BD000A40131C02FB7F89480919F019091A0018A
:101BE000A091A101B091A2012FBF4091CB015091D2
:101BF000CC016091CD017091CE018C019D01041B3F
:101C0000150B260B370BB901A8014C325140610569
:101C1000710588F08093CB019093CC01A093CD0106
:101C2000B093CE016091CA0121E062276093CA019E
:101C30008DE00E943D0480E480937C0080917A00D6
:101C4000806480937A0080917A0086FDFCCF209199
:101C500078008091790030E0382B25313105B4F0DF
:101C6000C901330FAA0BBB0B9C01AD0124513109F3
:101C700041095109AAEFB0E00E941D152BEE33E097
:101C800040E050E00E94FE14B90102C060E070E044
:101C90008AE00E949F058FEC91E00E94F70020915E
:101CA000C901892B39F1211125C08FEC91E00E94E7
:101CB000D5008332D9F08A3371F32091C701309176
:101CC000C801A9014F5F5F4F5093C8014093C701FE
:101CD000F901E154FE4F808348305105E4F287E07A
:101CE00090E09093C8018093C701D5CF91E0909385
:101CF000C901D1CF222309F4B0C288E0A7EBB1E03B
:101D0000E82F1D92EA95E9F7AFEAB1E01D928A95B6
:101D1000E9F7EFEBF1E001900020E9F731978F014F
:101D20000F5B114002301105A4F042E050E06FEB70
:101D300071E087EB91E00E9432190230110549F001
:101D4000A8014250510961EC71E08FEA91E00E94D4
:101D5000321988E0EFEBF1E011928A95E9F71092E1
:101D6000C9011092C8011092C70169E471E087EBC4
:101D700091E00E941819892B21F48CE491E00E94D3
:101D8000FA0B60E571E087EB91E00E941819892B4E
:101D900079F460E070E085E00E949F0560E070E00B
:101DA00086E00E949F0560E070E089E00E949F0548
:101DB00063E571E087EB91E00E941819892B59F5D2
:101DC00040E150E060E070E08FEA91E00E9486120E
:101DD0006B017C01613DF7E07F0781059105DCF037
:101DE000A30192010E94FE14B9016550710962308D
:101DF000710518F02930310571F488E19CEF829F5C
:101E0000B001839F700D929F700D11246C0D7D1D8C
:101E1000822F0E949F0566E571E087EB91E00E94AA
:101E20001819892B51F069E571E087EB91E00E9468
:101E30001819892B09F47FC084C08091A4018111F5
:101E400002C00E946D068090800290908102A09056
:101E50008202B090830220E030E0A901C501B40104
:101E60000E94A813882309F461C0A5019401C5014B
:101E7000B4010E940E146B017C0160918802709184
:101E8000890280918A0290918B029B01AC010E9491
:101E900077159B01AC01C701B6010E94E3150E94B2
:101EA00055166B017C010FEFC01AD00AE00AF00A48
:101EB00020E030E0A901C501B4010E948B16009119
:101EC0007C0210917D0220917E0230917F02409130
:101ED00078025091790260917A0270917B02181613
:101EE00094F4C40ED51EE61EF71EC016D106E206F7
:101EF000F306E1F0C0927C02D0927D02E0927E0275
:101F0000F0927F0211C04C195D096E097F094017DC
:101F100051076207730751F040937C0250937D0292
:101F200060937E0270937F020E94C8090E940C0C8D
:101F30008111FCCF78CF8091A401811102C00E9451
:101F40006D066CE571E087EB91E00E941819892B12
:101F500021F48FE591E00E94FA0B63E671E087EBD4
:101F600091E00E941819892B21F48FE591E00E94DD
:101F7000FA0B66E671E087EB91E00E941819892B55
:101F800059F48091A301882319F089E691E002C0F9
:101F90008CE491E00E94FA0B6DE671E087EB91E032
:101FA0000E941819892BE1F440917C0250917D0226
:101FB00060917E0270917F02809178029091790207
:101FC000A0917A02B0917B02481759076A077B07F4
:101FD00019F48CE491E002C080E791E00E94FA0BD2
:101FE00064E771E087EB91E00E941819892B09F5ED
:101FF00080917F028F9380917E028F9380917D02EA
:102000008F9380917C028F933F922F9225EA31E04B
:102010003F932F930E94411985EA91E00E94FA0BA9
:102020008EE491E00E94FA0B0FB6F894DEBF0FBE6B
:10203000CDBF6CE771E087EB91E00E941819892B06
:1020400009F580917B028F9380917A028F93809122
:1020500079028F93809178028F933F922F92A5EA15
:10206000B1E0BF93AF930E94411985EA91E00E94CD
:10207000FA0B8EE491E00E94FA0B0FB6F894DEBFE3
:102080000FBECDBF6FE771E087EB91E00E9418199A
:10209000892B21F482E891E00E94FA0B68E871E054
:1020A00087EB91E00E941819892B09F050C01A8221
:1020B00019821C821B821E821D820091EC021091EB
:1020C000ED0201151105B9F0E090F002F090F10277
:1020D000B701CE0101960E94AC03811105C0CE016B
:1020E00001960E94D30307C0FE82ED82B801898168
:1020F0009A810E942B1983E28F8318860D811E819D
:102100000F5F1F4FB801CE0101960E94AC038823D8
:1021100071F029813A818D819E81BE01695F7F4F77
:10212000820F931F0E942B191E830D8304C0CE01C2
:1021300001960E94D3034D815E8169817A818FEC83
:1021400091E00E94980089819A810E94C0176BE8F3
:1021500071E087EB91E00E941819892B41F460E14E
:1021600070E080EB92E00E948A041092A3016EE876
:1021700071E087EB91E00E941819892B49F460E225
:1021800070E080EB92E00E948A0411E01093A301BA
:1021900061E971E087EB91E00E941819892B29F51C
:1021A0008091A401811102C00E946D0640E150E0BF
:1021B00060E070E08FEA91E00E94861200917C025C
:1021C00010917D0220917E0230917F020617170741
:1021D0002807390751F060937C0270937D02809349
:1021E0007E0290937F020E94C80964E971E087EB48
:1021F00091E00E941819892B81F540E150E060E0E0
:1022000070E08FEA91E00E948612609378027093EA
:10221000790280937A0290937B0260937C027093A0
:102220007D0280937E0290937F021092A002109212
:10223000A1021092A2021092A30210929002109298
:1022400091021092920210929302109280021092C8
:10225000810210928202109283020E949E0190CC11
:102260001092D2011092D10188EE93E0A0E0B0E08C
:102270008093D3019093D401A093D501B093D6015C
:1022800085E191E09093D0018093CF0185EC90E0BF
:102290009093DC018093DB0184EC90E09093DE016D
:1022A0008093DD0180EC90E09093E0018093DF016A
:1022B00081EC90E09093E2018093E10182EC90E068
:1022C0009093E4018093E30186EC90E09093E60123
:1022D0008093E5011092E8011092E9011092EA0161
:1022E0001092EB011092ED021092EC021092EF02AC
:1022F0001092EE021092F1021092F00262E070E091
:102300008CEE92E00E94AC03811105C08CEE92E04D
:102310000E94D3030EC082E090E09093F10280937C
:10232000F00267E971E08091EC029091ED020E9469
:102330002B191092B6021092B7021092B8021092A6
:10234000B9021092BA021092BB021092BC02109213
:10235000BD0288EC90E09093BF028093BE0282E0C1
:1023600090E09093C1028093C00283E090E090934C
:10237000C3028093C2028FEF9FEF9093C5028093B8
:10238000C40221E030E03093C7022093C6021092CD
:10239000C9021092C8021092CB021092CA0288EEB3
:1023A00093E09093CD028093CC029093CF028093E0
:1023B000CE0287E090E09093E7028093E60288E007
:1023C00090E09093E9028093E8028BE090E0909394
:1023D000EB028093EA0281E491E09093B102809352
:1023E000B00287E291E090936D0280936C021092AC
:1023F0006F02109278021092790210927A02109273
:102400007B0210927C0210927D0210927E0210924A
:102410007F0210928002109281021092820210922A
:10242000830280E090E0A0E8BFE380938402909371
:102430008502A0938602B0938702109288021092C0
:10244000890210928A0210928B0280938C029093E0
:102450008D02A0938E02B0938F0210929002109280
:10246000910210929202109293023093990220935B
:1024700098022FEF20939B021092940210929502E3
:1024800010929602109297021092700210927102AE
:1024900010927202109273022DE933E030939D0284
:1024A00020939C022BE833E030939F0220939E02FE
:1024B0001092A0021092A1021092A2021092A30206
:1024C0001092A4021092A5021092A6021092A702E6
:1024D0001092A8021092A9021092AA021092AB02C6
:1024E0008093AC029093AD02A093AE02B093AF0282
:1024F00010926E021092740210927502109276027F
:1025000010927702BC01CD010C946D0BA0E0B0E0FD
:10251000ECE8F2E10C9431155C016B017A01611574
:10252000710519F0FB0191838083E114F10429F016
:10253000C7010297839708F0E5C0E5012196F501F0
:102540001081812F90E00E949C13892B11F05E0175
:10255000F4CF1D3229F42196F501118101E007C065
:102560001B3221F4E5012296F501118100E0E1140E
:10257000F10409F1F0E1EF16F10429F43FC010E392
:10258000E114F10421F128E0E216F10401F154F420
:10259000E2E0EE16F10421F5812C912CA12CB0E49F
:1025A000BB2E3EC0FAE0EF16F10439F020E1E2164E
:1025B000F104B1F430C0103319F1FAE0EF2EF12C30
:1025C000ACEC8A2E982CA82CACE0BA2E29C078E06E
:1025D000E72EF12C812C912CA12CE0E1BE2E20C005
:1025E00060E070E080E090E897010F2C000C440B55
:1025F000550B0E94DC1449015A0112C0103359F4E2
:1026000088818F7D883509F0BACF198122960260C2
:1026100080E1E82EF12C812C912CA12C68E0B62EC3
:1026200040E060E070E0CB0127010F2C000C660851
:102630007708FE0150ED352E310E29E0231570F498
:102640002FEB210F2A3118F439EC332E06C02FE975
:10265000210F2A3118F529EA322E310E232D30E0D0
:102660002E153F05DCF447FD16C086169706A80612
:10267000B90670F0A30192010E94CC14630D711D84
:10268000811D911D61307105810520E8920710F0D0
:102690004FEF01C041E021961081CBCF202F217058
:1026A000C114D10471F0442329F02197F601D1839C
:1026B000C08307C001FF19C02297F601D183C083F0
:1026C00014C047FF12C0222329F060E070E080E0D0
:1026D00090E804C06FEF7FEF8FEF9FE722E230E0DA
:1026E0003093F3022093F20209C0222381F09095E7
:1026F0008095709561957F4F8F4F9F4F462F372F55
:10270000282F12C040E030E020E090E00DC097FF9D
:10271000F5CF82E290E09093F3028093F2026FEFA4
:102720007FEF8FEF9FE7EACF642F732F822FCDB714
:10273000DEB7E1E10C944D1591110C94A513803294
:1027400019F089508550C8F708959927882708956A
:102750000E94EA1308F481E00895E89409C097FB09
:102760003EF490958095709561957F4F8F4F9F4F68
:102770009923A9F0F92F96E9BB279395F6958795AC
:1027800077956795B795F111F8CFFAF4BB0F11F46F
:1027900060FF1BC06F5F7F4F8F4F9F4F16C0882316
:1027A00011F096E911C0772321F09EE8872F762F4C
:1027B00005C0662371F096E8862F70E060E02AF08D
:1027C0009A95660F771F881FDAF7880F9695879579
:1027D00097F90895990F0008550FAA0BE0E8FEEF4E
:1027E00016161706E807F907C0F012161306E407D5
:1027F000F50798F0621B730B840B950B39F40A26CE
:1028000061F0232B242B252B21F408950A2609F4AB
:10281000A140A6958FEF811D811D08950E9421146E
:102820000C9492140E94841438F00E948B1420F0AF
:10283000952311F00C947B140C94811411240C94A6
:10284000C6140E94A31470F3959FC1F3950F50E036
:10285000551F629FF001729FBB27F00DB11D639F52
:10286000AA27F00DB11DAA1F649F6627B00DA11DF8
:10287000661F829F2227B00DA11D621F739FB00D9E
:10288000A11D621F839FA00D611D221F749F33270E
:10289000A00D611D231F849F600D211D822F762FA7
:1028A0006A2F11249F5750409AF0F1F088234AF084
:1028B000EE0FFF1FBB1F661F771F881F91505040F0
:1028C000A9F79E3F510580F00C947B140C94C6141C
:1028D0005F3FE4F3983ED4F3869577956795B79577
:1028E000F795E7959F5FC1F7FE2B880F911D969591
:1028F000879597F9089597F99F6780E870E060E001
:1029000008959FEF80EC089500240A941616170688
:1029100018060906089500240A94121613061406D0
:1029200005060895092E0394000C11F4882352F033
:10293000BB0F40F4BF2B11F460FF04C06F5F7F4FEB
:102940008F4F9F4F089557FD9058440F551F59F0D2
:102950005F3F71F04795880F97FB991F61F09F3F8C
:1029600079F087950895121613061406551FF2CFB5
:102970004695F1DF08C0161617061806991FF1CF05
:1029800086957105610508940895E894BB2766272C
:102990007727CB0197F90895DB018F939F930E94CE
:1029A0001D15BF91AF91A29F800D911DA39F900D0A
:1029B000B29F900D11240895A1E21A2EAA1BBB1BF1
:1029C000FD010DC0AA1FBB1FEE1FFF1FA217B307FB
:1029D000E407F50720F0A21BB30BE40BF50B661F11
:1029E000771F881F991F1A9469F7609570958095D5
:1029F00090959B01AC01BD01CF010895052E97FB79
:102A00001EF400940E94151557FD07D00E94DC1497
:102A100007FC03D04EF40C94151550954095309555
:102A200021953F4F4F4F5F4F08959095809570953A
:102A300061957F4F8F4F9F4F08950E946715A59F07
:102A4000900DB49F900DA49F800D911D11240895A9
:102A5000B7FF0C941D150E941D15821B930B089542
:102A60002F923F924F925F926F927F928F929F929E
:102A7000AF92BF92CF92DF92EF92FF920F931F938C
:102A8000CF93DF93CDB7DEB7CA1BDB0B0FB6F8943D
:102A9000DEBF0FBECDBF09942A88398848885F847D
:102AA0006E847D848C849B84AA84B984C884DF80EE
:102AB000EE80FD800C811B81AA81B981CE0FD11DD2
:102AC0000FB6F894DEBF0FBECDBFED010895A29FF3
:102AD000B001B39FC001A39F700D811D1124911DF2
:102AE000B29F700D811D1124911D08955058BB2770
:102AF000AA270E948E150C9492140E94841438F018
:102B00000E948B1420F039F49F3F19F426F40C94A2
:102B100081140EF4E095E7FB0C947B14E92F0E94DE
:102B2000A31458F3BA17620773078407950720F0B8
:102B300079F4A6F50C94C5140EF4E0950B2EBA2F7B
:102B4000A02D0B01B90190010C01CA01A0011124B3
:102B5000FF27591B99F0593F50F4503E68F11A165F
:102B6000F040A22F232F342F4427585FF3CF4695F0
:102B700037952795A795F0405395C9F77EF41F1612
:102B8000BA0B620B730B840BBAF09150A1F0FF0FDC
:102B9000BB1F661F771F881FC2F70EC0BA0F621FC8
:102BA000731F841F48F4879577956795B795F795B8
:102BB0009E3F08F0B0CF9395880F08F09927EE0F4D
:102BC0009795879508950E94F7150C9492140E948A
:102BD0008B1458F00E94841440F029F45F3F29F0D0
:102BE0000C947B1451110C94C6140C9481140E9403
:102BF000A31468F39923B1F3552391F3951B550B57
:102C0000BB27AA2762177307840738F09F5F5F4FBF
:102C1000220F331F441FAA1FA9F335D00E2E3AF0FE
:102C2000E0E832D091505040E695001CCAF72BD016
:102C3000FE2F29D0660F771F881FBB1F2617370767
:102C40004807AB07B0E809F0BB0B802DBF01FF2799
:102C500093585F4F3AF09E3F510578F00C947B14E7
:102C60000C94C6145F3FE4F3983ED4F386957795B1
:102C70006795B795F7959F5FC9F7880F911D969552
:102C8000879597F90895E1E0660F771F881FBB1FAE
:102C9000621773078407BA0720F0621B730B840B5B
:102CA000BA0BEE1F88F7E09508950E945C166894B1
:102CB000B1110C94C61408950E94AB1488F09F576C
:102CC00098F0B92F9927B751B0F0E1F0660F771F50
:102CD000881F991F1AF0BA95C9F714C0B13091F046
:102CE0000E94C514B1E008950C94C514672F782F85
:102CF0008827B85F39F0B93FCCF38695779567950B
:102D0000B395D9F73EF490958095709561957F4F76
:102D10008F4F9F4F08950E94EA1308F48FEF089594
:102D200019F416F40C9481140C94D6160E94AB146A
:102D3000B8F39923C9F3B6F39F57550B87FF0E9449
:102D4000E4160024A0E640EA900180585695979535
:102D500028F4805C660F771F881F20F0261737073E
:102D6000480730F4621B730B840B202931294A2B4E
:102D7000A69517940794202531254A2758F7660F02
:102D8000771F881F20F026173707480730F4620B9B
:102D9000730B840B200D311D411DA09581F7B901E6
:102DA000842F9158880F9695879508959F3F31F00D
:102DB000915020F4879577956795B795880F911D69
:102DC0009695879597F9089591505040660F771F13
:102DD000881FD2F7089597FB072E16F4009407D0AA
:102DE00077FD09D00E94141707FC05D03EF490959A
:102DF00081959F4F0895709561957F4F0895EE0FCF
:102E0000FF1F0590F491E02D09940E94671533236C
:102E100012F48A1B9B0B0C940F170E946715B7FFC7
:102E20000895821B930B0895AA1BBB1B51E107C099
:102E3000AA1FBB1FA617B70710F0A61BB70B881F4A
:102E4000991F5A95A9F780959095BC01CD010895D9
:102E50000F931F93CF93DF938230910510F482E09C
:102E600090E0E091F602F091F70220E030E0A0E07F
:102E7000B0E0309719F140815181028113814817E8
:102E80005907C8F08417950769F4109731F0129626
:102E90000C93129713961C9327C00093F60210937D
:102EA000F70222C02115310519F04217530718F413
:102EB0009A01BD01EF01DF01F801DBCF21153105DA
:102EC000F9F0281B390B2430310580F48A819B816D
:102ED0006115710521F0FB019383828304C09093F7
:102EE000F7028093F602FE01329644C0FE01E20F23
:102EF000F31F8193919322503109398328833AC07B
:102F00002091F4023091F502232B41F4209102012B
:102F1000309103013093F5022093F40220910001D7
:102F2000309101012115310541F42DB73EB7409193
:102F3000040150910501241B350BE091F402F0913E
:102F4000F502E217F307A0F42E1B3F0B28173907F1
:102F500078F0AC014E5F5F4F2417350748F04E0FF5
:102F60005F1F5093F5024093F4028193919302C046
:102F7000E0E0F0E0CF01DF91CF911F910F91089534
:102F8000CF93DF93009709F481C0FC01329713823D
:102F90001282A091F602B091F702109781F420817D
:102FA0003181820F931F2091F4023091F50228178E
:102FB000390751F5F093F502E093F40267C0ED0193
:102FC00020E030E0CE17DF0740F44A815B819E01AC
:102FD00041155105F1F0EA01F5CFD383C283408159
:102FE0005181840F951FC817D90759F48881998199
:102FF000840F951F0296918380838A819B8193839E
:1030000082832115310529F4F093F702E093F6024B
:103010003DC0E901FB83EA8349915991C40FD51F53
:10302000EC17FD0761F480819181840F951F029652
:10303000E90199838883828193819B838A83E0E07D
:10304000F0E012968D919C911397009719F0FD0175
:10305000DC01F7CF8D919C9111979D012E5F3F4F21
:10306000820F931F2091F4023091F502281739073F
:1030700069F4309729F41092F7021092F60202C018
:1030800013821282B093F502A093F402DF91CF91E4
:103090000895A0E0B0E0EFE4F8E10C943415EC0101
:1030A000009721F4CB010E942817B4C0FC01E60F61
:1030B000F71F9C0122503109E217F30708F4A8C05A
:1030C000D9010D911C91119706171707B0F0053023
:1030D000110508F49BC0C80104978617970708F4E8
:1030E00095C002501109061B170B019311936D93A4
:1030F0007C93CF010E94C01789C05B01A01AB10A5E
:103100004C01800E911EA091F602B091F702612C45
:10311000712CE12CF12C109709F446C08D919C91F3
:103120001197A815B905B1F56C0142E0C40ED11C88
:10313000CA14DB0478F14C018A189B08640142E050
:10314000C40ED11C1296BC9012971396AC91B5E0A8
:10315000CB16D10440F0B282A38391828082D90140
:103160006D937C9309C00E5F1F4F800F911FF90173
:1031700091838083EB2DFA2FE114F10431F0D70114
:103180001396FC93EE93129741C0F093F702E093ED
:10319000F6023CC06816790608F43C017D011296DF
:1031A0000D90BC91A02DB7CF8091F4029091F502C3
:1031B00088169906E1F466167706C8F48091000136
:1031C00090910101009741F48DB79EB740910401A1
:1031D00050910501841B950BE817F907C8F4F0938B
:1031E000F502E093F402F901718360830FC0CB0113
:1031F0000E9428177C01009759F0A801BE010E9487
:103200000F19CE010E94C017C70104C0CE0102C031
:1032100080E090E0CDB7DEB7EEE00C945015FB01F6
:10322000DC0102C001900D9241505040D8F7089542
:10323000FB01DC018D9181341CF08B350CF4805E38
:10324000619161341CF06B350CF4605E861B61117A
:1032500089F3990B0895FB01DC0101900D92002088
:10326000E1F70895FB01DC014150504048F0019026
:103270000D920020C9F701C01D9241505040E0F767
:103280000895AEE0B0E0E7E4F9E10C943E150D8955
:103290001E8986E08C831A8309838FEF9FE79E83C4
:1032A0008D83AE01475E5F4F6F89788DCE010196A9
:1032B0000E946319EF81F885E00FF11F10822E96AE
:1032C000E4E00C945A15ABE0B0E0E9E6F9E10C94C7
:1032D00030156C017B018A01FC0117821682838103
:1032E00081FFCCC1CE0101963C01F6019381F7012B
:1032F00093FD859193FF81917F01882309F4BAC1E1
:10330000853239F493FD859193FF81917F01853258
:1033100029F4B60190E00E945A1BE7CF912C212C92
:10332000312CFFE1F315D8F08B3279F038F480328C
:1033300079F08332A1F4232D20611DC08D3261F01C
:10334000803369F4232D216016C0832D8260382ECE
:10335000E32DE4603E2E2AC0F32DF8601DC037FC3B
:103360002DC020ED280F2A3040F08E32B9F436FC03
:1033700081C1232D2064322E19C036FE06C08AE09A
:10338000989E200D1124922E11C0EAE02E9E200D51
:103390001124222EF32DF0623F2E08C08C3621F42A
:1033A000832D8068382E02C0883641F4F70193FDE2
:1033B000859193FF81917F018111B3CF982F9F7DDC
:1033C0009554933028F40C5F1F4F9FE399830DC0F1
:1033D000833631F0833771F0833509F059C021C04D
:1033E000F801808189830E5F1F4F88248394912C7C
:1033F000530113C02801F2E04F0E511CF801A080C8
:10340000B18036FE03C0692D70E002C06FEF7FEF20
:10341000C5010E944F1B4C018201F32DFF773F2E07
:1034200016C0280122E0420E511CF801A080B18094
:1034300036FE03C0692D70E002C06FEF7FEFC5015B
:103440000E94441B4C01F32DF0683F2E820133FC97
:103450001BC0822D90E088169906B0F4B60180E278
:1034600090E00E945A1B2A94F4CFF50137FC859115
:1034700037FE81915F01B60190E00E945A1B211036
:103480002A9421E0821A91088114910471F7E8C00E
:10349000843611F0893641F5F80137FE07C06081A6
:1034A0007181828193810C5F1F4F08C0608171819F
:1034B000072E000C880B990B0E5F1F4FF32DFF7624
:1034C0003F2E97FF09C090958095709561957F4F2D
:1034D0008F4F9F4FF0683F2E2AE030E0A3010E94FB
:1034E000961B882E861845C0853731F4232D2F7EF4
:1034F000B22E2AE030E025C0932D997FB92E8F3669
:10350000C1F018F4883579F0B5C0803719F08837E4
:1035100021F0B0C0E92FE061BE2EB4FE0DC0FB2D3E
:10352000F460BF2E09C034FE0AC0292F2660B22ED7
:1035300006C028E030E005C020E130E002C020E114
:1035400032E0F801B7FE07C060817181828193810A
:103550000C5F1F4F06C06081718180E090E00E5FBC
:103560001F4FA3010E94961B882E8618FB2DFF7704
:103570003F2E36FE0DC0232D2E7FA22E891458F427
:1035800034FE0BC032FC09C0832D8E7EA82E05C0F0
:10359000B82CA32C03C0B82C01C0B92CA4FE0FC0BA
:1035A000FE01E80DF11D8081803321F49A2D997E72
:1035B000A92E09C0A2FE06C0B394B39404C08A2DFC
:1035C000867809F0B394A3FC11C0A0FE06C0B21423
:1035D00088F4280C922C9B180EC0B21460F4B6012B
:1035E00080E290E00E945A1BB394F7CFB21418F413
:1035F0002B1802C0982C212CA4FE10C0B60180E329
:1036000090E00E945A1BA2FE17C0A1FC03C088E7ED
:1036100090E002C088E590E0B6010CC08A2D867863
:1036200059F0A1FE02C08BE201C080E2A7FC8DE24E
:10363000B60190E00E945A1B891438F4B60180E369
:1036400090E00E945A1B9A94F7CF8A94F301E80DF8
:10365000F11D8081B60190E00E945A1B8110F5CFC8
:10366000222009F442CEB60180E290E00E945A1B6B
:103670002A94F6CFF6018681978102C08FEF9FEFE3
:103680002B96E2E10C944C15FC01059061507040C2
:103690000110D8F7809590958E0F9F1F0895FC011B
:1036A0006150704001900110D8F7809590958E0F71
:1036B0009F1F08950F931F93CF93DF93FB012381E7
:1036C00021FD03C08FEF9FEF2CC022FF16C0468163
:1036D0005781248135814217530744F4A081B18179
:1036E0009D012F5F3F4F318320838C93268137814B
:1036F0002F5F3F4F3783268314C08B01EC01FB0102
:103700000084F185E02D0995892BE1F6D801169604
:103710008D919C911797019617969C938E9316976F
:10372000CE01DF91CF911F910F910895FA01AA2741
:10373000283051F1203181F1E8946F936E7F6E5FF4
:103740007F4F8F4F9F4FAF4FB1E03ED0B4E03CD0A2
:10375000670F781F891F9A1FA11D680F791F8A1F85
:10376000911DA11D6A0F711D811D911DA11D20D0EC
:1037700009F468943F912AE0269F11243019305DA6
:103780003193DEF6CF010895462F4770405D419397
:10379000B3E00FD0C9F7F6CF462F4F70405D4A33E4
:1037A00018F0495D31FD4052419302D0A9F7EACFAC
:1037B000B4E0A6959795879577956795BA95C9F7DB
:1037C00000976105710508959B01AC010A2E0694CE
:1037D0005795479537952795BA95C9F7620F731F87
:1037E000841F951FA01D089510E0CDE6D0E004C011
:1037F000FE010E94FF162196CE36D107C9F7F89434
:02380000FFCFF8
:103802000000F80280000001020307000102030425
:1038120007000000002F019800C6007C01F700D5C8
:1038220000E9000000000081054D05D9044603307F
:1038320003F802D702A30282022C02E80100000070
:1038420000A8018A04AE01AB0147420030302300D8
:10385200525300415600465100464700474300304C
:1038620032230047440047480046462300474900A8
:1038720030312300474E002530345800475000476E
:10388200540030303230230047560053460053482C
:0A38920000534E0053500031300087
:00000001FF
