:100000000C9473000C949B000C949B000C949B002C
:100010000C949B000C949B000C949B000C949B00F4
:100020000C949B000C949B000C949B000C949B00E4
:100030000C949B000C949B000C949B000C949B00D4
:100040000C9417060C949B000C9439040C94130424
:100050000C949B000C949B000C949B000C949B00B4
:100060000C949B000C949B002E0234023A02400236
:1000700046024C02520283038A03910398039F03B2
:10008000B603A603B603AD0300000000230026005C
:10009000290000000000240027002A0000000000C2
:1000A000250028002B0004040404040404040202B4
:1000B00002020202030303030303010204081020E7
:1000C00040800102040810200102040810200000F2
:1000D0000008000201000003040700000000000007
:1000E00000006C10A40C11241FBECFEFD8E0DEBFBF
:1000F000CDBF11E0A0E0B1E0E6E8F7E302C0059073
:100100000D92A839B107D9F723E0A8E9B1E001C001
:100110001D92A431B207E1F710E0C2E7D0E004C0BD
:100120002197FE010E94C116C137D107C9F70E946D
:10013000AA0C0C94B61B0C940000CF92DF92EF92A5
:10014000FF920F931F93CF93DF936C017A018B0182
:10015000C0E0D0E0CE15DF0581F0D8016D918D01B2
:10016000D601ED91FC910190F081E02DC601099539
:10017000892B11F02196EECF7E01C701DF91CF913F
:100180001F910F91FF90EF90DF90CF900895089509
:1001900080E090E00895FC01538D448D252F30E0E0
:1001A000842F90E0821B930B541710F0CF96089584
:1001B00001970895FC01918D828D981761F0828DD1
:1001C000DF01A80FB11D5D968C91928D9F5F9F738B
:1001D000928F90E008958FEF9FEF0895FC01918D2D
:1001E000828D981731F0828DE80FF11D858D90E09A
:1001F00008958FEF9FEF0895FC01918D228D892F37
:1002000090E0805C9F4F821B91098F73992708951E
:100210008DEC91E00E94FC0021E0892B09F420E0A4
:10022000822F0895FC01848DDF01A80FB11DA35A10
:10023000BF4F2C91848D90E001968F739927848F06
:10024000A689B7892C93A089B1898C918370806429
:100250008C93938D848D981306C00288F389E02DCA
:1002600080818F7D80830895EF92FF920F931F937B
:10027000CF93DF93EC0181E0888F9B8D8C8D981359
:1002800005C0E889F989808185FD26C0F62E0B8D91
:1002900010E00F5F1F4F0F731127E02E8C8DE812B7
:1002A0000CC00FB607FCFACFE889F989808185FF79
:1002B000F5CFCE010E941201F1CF8B8DFE01E80F28
:1002C000F11DE35AFF4FF0829FB7F8940B8FEA8934
:1002D000FB89808180620AC09FB7F894EE89FF890C
:1002E0006083E889F98980818370806480839FBFFF
:1002F00081E090E0DF91CF911F910F91FF90EF90FF
:100300000895CF93DF93EC01888D8823C9F0EA89A3
:10031000FB89808185FD05C0A889B9898C9186FDFE
:100320000FC00FB607FCF5CF808185FFF2CFA889FB
:10033000B9898C9185FFEDCFCE010E941201E7CFE4
:10034000DF91CF91089580E090E0892B29F00E9401
:10035000080181110C9400000895833081F028F485
:10036000813099F08230A1F008958730A9F088306B
:10037000B9F08430D1F4809180008F7D03C08091EA
:1003800080008F7780938000089584B58F7702C0B6
:1003900084B58F7D84BD08958091B0008F7703C0B0
:1003A0008091B0008F7D8093B000089580E290E04E
:1003B000089586E090E008958BE091E0089580E84C
:1003C00090E00895EF92FF920F931F93CF93DF93E6
:1003D0008C017B01C1E0D0E0D801ED91FC9101904E
:1003E000F081E02DC80109958C179D0754F0CE15BA
:1003F000DF0521F4F801D18FC08F03C0CC0FDD1FC2
:10040000EBCFD80158968D919C915997DF91CF9160
:100410001F910F91FF90EF90089580E190E0089573
:1004200085E090E0089586E091E00895CF93DF9312
:100430004770552766277727FA013197EC01A88185
:10044000B981E730F10520F4EC5CFF4F0C94C11644
:100450001496ED91FC91159761E029C01496ED91E9
:10046000FC91159765E023C01496ED91FC911597CA
:1004700064E01DC01496ED91FC91159766E017C0DD
:100480001496ED91FC91159762E011C01496ED91D0
:10049000FC9115976AE00BC01496ED91FC911597AD
:1004A00068E005C01496ED91FC91159769E0DF9125
:1004B000CF910994CF93DF93EC01CB01BA0126E0F1
:1004C00030E040E050E00E94C014623071058105C8
:1004D000910559F18CF46115710581059105F1F0D3
:1004E0006130710581059105C1F5E881F9810480CC
:1004F000F581E02D65E02DC0643071058105910521
:1005000011F1D4F0653071058105910531F5E8816F
:10051000F9810480F581E02D66E01BC0E881F98156
:100520000480F581E02D64E014C0E881F981048045
:10053000F581E02D61E00DC0E881F9810480F5814D
:10054000E02D63E006C0E881F9810480F581E02DAB
:1005500062E0CE01DF91CF910994DF91CF910895B0
:100560004370552766277727DC01ED91FC910480C5
:10057000F581E02D423051056105710571F0433080
:1005800051056105710559F041305105610571054D
:1005900011F065E005C066E003C06AE001C069E0F3
:1005A0000994CF93DF93EC01CB01BA0123E030E053
:1005B00040E050E00E94C014613071058105910552
:1005C00081F0623071058105910591F0672B682BF0
:1005D000692BC1F4E881F9810480F581E02D64E0A4
:1005E0000DC0E881F9810480F581E02D61E006C04D
:1005F000E881F9810480F581E02D62E0CE01DF9190
:10060000CF910994DF91CF910895437055276627C4
:100610007727DC01ED91FC910480F581E02D4230DB
:1006200051056105710571F0433051056105710592
:1006300059F0413051056105710511F062E005C0C6
:1006400063E003C061E001C060E00994CF93DF93F1
:10065000EC01E881F9810480F581E02D8A81811126
:1006600002C060E001C062E0CE010995E881F98135
:100670000480F581E02D8A81811102C061E001C012
:1006800063E0CE0109958CA59DA58230910538F0D7
:10069000880F991F880F991F05970197F1F7E88137
:1006A000F9810480F581E02D8A81811102C060E02A
:1006B00001C062E0CE01DF91CF910994CF93DF9327
:1006C000EC0120E030E0A9016C897D898E899F8949
:1006D0000E944D1618161CF4E8A9F9A902C0EAA94F
:1006E000FBA9DF91CF9109940F931F93DC0113961F
:1006F000EC910E2F10E009301105C0F5F801E55C12
:10070000FF4F0C94C116DC01ED91FC910084F18542
:10071000E02D29C0DC01ED91FC910284F385E02DF0
:1007200022C0DC01ED91FC910484F585E02D1BC015
:10073000DC01ED91FC910684F785E02D14C0DC010D
:10074000ED91FC910088F189E02D0DC0DC01ED9167
:10075000FC910288F389E02D06C0DC01ED91FC914B
:100760000488F589E02D1F910F9109941F910F9135
:1007700008958091A101811103C060E170E002C081
:1007800060E270E0719561957109072E000C880B8D
:10079000990B0C94C6068091A101811103C060E100
:1007A00070E002C060E270E0072E000C880B990B2D
:1007B0000C94C6060F931F93CF93DF93EC018881AF
:1007C0009981009729F02A813B812617370788F401
:1007D0008B016F5F7F4F0E940B18009761F0998328
:1007E00088831B830A832C813D81232B11F4FC0118
:1007F000108281E001C080E0DF91CF911F910F91C5
:100800000895CF93DF93EC0188819981009711F0CF
:100810000E948217198218821D821C821B821A82F2
:10082000DF91CF9108951F920F920FB60F9211246E
:100830002F933F934F935F936F937F938F939F93E8
:10084000AF93BF93EF93FF938DEC91E00E94120161
:10085000FF91EF91BF91AF919F918F917F916F9198
:100860005F914F913F912F910F900FBE0F901F906E
:1008700018951F920F920FB60F9211242F938F93FA
:100880009F93EF93FF93E091DD01F091DE01808172
:10089000E091E301F091E40182FD12C0908180912A
:1008A000E6018F5F8F732091E701821751F0E0918D
:1008B000E601F0E0E353FE4F958F8093E60101C01F
:1008C0008081FF91EF919F918F912F910F900FBE9B
:1008D0000F901F9018951F93CF93DF93282F30E030
:1008E000F901E253FF4F8491F901E654FF4FD4918F
:1008F000F901EA55FF4FC491CC23C1F0162F8111A5
:100900000E94AD01EC2FF0E0EE0FFF1FE456FF4F09
:10091000A591B4919FB7F894111104C08C91D09512
:10092000D82302C0EC91DE2BDC939FBFDF91CF91E7
:100930001F910895FC01248935892F3FFFEF3F0760
:1009400051F061E0FC0186899789019709F460E024
:10095000822F0C946B0408950F931F93CF93DF9312
:10096000EC010E94E20188AD99AD0196E9F18AADF2
:100970009BAD0196C9F18CAD9DAD0196A9F1E881C1
:10098000F9810084F185E02DCE0109958C01E88183
:10099000F9810284F385E02DCE01099520E030E055
:1009A0008217930709F1488D598D022E02C0559583
:1009B00047950A94E2F740FF14C0F801E20FF31FD5
:1009C0001081612F64708CAD0E946B04612F627086
:1009D0008AAD0E946B04612F617088AD0E946B0428
:1009E00003C02F5F3F4FDCCF888D998DDF91CF9172
:1009F0001F910F910895CF92DF92EF92FF920F9384
:100A00001F93CF93DF93EC019B81943041F098309A
:100A100031F0933031F0963021F012E003C014E051
:100A200001C013E02496E12CF12CC62ED12C01E05C
:100A3000C6010E2C02C0959587950A94E2F76C8149
:100A400080FD602789910E946B048FEFE81AF80AF5
:100A5000E11670F3DF91CF911F910F91FF90EF900E
:100A6000DF90CF900895CF93DF9390E0FC01E654A0
:100A7000FF4F2491FC01EA55FF4F8491882361F1D7
:100A800090E0880F991FFC01EE56FF4FC591D4915D
:100A9000FC01E456FF4FA591B491611109C09FB7C5
:100AA000F8948881209582238883EC912E230BC0B3
:100AB000623061F49FB7F8948881322F3095832398
:100AC0008883EC912E2B2C939FBF06C08FB7F89490
:100AD000E8812E2B28838FBFDF91CF910895CF938C
:100AE000DF93FC012381222359F1EC0161E0848131
:100AF0000E94330561E08D810E9433058B81843033
:100B000011F0883039F461E08E810E94330561E094
:100B10008F8106C0833011F0863021F461E08E8130
:100B20000E9433058FA58F3F59F061E00E94330585
:100B30006EA581E068278FA5DF91CF910C946B049F
:100B4000DF91CF910895CF93DF93FC01238122237E
:100B5000A9F0EC010190F081E02D0480F581E02DF9
:100B600060E009958FA58F3F49F061E00E94330551
:100B70006EA58FA5DF91CF910C946B04DF91CF917F
:100B800008953FB7F89480919D0190919E01A091A6
:100B90009F01B091A00126B5A89B05C02F3F19F079
:100BA0000196A11DB11D3FBFBA2FA92F982F8827ED
:100BB000820F911DA11DB11DBC01CD0142E0660F48
:100BC000771F881F991F4A95D1F70895CF92DF921A
:100BD000EF92FF92FC01248935892F3FFFEF3F07F9
:100BE00029F0FC016689822F0E946B040E94C105D6
:100BF0006B017C010E94C105DC01CB018C199D09B0
:100C0000AE09BF090297A105B105A0F3FF90EF90CF
:100C1000DF90CF9008952FB7F8946091990170916B
:100C20009A0180919B0190919C012FBF08951F9282
:100C30000F920FB60F9211242F933F938F939F9390
:100C4000AF93BF938091990190919A01A0919B01DC
:100C5000B0919C013091980123E0230F2D3720F4AF
:100C60000196A11DB11D05C026E8230F0296A11D06
:100C7000B11D209398018093990190939A01A093BC
:100C80009B01B0939C0180919D0190919E01A09148
:100C90009F01B091A0010196A11DB11D80939D01FE
:100CA00090939E01A0939F01B093A001BF91AF913B
:100CB0009F918F913F912F910F900FBE0F901F909A
:100CC00018950F931F93CF93DF93EC010E940B06AF
:100CD0000E811F8128853985DC01CB01801B910B9A
:100CE000A20BB30B0A811B812C813D8108171907C8
:100CF0002A073B0708F03DC00E940B066E837F83E6
:100D000088879987288139813327F901E253FF4F7A
:100D10008491F901E654FF4F0491F901EA55FF4F20
:100D200014911123A1F081110E94AD01E12FF0E097
:100D3000EE0FFF1FE857FF4FA591B491EC91E02310
:100D400031E020E009F430E0832F922F02C080E0F0
:100D500090E02A853B852817390759F09B878A87B9
:100D6000EC85FD85309729F0DF91CF911F910F9190
:100D70000994DF91CF911F910F91089561E08DE06B
:100D80000E946B0481E08093A20108952F923F920C
:100D90004F925F926F927F928F929F92AF92BF928B
:100DA000CF92DF92EF92FF920F931F93CF93DF9337
:100DB000CDB7DEB72C970FB6F894DEBF0FBECDBF10
:100DC0008B019C010095109520953095002737FDEB
:100DD0000395112722273327109301030093000363
:100DE0001092D0021092D1021092D2021092D3022D
:100DF0006B017C0197FF08C0F094E094D094C094FC
:100E0000C11CD11CE11CF11CC092F002D092F10275
:100E1000E092F202F092F3021092EC021092ED02D4
:100E20001092EE021092EF021092CC021092CD02BC
:100E30001092CE021092CF028091E6029091E702CA
:100E40002091E4023091E5020091D8021091D9027C
:100E50004091E2025091E3025A834983019709F0DD
:100E60009CC0209FC001219F900D309F900D1124A8
:100E70006CE370E00E94AD160091E8021091E90267
:100E80009B01DB010E94C7169B01AC01A981BA81BD
:100E90000E94EA149801220F331F032E000C440B0A
:100EA000550B0E94C01449015A012093F40230935B
:100EB000F5024093F6025093F7022090EA02309038
:100EC000EB022101032C000C66087708D8010E9470
:100ED000EA14A30192010E94C0142093F8023093F7
:100EE000F9024093FA025093FB02D501C401820F2C
:100EF000931FA41FB51FC816D906EA06FB061CF5EA
:100F0000A7019601C301B2010E948E149801220D1F
:100F1000331D032E000C440B550B0E94C01420936C
:100F2000F4023093F5024093F6025093F702C21A8E
:100F3000D30AE40AF50AC092F802D092F902E092CC
:100F4000FA02F092FB0289819A81809FB001819F11
:100F5000700D909F700D1124072E000C880B990BBB
:100F60000E9471139B01AC0160E070E080E090E4AE
:100F70000E94A5150E94581620E03AE045E259E487
:100F80000E94D0130E9417166093FC027093FD021A
:100F90008093FE029093FF0234C0032E000C440B9A
:100FA000550B60E077E883E993E00E94C014CA0122
:100FB000B9019801110F440B550B0E94C014CA01CE
:100FC000B901A981BA819D01BB0F440B550B0E9449
:100FD000C0142093FC023093FD024093FE02509314
:100FE000FF021092F4021092F5021092F602109293
:100FF000F7021092F8021092F9021092FA0210927F
:10100000FB028091F0029091F102A091F202B09166
:10101000F302181619061A061B060CF049C1809037
:10102000D4029090D502A090D602B090D70281143D
:101030009104A104B10439F5609100038091DA02B2
:101040000E946B0461E08091DC020E946B040E94AC
:10105000C10569877A878B879C87C090FC02D090F6
:10106000FD02E090FE02F090FF028091F00290916C
:10107000F102A091F202B091F302181619061A06B5
:101080001B0604F1D0C0C090D002D090D102E090F5
:10109000D202F090D302C114D104E104F10421F48E
:1010A0000E94C1056B017C010E94C105DC01CB01DE
:1010B0008C199D09AE09BF0988159905AA05BB05BC
:1010C00098F3BACF9C01AD01215031094109510972
:1010D0002093F0023093F1024093F2025093F30216
:1010E0008090EC029090ED02A090EE02B090EF02A2
:1010F000BFEF8B1A9B0AAB0ABB0A8092EC0290925C
:10110000ED02A092EE02B092EF028091E602909181
:10111000E702019709F087C0211531054105510506
:1011200009F481C08091F8029091F902A091FA022D
:10113000B091FB0282179307A407B5070CF0F2C029
:101140004090F4025090F5026090F6027090F70221
:10115000481459046A047B040CF465C08091CC02E5
:101160009091CD02A091CE02B091CF0289839A8353
:10117000AB83BC83D501C40142E0880F991FAA1F2D
:10118000BB1F4A95D1F79C01AD012F5F3F4F4F4FD9
:101190005F4F2D833E834F835887D701C601880F49
:1011A000991FAA1FBB1F29813A814B815C81280F9F
:1011B000391F4A1F5B1FCA01B9012D813E814F8132
:1011C00058850E94C014D701C601821B930BA40B43
:1011D000B50B8093FC029093FD02A093FE02B093A6
:1011E000FF0284149504A604B7040CF097C0880F7E
:1011F000991FAA1FBB1F29813A814B815C81280F4F
:10120000391F4A1F5B1FCA01B9012D813E814F81E1
:1012100058850E94C0146093CC027093CD028093D5
:10122000CE029093CF020E94C105AB01A985BA8579
:101230004A1B5B0B5A834983452B79F40E94C105F5
:101240004B015C010E94C10586169706A806B906E7
:10125000C9F3E1E0F0E0FA83E98360E08091DC0229
:101260000E946B040E94C1056093D0027093D1026A
:101270008093D2029093D30229813A81C901A0E0E0
:10128000B0E08C159D05AE05BF0528F4C81AD90A33
:10129000EA0AFB0A04C0C12CD12C7601C394C09287
:1012A000D402D092D502E092D602F092D70210C0BA
:1012B0001092D0021092D1021092D2021092D30258
:1012C0001092D4021092D5021092D6021092D70238
:1012D0008091D4029091D502A091D602B091D7020C
:1012E000892B8A2B8B2B09F08CCE2C960FB6F89479
:1012F000DEBF0FBECDBFDF91CF911F910F91FF9049
:10130000EF90DF90CF90BF90AF909F908F907F90A5
:101310006F905F904F903F902F90089560E070E045
:10132000CB0179CF8090CC029090CD02A090CE02DC
:10133000B090CF02ACEFBFEF0E94ED142B013C0147
:101340003FEF431A530A630A730AD701C601880F95
:10135000991FAA1FBB1FBC01CD01680D791D8A1DF5
:101360009B1DA30192010E94C014D701C601821BDC
:10137000930BA40BB50B8093FC029093FD02A093FA
:10138000FE02B093FF02880F991FAA1FBB1FBC016A
:10139000CD01680D791D8A1D9B1DA301920139CFD6
:1013A0004F925F926F927F928F929F92AF92BF9275
:1013B000CF92DF92EF92FF920F931F93CF93DF9321
:1013C000C0909602D0909702E0909802F090990217
:1013D0008091920290919302A0919402B091950213
:1013E000C81AD90AEA0AFB0A60919A0270919B0214
:1013F00080919C0290919D029B01AC010E94D013B0
:101400004B015C016091A2027091A3028091A40241
:101410009091A5029B01AC010E9439159B01AC0182
:10142000C501B4010E94A5150E941716C114D1046C
:10143000E104F104F9F462307105810591050CF0C5
:1014400092C01092AA021092AB021092AC021092BB
:10145000AD0210929A0210929B0210929C0210927E
:101460009D021092BA021092BB021092BC0210921E
:10147000BD022AC10091BA021091BB022091BC02A8
:101480003091BD021C141D041E041F040CF510161F
:1014900011061206130654F46C157D058E059F0582
:1014A00064F52091880221115EC027C00115110545
:1014B0002105310509F457C06C157D058E059F0582
:1014C0000CF051C080918802882309F44CC03CC0C4
:1014D000101611061206130614F50027112798019D
:1014E0000C191D092E093F09601771078207930720
:1014F00024F4209188022223B1F19B01AC018827BA
:101500009927DC01821B930BA40BB50B8093BA02C5
:101510009093BB02A093BC02B093BD0224C00115FE
:10152000110521053105F9F08824992454018C18FE
:101530009D08AE08BF08681579058A059B059CF4CF
:101540008091880281110FC03095209510950195EA
:101550001F4F2F4F3F4F0093BA021093BB022093AF
:10156000BC023093BD028090BA029090BB02A09062
:10157000BC02B090BD0281149104A104B104D1F465
:101580008091BE029091BF02A091C002B091C102B1
:101590008093C2029093C302A093C402B093C50289
:1015A00081E01C141D041E041F040CF080E08093D5
:1015B00088024AC0C090C202D090C302E090C40228
:1015C000F090C502A7019601C701B6010E94391526
:1015D0002B013C01C501B4010E94711320E030E0F1
:1015E00040E850E40E94D01320E030E040E85FE3A0
:1015F0000E9439159B01AC01C301B2010E94A515DF
:101600009B01AC01C701B6010E943815D62FC72F28
:101610006C01E090C602F090C7020091C8021091E0
:10162000C9029701A8010E944D1618161CF4ED2E50
:10163000FC2E8601C701D8018093C2029093C30299
:10164000A093C402B093C5023FEF831A930AA30A82
:10165000B30A8092BA029092BB02A092BC02B092EE
:10166000BD02C090C202D090C302E090C402F090CC
:10167000C502C701B6010E941E166093AA027093AC
:10168000AB028093AC029093AD02A701960160E09B
:1016900074E284E799E40E94A51560939A0270931E
:1016A0009B0280939C0290939D02209188022111BD
:1016B0000BC0DC01CB01B05880939A0290939B023F
:1016C000A0939C02B0939D02DF91CF911F910F9147
:1016D000FF90EF90DF90CF90BF90AF909F908F9052
:1016E0007F906F905F904F9008954F925F926F92AE
:1016F0007F928F929F92AF92BF92CF92DF92EF92A2
:10170000FF926B017C0120E030E0A9010E946A1386
:1017100087FF04C0F7FAF094F7F8F0948090A202E3
:101720009090A302A090A402B090A502A7019601F8
:10173000C501B4010E946A13882309F456C0609160
:10174000BA027091BB028091BC029091BD020E94CE
:1017500071132B013C01A7019601C501B4010E9440
:10176000A5159B01AC01C301B2010E94D0130E94D8
:1017700017166093BA027093BB028093BC029093D9
:10178000BD02A701960160E070E080E090E40E9455
:10179000A5150E94581626E53EE04DE25FE30E9443
:1017A000D01320E034E244E759E40E94D013609360
:1017B000BE027093BF028093C0029093C102C09298
:1017C000A202D092A302E092A402F092A502FF909E
:1017D000EF90DF90CF90BF90AF909F908F907F90D1
:1017E0006F905F904F900C94D009FF90EF90DF9036
:1017F000CF90BF90AF909F908F907F906F905F90B1
:101800004F900895009769F0FC0101900020E9F7DE
:101810003197AF01481B590BBC018DEC91E00C9442
:101820009D0080E090E008950C94020CCF92DF922E
:10183000EF92FF928091AA029091AB02A091AC022C
:10184000B091AD02892B8A2B8B2B09F450C00E94DA
:10185000C1056B017C018091AE029091AF02A09115
:10186000B002B091B102B701A601481B590B6A0B37
:101870007B0B8091AA029091AB02A091AC02B09137
:10188000AD02481759076A077B0788F12091880243
:101890008091920290919302A0919402B09195024E
:1018A000222321F00196A11DB11D03C00197A109BA
:1018B000B1098093920290939302A0939402B09303
:1018C000950240919202509193026091940270911E
:1018D000950286E892E00E947403C092AE02D09214
:1018E000AF02E092B002F092B1020E94D00920E073
:1018F00030E0A90160919A0270919B0280919C0254
:1019000090919D020E946A13811118C081E0C090DD
:101910009602D0909702E0909802F0909902409140
:101920009202509193026091940270919502C416B4
:10193000D506E606F70619F480E001C081E0FF90C5
:10194000EF90DF90CF900895809108039091090364
:101950000C948217CF93DF93CDB7DEB7A3970FB662
:10196000F894DEBF0FBECDBF789484B5826084BD8D
:1019700084B5816084BD85B5826085BD85B5816093
:1019800085BD80916E00816080936E001092810011
:1019900080918100826080938100809181008160CC
:1019A000809381008091800081608093800080918D
:1019B000B10084608093B1008091B0008160809319
:1019C000B00080917A00846080937A0080917A00E0
:1019D000826080937A0080917A00816080937A009F
:1019E00080917A00806880937A001092C100E09123
:1019F000DD01F091DE0182E08083E091D901F09178
:101A0000DA011082E091DB01F091DC018FEC808340
:101A10001092E501E091E101F091E20186E080831E
:101A2000E091DF01F091E001808180618083E091AD
:101A3000DF01F091E001808188608083E091DF0127
:101A4000F091E001808180688083E091DF01F09176
:101A5000E00180818F7D808361E08DE00E9433050D
:101A600061E08091DA020E94330561E08091DA0240
:101A70000E946B0461E08091DC020E94330560E00B
:101A80008091DC020E946B048091DE029091DF0263
:101A90008F3F2FEF920739F061E00E9433058AEC07
:101AA00092E00E949A0488E790E09093E502809388
:101AB000E40260E170E08AEC92E00E94AC048AECFF
:101AC00092E00E94E60580910203909103038F3F0C
:101AD0004FEF9407D9F020910403309105032F3F75
:101AE0003F4FA1F020910603309107032F3F3F4F56
:101AF00069F061E00E94330561E0809104030E9477
:101B0000330561E0809106030E94330560E070E0D8
:101B100088EC92E40E94750B1092A2010E940B06C1
:101B20006093C9017093CA018093CB019093CC015B
:101B300088E0EDEBF1E0DF011D928A95E9F787E09F
:101B4000682E712C98E7E92E91E0F92E23EAC22E37
:101B500021E0D22E8091A2018823E1F00E94160C90
:101B6000409196025091970260919802709199026B
:101B70008091920290919302A0919402B09195026B
:101B8000481759076A077B0769F50E940B061092F0
:101B9000A20128C00E940B060091C9011091CA0140
:101BA0002091CB013091CC014B015C01801A910A4C
:101BB000A20AB30A4CE2841641E09406A104B104DF
:101BC00088F06093C9017093CA018093CB01909310
:101BD000CC016091C80181E068276093C8018DE065
:101BE0000E946B0488E792E00E9461068AE692E018
:101BF0000E9461068DEC91E00E94FC002091C701DB
:101C0000892B29F1211123C08DEC91E00E94DA008B
:101C10008332C9F08A3371F32091C5013091C60136
:101C2000A9014F5F5F4F5093C6014093C501F90171
:101C3000E354FE4F808348305105E4F27092C601B0
:101C40006092C501D7CF91E09093C701D3CF2223F3
:101C500009F43FC2A5EBB1E0E8E01D92EA95E9F78F
:101C6000ADEAB1E0E8E01D92EA95E9F7EDEBF1E0CD
:101C700001900020E9F731978F010D5B1140023090
:101C80001105A4F042E050E06DEB71E085EB91E0CE
:101C90000E94F4180230110549F0A8014250510980
:101CA0006FEB71E08DEA91E00E94F418ADEBB1E0CA
:101CB000E8E01D92EA95E9F71092C7011092C6017B
:101CC0001092C5016DE471E085EB91E00E94DA1895
:101CD000892B21F480E591E00E94140C64E571E009
:101CE00085EB91E00E94DA18892B59F419A280E360
:101CF00088A3CE0180960E94020C82E591E00E94AA
:101D0000140C67E571E085EB91E00E94DA18892BED
:101D100051F06AE571E085EB91E00E94DA18892BB9
:101D200009F481C086C08091A201811102C00E9485
:101D3000BE0680909A0290909B02A0909C02B09068
:101D40009D0220E030E0A901C501B4010E946A13A0
:101D5000882309F463C0A5019401C501B4010E9460
:101D6000D0131B012C016091A2027091A3028091FB
:101D7000A4029091A5029B01AC010E9439159B0120
:101D8000AC01C201B1010E94A5150E9417161B01EA
:101D90002C01FFEF2F1A3F0A4F0A5F0A20E030E0C4
:101DA000A901C501B4010E944D160091960210913F
:101DB000970220919802309199024091920250919D
:101DC000930260919402709195021816A4F4D201C6
:101DD000C101840F951FA61FB71F80179107A20787
:101DE000B307E1F08093960290939702A093980234
:101DF000B093990211C0421953096409750940173B
:101E000051076207730751F040939602509397026F
:101E100060939802709399020E94D0090E94160C58
:101E20008111FCCF76CF8091A201811102C00E9466
:101E3000BE066DE571E085EB91E00E94DA18892B12
:101E400021F480E691E00E94140C64E671E085EBD9
:101E500091E00E94DA18892B21F480E691E00E943B
:101E6000140C67E671E085EB91E00E94DA18892B8B
:101E700059F48091A101882319F08AE691E002C00B
:101E800080E591E00E94140C6EE671E085EB91E034
:101E90000E94DA18892BE1F4409196025091970242
:101EA00060919802709199028091920290919302B0
:101EB000A0919402B0919502481759076A077B07D1
:101EC00019F480E591E002C081E791E00E94140CD2
:101ED00065E771E085EB91E00E94DA18892BF9F44F
:101EE000809199028F93809198028F9380919702AD
:101EF0008F93809196028F93FF92EF92DF92CF9211
:101F00000E94031983EA91E00E94140C82E591E09B
:101F10000E94140C0FB6F894DEBF0FBECDBF6DE764
:101F200071E085EB91E00E94DA18892BF9F4809139
:101F300095028F93809194028F93809193028F9357
:101F4000809192028F93FF92EF92DF92CF920E9444
:101F5000031983EA91E00E94140C82E591E00E944B
:101F6000140C0FB6F894DEBF0FBECDBF60E871E071
:101F700085EB91E00E94DA18892B21F483E891E047
:101F80000E94140C69E871E085EB91E00E94DA1878
:101F9000892B09F050C01A8219821C821B821E8272
:101FA0001D82009108031091090301151105B9F074
:101FB00080900C0390900D03B401CE0101960E9415
:101FC000DA03811105C0CE0101960E94010407C009
:101FD0009E828D82B80189819A810E94ED1883E2E8
:101FE0008AA31BA20D811E810F5F1F4FB801CE0176
:101FF00001960E94DA03882371F029813A818D814C
:102000009E81BE016E5D7F4F820F931F0E94ED186F
:102010001E830D8304C0CE0101960E9401044D81F0
:102020005E8169817A818DEC91E00E949D008981B9
:102030009A810E9482176CE871E085EB91E00E9422
:10204000DA18892B41F460E170E08AEC92E00E949A
:10205000AC041092A1016FE871E085EB91E00E9461
:10206000DA18892B49F460E270E08AEC92E00E9471
:10207000AC04B1E0B093A10162E971E085EB91E0BD
:102080000E94DA18892B29F58091A201811102C0E2
:102090000E94BE0640E150E060E070E08DEA91E011
:1020A0000E94481200919602109197022091980286
:1020B00030919902061717072807390751F06093E6
:1020C00096027093970280939802909399020E94CF
:1020D000D0090E94A3013ECDCF92DF92EF92FF92F2
:1020E000CF93DF931092D0011092CF0188EE93E04E
:1020F000A0E0B0E08093D1019093D201A093D301EE
:10210000B093D40185E191E09093CE018093CD010D
:1021100085EC90E09093DA018093D90184EC90E013
:102120009093DC018093DB0180EC90E09093DE01E2
:102130008093DD0181EC90E09093E0018093DF01DA
:1021400082EC90E09093E2018093E10186EC90E0D4
:102150009093E4018093E3011092E6011092E7016D
:102160001092E8011092E9011092090310920803FD
:1021700010920B0310920A0310920D0310920C039D
:1021800062E070E088E093E00E94DA03811105C00C
:1021900088E093E00E9401040EC082E090E09093FA
:1021A0000D0380930C0365E971E080910803909121
:1021B00009030E94ED181092D0021092D1021092E1
:1021C000D2021092D3021092D4021092D502109231
:1021D000D6021092D70288EC90E09093D9028093B7
:1021E000D8028EE090E09093DB028093DA028FE0D9
:1021F00090E09093DD028093DC028FEF9FEF90934D
:10220000DF028093DE02C1E0D0E0D093E102C09310
:10221000E002D093E302C093E2021092E502109232
:10222000E4021092E7021092E60288EE93E09093A7
:10223000E9028093E8029093EB028093EA02109205
:10224000F4021092F5021092F6021092F702109228
:10225000F0021092F1021092F2021092F302109228
:102260000103109200031092F8021092F9021092EA
:10227000FA021092FB021092FC021092FD021092E0
:10228000FE021092FF021092CC021092CD02109228
:10229000CE021092CF021092EC021092ED02109238
:1022A000EE021092EF0282E190E09093030380939C
:1022B000020381E190E0909305038093040380E1A1
:1022C00090E0909307038093060381E491E090935C
:1022D000CB028093CA0287E291E0909387028093B9
:1022E000860210928902109292021092930210922A
:1022F00094021092950210929602109297021092F8
:1023000098021092990210929A0210929B021092D7
:102310009C0210929D0280E090E0A0E8BFE38093D1
:102320009E0290939F02A093A002B093A1021092EC
:10233000A2021092A3021092A4021092A50280930E
:10234000A6029093A702A093A802B093A9021092AC
:10235000AA021092AB021092AC021092AD02D0937E
:10236000B302C093B2022FEF2093B5021092AE02D7
:102370001092AF021092B0021092B10210928A0233
:1023800010928B0210928C0210928D022BEC33E093
:102390003093B7022093B60229EB33E03093B902B1
:1023A0002093B8021092BA021092BB021092BC02A3
:1023B0001092BD021092BE021092BF021092C00293
:1023C0001092C1021092C2021092C3021092C40273
:1023D0001092C5028093C6029093C702A093C802D0
:1023E000B093C9021092880210928E0210928F024E
:1023F0001092900210929102BC01CD010E94750BC7
:1024000062E082E00E94330582E090E090937902DE
:10241000809378028CE3C82ED12CE12CF12CC09251
:102420007A02D0927B02E0927C02F0927D021092BE
:102430007E0210927F021092800210928102D0934D
:102440008302C093820262E083E00E94330583E04E
:1024500090E090936B0280936A02C0926C02D092DB
:102460006D02E0926E02F0926F0210927002109272
:1024700071021092720210927302D0937502C0938F
:102480007402DF91CF91FF90EF90DF90CF9008958D
:10249000A0E0B0E0EEE4F2E10C94F3145C016B0117
:1024A0007A016115710519F0FB0191838083E114B4
:1024B000F10429F0C7010297839708F0E5C0E50110
:1024C0002196F5011081812F90E00E945E13892BE7
:1024D00011F05E01F4CF1D3229F42196F50111812E
:1024E00001E007C01B3221F4E5012296F5011181BC
:1024F00000E0E114F10409F1F0E1EF16F10429F430
:102500003FC010E3E114F10421F128E0E216F104E8
:1025100001F154F4E2E0EE16F10421F5812C912C46
:10252000A12CB0E4BB2E3EC0FAE0EF16F10439F066
:1025300020E1E216F104B1F430C0103319F1FAE0F1
:10254000EF2EF12CACEC8A2E982CA82CACE0BA2EF5
:1025500029C078E0E72EF12C812C912CA12CE0E110
:10256000BE2E20C060E070E080E090E897010F2C64
:10257000000C440B550B0E949E1449015A0112C0D5
:10258000103359F488818F7D883509F0BACF1981CD
:102590002296026080E1E82EF12C812C912CA12C56
:1025A00068E0B62E40E060E070E0CB0127010F2C20
:1025B000000C66087708FE0150ED352E310E29E03B
:1025C000231570F42FEB210F2A3118F439EC332E38
:1025D00006C02FE9210F2A3118F529EA322E310ED3
:1025E000232D30E02E153F05DCF447FD16C086167E
:1025F0009706A806B90670F0A30192010E948E14F6
:10260000630D711D811D911D61307105810520E8EB
:10261000920710F04FEF01C041E021961081CBCF1F
:10262000202F2170C114D10471F0442329F0219787
:10263000F601D183C08307C001FF19C02297F601BC
:10264000D183C08314C047FF12C0222329F060E069
:1026500070E080E090E804C06FEF7FEF8FEF9FE7BE
:1026600022E230E030930F0320930E0309C02223AF
:1026700081F090958095709561957F4F8F4F9F4F1A
:10268000462F372F282F12C040E030E020E090E0A6
:102690000DC097FFF5CF82E290E090930F038093F7
:1026A0000E036FEF7FEF8FEF9FE7EACF642F732F5B
:1026B000822FCDB7DEB7E1E10C940F1591110C9488
:1026C0006713803219F089508550C8F7089599270B
:1026D000882708950E94AC1308F481E00895E894D7
:1026E00009C097FB3EF490958095709561957F4F5A
:1026F0008F4F9F4F9923A9F0F92F96E9BB27939508
:10270000F695879577956795B795F111F8CFFAF417
:10271000BB0F11F460FF1BC06F5F7F4F8F4F9F4F48
:1027200016C0882311F096E911C0772321F09EE8A6
:10273000872F762F05C0662371F096E8862F70E00C
:1027400060E02AF09A95660F771F881FDAF7880FE6
:102750009695879597F90895990F0008550FAA0B3C
:10276000E0E8FEEF16161706E807F907C0F01216A4
:102770001306E407F50798F0621B730B840B950BA7
:1027800039F40A2661F0232B242B252B21F40895FC
:102790000A2609F4A140A6958FEF811D811D089599
:1027A0000E94E3130C9454140E94461438F00E94C3
:1027B0004D1420F0952311F00C943D140C94431407
:1027C00011240C9488140E94651470F3959FC1F332
:1027D000950F50E0551F629FF001729FBB27F00DCF
:1027E000B11D639FAA27F00DB11DAA1F649F662724
:1027F000B00DA11D661F829F2227B00DA11D621F73
:10280000739FB00DA11D621F839FA00D611D221F2C
:10281000749F3327A00D611D231F849F600D211D10
:10282000822F762F6A2F11249F5750409AF0F1F093
:1028300088234AF0EE0FFF1FBB1F661F771F881FFC
:1028400091505040A9F79E3F510580F00C943D14E3
:102850000C9488145F3FE4F3983ED4F38695779503
:102860006795B795F795E7959F5FC1F7FE2B880FA2
:10287000911D9695879597F9089597F99F6780E838
:1028800070E060E008959FEF80EC089500240A94C2
:102890001616170618060906089500240A9412163B
:1028A0001306140605060895092E0394000C11F46E
:1028B000882352F0BB0F40F4BF2B11F460FF04C01B
:1028C0006F5F7F4F8F4F9F4F089557FD9058440F74
:1028D000551F59F05F3F71F04795880F97FB991F7F
:1028E00061F09F3F79F0879508951216130614063C
:1028F000551FF2CF4695F1DF08C0161617061806C9
:10290000991FF1CF86957105610508940895E894A3
:10291000BB2766277727CB0197F90895DB018F93B3
:102920009F930E94DF14BF91AF91A29F800D911DD4
:10293000A39F900DB29F900D11240895A1E21A2E2D
:10294000AA1BBB1BFD010DC0AA1FBB1FEE1FFF1F53
:10295000A217B307E407F50720F0A21BB30BE40BA3
:10296000F50B661F771F881F991F1A9469F76095EA
:102970007095809590959B01AC01BD01CF010895A4
:10298000052E97FB1EF400940E94D71457FD07D024
:102990000E949E1407FC03D04EF40C94D71450955B
:1029A0004095309521953F4F4F4F5F4F089590953B
:1029B0008095709561957F4F8F4F9F4F08950E942E
:1029C0002915A59F900DB49F900DA49F800D911D7A
:1029D00011240895B7FF0C94DF140E94DF14821BAA
:1029E000930B08952F923F924F925F926F927F9236
:1029F0008F929F92AF92BF92CF92DF92EF92FF920F
:102A00000F931F93CF93DF93CDB7DEB7CA1BDB0BBA
:102A10000FB6F894DEBF0FBECDBF09942A8839885F
:102A200048885F846E847D848C849B84AA84B98466
:102A3000C884DF80EE80FD800C811B81AA81B98172
:102A4000CE0FD11D0FB6F894DEBF0FBECDBFED0186
:102A50000895A29FB001B39FC001A39F700D811D77
:102A60001124911DB29F700D811D1124911D089597
:102A70005058BB27AA270E9450150C9454140E944A
:102A8000461438F00E944D1420F039F49F3F19F499
:102A900026F40C9443140EF4E095E7FB0C943D14DB
:102AA000E92F0E94651458F3BA1762077307840769
:102AB000950720F079F4A6F50C9487140EF4E095B0
:102AC0000B2EBA2FA02D0B01B90190010C01CA01E8
:102AD000A0011124FF27591B99F0593F50F4503E93
:102AE00068F11A16F040A22F232F342F4427585F85
:102AF000F3CF469537952795A795F0405395C9F79D
:102B00007EF41F16BA0B620B730B840BBAF0915054
:102B1000A1F0FF0FBB1F661F771F881FC2F70EC0F3
:102B2000BA0F621F731F841F48F4879577956795C6
:102B3000B795F7959E3F08F0B0CF9395880F08F0B2
:102B40009927EE0F9795879508950E94B9150C94D3
:102B500054140E944D1458F00E94461440F029F479
:102B60005F3F29F00C943D1451110C9488140C947F
:102B700043140E94651468F39923B1F3552391F32C
:102B8000951B550BBB27AA2762177307840738F0DC
:102B90009F5F5F4F220F331F441FAA1FA9F335D039
:102BA0000E2E3AF0E0E832D091505040E695001CED
:102BB000CAF72BD0FE2F29D0660F771F881FBB1FA7
:102BC000261737074807AB07B0E809F0BB0B802D85
:102BD000BF01FF2793585F4F3AF09E3F510578F0B1
:102BE0000C943D140C9488145F3FE4F3983ED4F3A6
:102BF000869577956795B795F7959F5FC9F7880F85
:102C0000911D9695879597F90895E1E0660F771FD6
:102C1000881FBB1F621773078407BA0720F0621B67
:102C2000730B840BBA0BEE1F88F7E09508950E9492
:102C30001E166894B1110C94881408950E946D14A6
:102C400088F09F5798F0B92F9927B751B0F0E1F06D
:102C5000660F771F881F991F1AF0BA95C9F714C01D
:102C6000B13091F00E948714B1E008950C9487145C
:102C7000672F782F8827B85F39F0B93FCCF3869556
:102C800077956795B395D9F73EF4909580957095B3
:102C900061957F4F8F4F9F4F08950E94AC1308F4AA
:102CA0008FEF089519F416F40C9443140C949816AD
:102CB0000E946D14B8F39923C9F3B6F39F57550BCF
:102CC00087FF0E94A6160024A0E640EA90018058E3
:102CD0005695979528F4805C660F771F881F20F023
:102CE00026173707480730F4621B730B840B202923
:102CF00031294A2BA69517940794202531254A2778
:102D000058F7660F771F881F20F0261737074807E8
:102D100030F4620B730B840B200D311D411DA09507
:102D200081F7B901842F9158880F9695879508955A
:102D30009F3F31F0915020F4879577956795B7952F
:102D4000880F911D9695879597F908959150504059
:102D5000660F771F881FD2F7089597FB072E16F48A
:102D6000009407D077FD09D00E94D61607FC05D045
:102D70003EF4909581959F4F0895709561957F4F92
:102D80000895EE0FFF1F0590F491E02D09940E9425
:102D90002915332312F48A1B9B0B0C94D1160E9425
:102DA0002915B7FF0895821B930B0895AA1BBB1B1F
:102DB00051E107C0AA1FBB1FA617B70710F0A61B3B
:102DC000B70B881F991F5A95A9F780959095BC015C
:102DD000CD0108950F931F93CF93DF938230910518
:102DE00010F482E090E0E0911203F091130320E0F0
:102DF00030E0A0E0B0E0309719F1408151810281CC
:102E0000138148175907C8F08417950769F410977C
:102E100031F012960C93129713961C9327C00093CF
:102E200012031093130322C02115310519F0421724
:102E3000530718F49A01BD01EF01DF01F801DBCF60
:102E400021153105F9F0281B390B2430310580F4A8
:102E50008A819B816115710521F0FB019383828337
:102E600004C09093130380931203FE01329644C072
:102E7000FE01E20FF31F81939193225031093983B0
:102E800028833AC02091100330911103232B41F481
:102E9000209102013091030130931103209310031C
:102EA00020910001309101012115310541F42DB728
:102EB0003EB74091040150910501241B350BE09170
:102EC0001003F0911103E217F307A0F42E1B3F0B40
:102ED0002817390778F0AC014E5F5F4F241735078C
:102EE00048F04E0F5F1F50931103409310038193DE
:102EF000919302C0E0E0F0E0CF01DF91CF911F910C
:102F00000F910895CF93DF93009709F481C0FC01DE
:102F1000329713821282A0911203B091130310977B
:102F200081F420813181820F931F20911003309111
:102F300011032817390751F5F0931103E09310039B
:102F400067C0ED0120E030E0CE17DF0740F44A8192
:102F50005B819E0141155105F1F0EA01F5CFD38364
:102F6000C28340815181840F951FC817D90759F436
:102F700088819981840F951F0296918380838A812D
:102F80009B81938382832115310529F4F0931303E8
:102F9000E09312033DC0E901FB83EA834991599113
:102FA000C40FD51FEC17FD0761F480819181840F58
:102FB000951F0296E90199838883828193819B837F
:102FC0008A83E0E0F0E012968D919C911397009730
:102FD00019F0FD01DC01F7CF8D919C9111979D01B6
:102FE0002E5F3F4F820F931F2091100330911103EA
:102FF0002817390769F4309729F4109213031092B7
:10300000120302C013821282B0931103A093100323
:10301000DF91CF910895A0E0B0E0E1E1F8E10C94F8
:10302000F614EC01009721F4CB010E94EA16B4C01B
:10303000FC01E60FF71F9C0122503109E217F3074C
:1030400008F4A8C0D9010D911C9111970617170714
:10305000B0F00530110508F49BC0C801049786172D
:10306000970708F495C002501109061B170B01932E
:1030700011936D937C93CF010E94821789C05B01ED
:10308000A01AB10A4C01800E911EA0911203B091BA
:103090001303612C712CE12CF12C109709F446C01C
:1030A0008D919C911197A815B905B1F56C0142E07D
:1030B000C40ED11CCA14DB0478F14C018A189B0899
:1030C000640142E0C40ED11C1296BC901297139674
:1030D000AC91B5E0CB16D10440F0B282A3839182CB
:1030E0008082D9016D937C9309C00E5F1F4F800FC2
:1030F000911FF90191838083EB2DFA2FE114F104E4
:1031000031F0D7011396FC93EE93129741C0F093E0
:103110001303E09312033CC06816790608F43C01DF
:103120007D0112960D90BC91A02DB7CF8091100318
:103130009091110388169906E1F466167706C8F493
:103140008091000190910101009741F48DB79EB7E5
:103150004091040150910501841B950BE817F90774
:10316000C8F4F0931103E0931003F90171836083B5
:103170000FC0CB010E94EA167C01009759F0A8010C
:10318000BE010E94D118CE010E948217C70104C05F
:10319000CE0102C080E090E0CDB7DEB7EEE00C9447
:1031A0001215FB01DC0102C001900D92415050400C
:1031B000D8F70895FB01DC018D9181341CF08B352B
:1031C0000CF4805E619161341CF06B350CF4605E30
:1031D000861B611189F3990B0895FB01DC010190B5
:1031E0000D920020E1F70895FB01DC0141505040B1
:1031F00048F001900D920020C9F701C01D92415086
:103200005040E0F70895AEE0B0E0E9E0F9E10C9459
:1032100000150D891E8986E08C831A8309838FEF40
:103220009FE79E838D83AE01475E5F4F6F89788DE8
:10323000CE0101960E942519EF81F885E00FF11F5C
:1032400010822E96E4E00C941C15ABE0B0E0EBE2AB
:10325000F9E10C94F2146C017B018A01FC011782E4
:103260001682838181FFCCC1CE0101963C01F6011B
:103270009381F70193FD859193FF81917F018823CD
:1032800009F4BAC1853239F493FD859193FF819198
:103290007F01853229F4B60190E00E941C1BE7CF24
:1032A000912C212C312CFFE1F315D8F08B3279F0E1
:1032B00038F4803279F08332A1F4232D20611DC0CF
:1032C0008D3261F0803369F4232D216016C0832D87
:1032D0008260382EE32DE4603E2E2AC0F32DF86084
:1032E0001DC037FC2DC020ED280F2A3040F08E3253
:1032F000B9F436FC81C1232D2064322E19C036FE6C
:1033000006C08AE0989E200D1124922E11C0EAE09A
:103310002E9E200D1124222EF32DF0623F2E08C088
:103320008C3621F4832D8068382E02C0883641F413
:10333000F70193FD859193FF81917F018111B3CFB7
:10334000982F9F7D9554933028F40C5F1F4F9FE377
:1033500099830DC0833631F0833771F0833509F0DE
:1033600059C021C0F801808189830E5F1F4F8824D6
:103370008394912C530113C02801F2E04F0E511C8D
:10338000F801A080B18036FE03C0692D70E002C054
:103390006FEF7FEFC5010E94111B4C018201F32DDD
:1033A000FF773F2E16C0280122E0420E511CF80183
:1033B000A080B18036FE03C0692D70E002C06FEFBF
:1033C0007FEFC5010E94061B4C01F32DF0683F2ED4
:1033D000820133FC1BC0822D90E088169906B0F460
:1033E000B60180E290E00E941C1B2A94F4CFF50104
:1033F00037FC859137FE81915F01B60190E00E9414
:103400001C1B21102A9421E0821A91088114910436
:1034100071F7E8C0843611F0893641F5F80137FEBE
:1034200007C060817181828193810C5F1F4F08C04A
:1034300060817181072E000C880B990B0E5F1F4F66
:10344000F32DFF763F2E97FF09C0909580957095DC
:1034500061957F4F8F4F9F4FF0683F2E2AE030E0FD
:10346000A3010E94581B882E861845C0853731F469
:10347000232D2F7EB22E2AE030E025C0932D997F98
:10348000B92E8F36C1F018F4883579F0B5C0803781
:1034900019F0883721F0B0C0E92FE061BE2EB4FEEC
:1034A0000DC0FB2DF460BF2E09C034FE0AC0292FC9
:1034B0002660B22E06C028E030E005C020E130E0F2
:1034C00002C020E132E0F801B7FE07C060817181DF
:1034D000828193810C5F1F4F06C06081718180E003
:1034E00090E00E5F1F4FA3010E94581B882E861884
:1034F000FB2DFF773F2E36FE0DC0232D2E7FA22EF3
:10350000891458F434FE0BC032FC09C0832D8E7E22
:10351000A82E05C0B82CA32C03C0B82C01C0B92C10
:10352000A4FE0FC0FE01E80DF11D8081803321F45F
:103530009A2D997EA92E09C0A2FE06C0B394B39419
:1035400004C08A2D867809F0B394A3FC11C0A0FEB4
:1035500006C0B21488F4280C922C9B180EC0B2142A
:1035600060F4B60180E290E00E941C1BB394F7CF98
:10357000B21418F42B1802C0982C212CA4FE10C0F1
:10358000B60180E390E00E941C1BA2FE17C0A1FCC4
:1035900003C088E790E002C088E590E0B6010CC067
:1035A0008A2D867859F0A1FE02C08BE201C080E22C
:1035B000A7FC8DE2B60190E00E941C1B891438F430
:1035C000B60180E390E00E941C1B9A94F7CF8A9486
:1035D000F301E80DF11D8081B60190E00E941C1BF3
:1035E0008110F5CF222009F442CEB60180E290E0AE
:1035F0000E941C1B2A94F6CFF6018681978102C097
:103600008FEF9FEF2B96E2E10C940E15FC010590D5
:10361000615070400110D8F7809590958E0F9F1FD4
:103620000895FC016150704001900110D8F7809519
:1036300090958E0F9F1F08950F931F93CF93DF9345
:10364000FB01238121FD03C08FEF9FEF2CC022FFE0
:1036500016C046815781248135814217530744F4AF
:10366000A081B1819D012F5F3F4F318320838C93D7
:10367000268137812F5F3F4F3783268314C08B010C
:10368000EC01FB010084F185E02D0995892BE1F621
:10369000D80116968D919C911797019617969C9339
:1036A0008E931697CE01DF91CF911F910F910895C0
:1036B000FA01AA27283051F1203181F1E8946F9363
:1036C0006E7F6E5F7F4F8F4F9F4FAF4FB1E03ED009
:1036D000B4E03CD0670F781F891F9A1FA11D680FA7
:1036E000791F8A1F911DA11D6A0F711D811D911DDA
:1036F000A11D20D009F468943F912AE0269F11244F
:103700003019305D3193DEF6CF010895462F4770B2
:10371000405D4193B3E00FD0C9F7F6CF462F4F700D
:10372000405D4A3318F0495D31FD4052419302D06B
:10373000A9F7EACFB4E0A695979587957795679511
:10374000BA95C9F700976105710508959B01AC0111
:103750000A2E06945795479537952795BA95C9F738
:10376000620F731F841F951FA01D089510E0C2E70C
:10377000D0E004C0FE010E94C1162196C337D107D4
:06378000C9F7F894FFCF29
:103786000000140380000001020307000102030485
:10379600070000000034019D00CB008101FC00DA27
:1037A60000EE0000000000A3056F05FB0474035E35
:1037B6000326030503D102B0025A021602000000D6
:1037C60000D601AC04E6059A04DC01D901474200A3
:1037D6003030230045440046510046470047430029
:1037E60030322300474400474800464623004749F5
:1037F6000030312300474E00253034580047500032
:1038060047540030303230230047560053460053A9
:083816004800534E003131005F
:00000001FF
